{
  "contractName": "FlightSuretyApp",
  "abi": [
    {
      "inputs": [
        {
          "internalType": "string",
          "name": "name",
          "type": "string"
        },
        {
          "internalType": "address",
          "name": "airline",
          "type": "address"
        }
      ],
      "payable": false,
      "stateMutability": "nonpayable",
      "type": "constructor"
    },
    {
      "anonymous": false,
      "inputs": [
        {
          "indexed": false,
          "internalType": "string",
          "name": "name",
          "type": "string"
        },
        {
          "indexed": false,
          "internalType": "address",
          "name": "airline",
          "type": "address"
        }
      ],
      "name": "AirlineFunded",
      "type": "event"
    },
    {
      "anonymous": false,
      "inputs": [
        {
          "indexed": false,
          "internalType": "string",
          "name": "name",
          "type": "string"
        },
        {
          "indexed": false,
          "internalType": "address",
          "name": "airline",
          "type": "address"
        }
      ],
      "name": "AirlineQueued",
      "type": "event"
    },
    {
      "anonymous": false,
      "inputs": [
        {
          "indexed": false,
          "internalType": "string",
          "name": "name",
          "type": "string"
        },
        {
          "indexed": false,
          "internalType": "address",
          "name": "airline",
          "type": "address"
        }
      ],
      "name": "AirlineRegistered",
      "type": "event"
    },
    {
      "anonymous": false,
      "inputs": [
        {
          "indexed": false,
          "internalType": "string",
          "name": "name",
          "type": "string"
        },
        {
          "indexed": false,
          "internalType": "address",
          "name": "fromAirline",
          "type": "address"
        },
        {
          "indexed": false,
          "internalType": "address",
          "name": "toAirline",
          "type": "address"
        }
      ],
      "name": "AirlineVoted",
      "type": "event"
    },
    {
      "anonymous": false,
      "inputs": [
        {
          "indexed": false,
          "internalType": "string",
          "name": "flightNumber",
          "type": "string"
        },
        {
          "indexed": false,
          "internalType": "uint256",
          "name": "flightTime",
          "type": "uint256"
        },
        {
          "indexed": false,
          "internalType": "address",
          "name": "airline",
          "type": "address"
        }
      ],
      "name": "FlightCreditInsurees",
      "type": "event"
    },
    {
      "anonymous": false,
      "inputs": [
        {
          "indexed": false,
          "internalType": "string",
          "name": "flightNumber",
          "type": "string"
        },
        {
          "indexed": false,
          "internalType": "uint256",
          "name": "flightTime",
          "type": "uint256"
        },
        {
          "indexed": false,
          "internalType": "address",
          "name": "airline",
          "type": "address"
        }
      ],
      "name": "FlightRegistered",
      "type": "event"
    },
    {
      "anonymous": false,
      "inputs": [
        {
          "indexed": false,
          "internalType": "string",
          "name": "flightNumber",
          "type": "string"
        },
        {
          "indexed": false,
          "internalType": "uint256",
          "name": "flightTime",
          "type": "uint256"
        },
        {
          "indexed": false,
          "internalType": "uint8",
          "name": "statusCode",
          "type": "uint8"
        }
      ],
      "name": "FlightStatus",
      "type": "event"
    },
    {
      "anonymous": false,
      "inputs": [
        {
          "indexed": false,
          "internalType": "bytes32",
          "name": "flightKey",
          "type": "bytes32"
        },
        {
          "indexed": false,
          "internalType": "address",
          "name": "passenger",
          "type": "address"
        },
        {
          "indexed": false,
          "internalType": "uint256",
          "name": "amount",
          "type": "uint256"
        }
      ],
      "name": "PassengerPurchasedInsurance",
      "type": "event"
    },
    {
      "anonymous": false,
      "inputs": [
        {
          "indexed": false,
          "internalType": "address",
          "name": "passenger",
          "type": "address"
        },
        {
          "indexed": false,
          "internalType": "uint256",
          "name": "amount",
          "type": "uint256"
        }
      ],
      "name": "PassengerWithdrawBalance",
      "type": "event"
    },
    {
      "payable": true,
      "stateMutability": "payable",
      "type": "fallback"
    },
    {
      "constant": true,
      "inputs": [
        {
          "internalType": "address",
          "name": "",
          "type": "address"
        }
      ],
      "name": "airlines",
      "outputs": [
        {
          "internalType": "string",
          "name": "name",
          "type": "string"
        },
        {
          "internalType": "enum FlightSuretyApp.AirlineState",
          "name": "status",
          "type": "uint8"
        },
        {
          "internalType": "bool",
          "name": "exists",
          "type": "bool"
        }
      ],
      "payable": false,
      "stateMutability": "view",
      "type": "function"
    },
    {
      "constant": true,
      "inputs": [
        {
          "internalType": "bytes32",
          "name": "",
          "type": "bytes32"
        }
      ],
      "name": "flights",
      "outputs": [
        {
          "internalType": "string",
          "name": "flightNumber",
          "type": "string"
        },
        {
          "internalType": "uint256",
          "name": "flightTime",
          "type": "uint256"
        },
        {
          "internalType": "address",
          "name": "airline",
          "type": "address"
        },
        {
          "internalType": "uint8",
          "name": "statusCode",
          "type": "uint8"
        },
        {
          "internalType": "bool",
          "name": "isPaid",
          "type": "bool"
        },
        {
          "internalType": "bool",
          "name": "exists",
          "type": "bool"
        }
      ],
      "payable": false,
      "stateMutability": "view",
      "type": "function"
    },
    {
      "constant": true,
      "inputs": [
        {
          "internalType": "address",
          "name": "",
          "type": "address"
        }
      ],
      "name": "passengers",
      "outputs": [
        {
          "internalType": "uint256",
          "name": "withdrawBalance",
          "type": "uint256"
        },
        {
          "internalType": "bool",
          "name": "exists",
          "type": "bool"
        }
      ],
      "payable": false,
      "stateMutability": "view",
      "type": "function"
    },
    {
      "constant": true,
      "inputs": [],
      "name": "registeredAirlinesCount",
      "outputs": [
        {
          "internalType": "uint256",
          "name": "",
          "type": "uint256"
        }
      ],
      "payable": false,
      "stateMutability": "view",
      "type": "function"
    },
    {
      "constant": false,
      "inputs": [
        {
          "internalType": "string",
          "name": "name",
          "type": "string"
        },
        {
          "internalType": "address",
          "name": "airline",
          "type": "address"
        }
      ],
      "name": "registerAirline",
      "outputs": [],
      "payable": false,
      "stateMutability": "nonpayable",
      "type": "function"
    },
    {
      "constant": false,
      "inputs": [
        {
          "internalType": "address",
          "name": "airline",
          "type": "address"
        }
      ],
      "name": "voteAirline",
      "outputs": [],
      "payable": false,
      "stateMutability": "nonpayable",
      "type": "function"
    },
    {
      "constant": false,
      "inputs": [],
      "name": "fundAirline",
      "outputs": [],
      "payable": true,
      "stateMutability": "payable",
      "type": "function"
    },
    {
      "constant": false,
      "inputs": [
        {
          "internalType": "string",
          "name": "flightNumber",
          "type": "string"
        },
        {
          "internalType": "uint256",
          "name": "flightTime",
          "type": "uint256"
        }
      ],
      "name": "registerFlight",
      "outputs": [],
      "payable": false,
      "stateMutability": "nonpayable",
      "type": "function"
    },
    {
      "constant": false,
      "inputs": [
        {
          "internalType": "address",
          "name": "airline",
          "type": "address"
        },
        {
          "internalType": "string",
          "name": "flightNumber",
          "type": "string"
        },
        {
          "internalType": "uint256",
          "name": "flightTime",
          "type": "uint256"
        },
        {
          "internalType": "uint8",
          "name": "statusCode",
          "type": "uint8"
        }
      ],
      "name": "processFlightStatus",
      "outputs": [],
      "payable": false,
      "stateMutability": "nonpayable",
      "type": "function"
    },
    {
      "constant": false,
      "inputs": [
        {
          "internalType": "address",
          "name": "airline",
          "type": "address"
        },
        {
          "internalType": "string",
          "name": "flightNumber",
          "type": "string"
        },
        {
          "internalType": "uint256",
          "name": "flightTime",
          "type": "uint256"
        }
      ],
      "name": "buyInsurance",
      "outputs": [],
      "payable": true,
      "stateMutability": "payable",
      "type": "function"
    },
    {
      "constant": false,
      "inputs": [],
      "name": "withdrawFunds",
      "outputs": [],
      "payable": false,
      "stateMutability": "nonpayable",
      "type": "function"
    }
  ],
  "bytecode": "0x6080604052600080556001600460006101000a81548160ff0219169083151502179055503480156200003057600080fd5b506040516200409e3803806200409e833981810160405260408110156200005657600080fd5b81019080805160405193929190846401000000008211156200007757600080fd5b838201915060208201858111156200008e57600080fd5b8251866001820283011164010000000082111715620000ac57600080fd5b8083526020830192505050908051906020019080838360005b83811015620000e2578082015181840152602081019050620000c5565b50505050905090810190601f168015620001105780820380516001836020036101000a031916815260200191505b506040526020018051906020019092919050505033600460016101000a81548173ffffffffffffffffffffffffffffffffffffffff021916908373ffffffffffffffffffffffffffffffffffffffff1602179055506040518060800160405280838152602001600160028111156200018457fe5b81526020016000604051908082528060200260200182016040528015620001ba5781602001602082028038833980820191505090505b50815260200160011515815250600160008373ffffffffffffffffffffffffffffffffffffffff1673ffffffffffffffffffffffffffffffffffffffff16815260200190815260200160002060008201518160000190805190602001906200022492919062000342565b5060208201518160010160006101000a81548160ff021916908360028111156200024a57fe5b021790555060408201518160020190805190602001906200026d929190620003c9565b5060608201518160030160006101000a81548160ff021916908315150217905550905050620002ab6000546001620002b960201b62002ed31760201c565b6000819055505050620004c6565b60008082840190508381101562000338576040517f08c379a000000000000000000000000000000000000000000000000000000000815260040180806020018281038252601b8152602001807f536166654d6174683a206164646974696f6e206f766572666c6f77000000000081525060200191505060405180910390fd5b8091505092915050565b828054600181600116156101000203166002900490600052602060002090601f016020900481019282601f106200038557805160ff1916838001178555620003b6565b82800160010185558215620003b6579182015b82811115620003b557825182559160200191906001019062000398565b5b509050620003c5919062000458565b5090565b82805482825590600052602060002090810192821562000445579160200282015b82811115620004445782518260006101000a81548173ffffffffffffffffffffffffffffffffffffffff021916908373ffffffffffffffffffffffffffffffffffffffff16021790555091602001919060010190620003ea565b5b50905062000454919062000480565b5090565b6200047d91905b80821115620004795760008160009055506001016200045f565b5090565b90565b620004c391905b80821115620004bf57600081816101000a81549073ffffffffffffffffffffffffffffffffffffffff02191690555060010162000487565b5090565b90565b613bc880620004d66000396000f3fe60806040526004361061009c5760003560e01c8063416847691161006457806341684769146103e95780639ed18927146104d3578063ce164fdd146104dd578063d8ab5b891461054d578063e7bdde3b1461059e578063f53aa2e21461065b5761009c565b80630e2c4129146100a657806320c5375e1461018e57806324600fc31461029f5780632f6721d0146102b657806339cfc99514610359575b6100a4610686565b005b3480156100b257600080fd5b5061018c600480360360408110156100c957600080fd5b81019080803590602001906401000000008111156100e657600080fd5b8201836020820111156100f857600080fd5b8035906020019184600183028401116401000000008311171561011a57600080fd5b91908080601f016020809104026020016040519081016040528093929190818152602001838380828437600081840152601f19601f820116905080830192505050505050509192919290803573ffffffffffffffffffffffffffffffffffffffff169060200190929190505050610a7c565b005b34801561019a57600080fd5b506101c7600480360360208110156101b157600080fd5b8101908080359060200190929190505050611085565b60405180806020018781526020018673ffffffffffffffffffffffffffffffffffffffff1673ffffffffffffffffffffffffffffffffffffffff1681526020018560ff1660ff1681526020018415151515815260200183151515158152602001828103825288818151815260200191508051906020019080838360005b8381101561025f578082015181840152602081019050610244565b50505050905090810190601f16801561028c5780820380516001836020036101000a031916815260200191505b5097505050505050505060405180910390f35b3480156102ab57600080fd5b506102b46111a0565b005b610357600480360360608110156102cc57600080fd5b81019080803573ffffffffffffffffffffffffffffffffffffffff1690602001909291908035906020019064010000000081111561030957600080fd5b82018360208201111561031b57600080fd5b8035906020019184600183028401116401000000008311171561033d57600080fd5b90919293919293908035906020019092919050505061144c565b005b34801561036557600080fd5b506103e76004803603604081101561037c57600080fd5b810190808035906020019064010000000081111561039957600080fd5b8201836020820111156103ab57600080fd5b803590602001918460018302840111640100000000831117156103cd57600080fd5b909192939192939080359060200190929190505050611c33565b005b3480156103f557600080fd5b506104386004803603602081101561040c57600080fd5b81019080803573ffffffffffffffffffffffffffffffffffffffff169060200190929190505050611fc0565b604051808060200184600281111561044c57fe5b60ff16815260200183151515158152602001828103825285818151815260200191508051906020019080838360005b8381101561049657808201518184015260208101905061047b565b50505050905090810190601f1680156104c35780820380516001836020036101000a031916815260200191505b5094505050505060405180910390f35b6104db610686565b005b3480156104e957600080fd5b5061052c6004803603602081101561050057600080fd5b81019080803573ffffffffffffffffffffffffffffffffffffffff16906020019092919050505061209c565b60405180838152602001821515151581526020019250505060405180910390f35b34801561055957600080fd5b5061059c6004803603602081101561057057600080fd5b81019080803573ffffffffffffffffffffffffffffffffffffffff1690602001909291905050506120cd565b005b3480156105aa57600080fd5b50610659600480360360808110156105c157600080fd5b81019080803573ffffffffffffffffffffffffffffffffffffffff169060200190929190803590602001906401000000008111156105fe57600080fd5b82018360208201111561061057600080fd5b8035906020019184600183028401116401000000008311171561063257600080fd5b909192939192939080359060200190929190803560ff1690602001909291905050506129e6565b005b34801561066757600080fd5b50610670612ecd565b6040518082815260200191505060405180910390f35b3360011515600160008373ffffffffffffffffffffffffffffffffffffffff1673ffffffffffffffffffffffffffffffffffffffff16815260200190815260200160002060030160009054906101000a900460ff16151514610750576040517f08c379a00000000000000000000000000000000000000000000000000000000081526004018080602001828103825260168152602001807f4169726c696e6520646f6573206e6f742065786973740000000000000000000081525060200191505060405180910390fd5b6001600281111561075d57fe5b600160008373ffffffffffffffffffffffffffffffffffffffff1673ffffffffffffffffffffffffffffffffffffffff16815260200190815260200160002060010160009054906101000a900460ff1660028111156107b857fe5b1461082b576040517f08c379a00000000000000000000000000000000000000000000000000000000081526004018080602001828103825260198152602001807f4169726c696e65206973206e6f7420726567697374657265640000000000000081525060200191505060405180910390fd5b678ac7230489e800008034101561088d576040517f08c379a000000000000000000000000000000000000000000000000000000000815260040180806020018281038252602b815260200180613a19602b913960400191505060405180910390fd5b678ac7230489e800006002600160003373ffffffffffffffffffffffffffffffffffffffff1673ffffffffffffffffffffffffffffffffffffffff16815260200190815260200160002060010160006101000a81548160ff021916908360028111156108f557fe5b02179055507fb79e695bf38dcea3887c0922d0f819d2c35e4197231fb49fc074b143a81feae2600160003373ffffffffffffffffffffffffffffffffffffffff1673ffffffffffffffffffffffffffffffffffffffff1681526020019081526020016000206000013360405180806020018373ffffffffffffffffffffffffffffffffffffffff1673ffffffffffffffffffffffffffffffffffffffff168152602001828103825284818154600181600116156101000203166002900481526020019150805460018160011615610100020316600290048015610a195780601f106109ee57610100808354040283529160200191610a19565b820191906000526020600020905b8154815290600101906020018083116109fc57829003601f168201915b5050935050505060405180910390a1600081340390503373ffffffffffffffffffffffffffffffffffffffff166108fc829081150290604051600060405180830381858888f19350505050158015610a75573d6000803e3d6000fd5b5050505050565b3360011515600160008373ffffffffffffffffffffffffffffffffffffffff1673ffffffffffffffffffffffffffffffffffffffff16815260200190815260200160002060030160009054906101000a900460ff16151514610b46576040517f08c379a00000000000000000000000000000000000000000000000000000000081526004018080602001828103825260168152602001807f4169726c696e6520646f6573206e6f742065786973740000000000000000000081525060200191505060405180910390fd5b60016002811115610b5357fe5b600160008373ffffffffffffffffffffffffffffffffffffffff1673ffffffffffffffffffffffffffffffffffffffff16815260200190815260200160002060010160009054906101000a900460ff166002811115610bae57fe5b1480610c1e5750600280811115610bc157fe5b600160008373ffffffffffffffffffffffffffffffffffffffff1673ffffffffffffffffffffffffffffffffffffffff16815260200190815260200160002060010160009054906101000a900460ff166002811115610c1c57fe5b145b610c73576040517f08c379a0000000000000000000000000000000000000000000000000000000008152600401808060200182810382526023815260200180613a446023913960400191505060405180910390fd5b600360005410610e7757604051806080016040528084815260200160006002811115610c9b57fe5b81526020016000604051908082528060200260200182016040528015610cd05781602001602082028038833980820191505090505b50815260200160011515815250600160008473ffffffffffffffffffffffffffffffffffffffff1673ffffffffffffffffffffffffffffffffffffffff1681526020019081526020016000206000820151816000019080519060200190610d389291906137b6565b5060208201518160010160006101000a81548160ff02191690836002811115610d5d57fe5b02179055506040820151816002019080519060200190610d7e929190613836565b5060608201518160030160006101000a81548160ff0219169083151502179055509050507f139fd9037472380d5bf5a4e6cf302d59173ab6a5ddb235d44912cea4df728c23838360405180806020018373ffffffffffffffffffffffffffffffffffffffff1673ffffffffffffffffffffffffffffffffffffffff168152602001828103825284818151815260200191508051906020019080838360005b83811015610e37578082015181840152602081019050610e1c565b50505050905090810190601f168015610e645780820380516001836020036101000a031916815260200191505b50935050505060405180910390a1611080565b604051806080016040528084815260200160016002811115610e9557fe5b81526020016000604051908082528060200260200182016040528015610eca5781602001602082028038833980820191505090505b50815260200160011515815250600160008473ffffffffffffffffffffffffffffffffffffffff1673ffffffffffffffffffffffffffffffffffffffff1681526020019081526020016000206000820151816000019080519060200190610f329291906137b6565b5060208201518160010160006101000a81548160ff02191690836002811115610f5757fe5b02179055506040820151816002019080519060200190610f78929190613836565b5060608201518160030160006101000a81548160ff021916908315150217905550905050610fa96000546001612ed3565b6000819055507f4389233d1d7e817e3a41447176300b89c596c24ed4d58896d501ddb378abe2c4838360405180806020018373ffffffffffffffffffffffffffffffffffffffff1673ffffffffffffffffffffffffffffffffffffffff168152602001828103825284818151815260200191508051906020019080838360005b83811015611044578082015181840152602081019050611029565b50505050905090810190601f1680156110715780820380516001836020036101000a031916815260200191505b50935050505060405180910390a15b505050565b6002602052806000526040600020600091509050806000018054600181600116156101000203166002900480601f0160208091040260200160405190810160405280929190818152602001828054600181600116156101000203166002900480156111315780601f1061110657610100808354040283529160200191611131565b820191906000526020600020905b81548152906001019060200180831161111457829003601f168201915b5050505050908060010154908060020160009054906101000a900473ffffffffffffffffffffffffffffffffffffffff16908060020160149054906101000a900460ff16908060020160159054906101000a900460ff16908060020160169054906101000a900460ff16905086565b3360011515600360008373ffffffffffffffffffffffffffffffffffffffff1673ffffffffffffffffffffffffffffffffffffffff16815260200190815260200160002060010160009054906101000a900460ff1615151461126a576040517f08c379a00000000000000000000000000000000000000000000000000000000081526004018080602001828103825260198152602001807f50617373656e67657220646f6573206e6f74206578697374730000000000000081525060200191505060405180910390fd5b336000600360008373ffffffffffffffffffffffffffffffffffffffff1673ffffffffffffffffffffffffffffffffffffffff1681526020019081526020016000206000015411611306576040517f08c379a0000000000000000000000000000000000000000000000000000000008152600401808060200182810382526037815260200180613a986037913960400191505060405180910390fd5b6000600360003373ffffffffffffffffffffffffffffffffffffffff1673ffffffffffffffffffffffffffffffffffffffff1681526020019081526020016000206000015490506000600360003373ffffffffffffffffffffffffffffffffffffffff1673ffffffffffffffffffffffffffffffffffffffff168152602001908152602001600020600001819055503373ffffffffffffffffffffffffffffffffffffffff166108fc829081150290604051600060405180830381858888f193505050501580156113db573d6000803e3d6000fd5b507f40dff61d076e677795905805eb7b6094d4e41dd3fb3760e17e6a85867f1a49563382604051808373ffffffffffffffffffffffffffffffffffffffff1673ffffffffffffffffffffffffffffffffffffffff1681526020018281526020019250505060405180910390a1505050565b8360011515600160008373ffffffffffffffffffffffffffffffffffffffff1673ffffffffffffffffffffffffffffffffffffffff16815260200190815260200160002060030160009054906101000a900460ff16151514611516576040517f08c379a00000000000000000000000000000000000000000000000000000000081526004018080602001828103825260168152602001807f4169726c696e6520646f6573206e6f742065786973740000000000000000000081525060200191505060405180910390fd5b60028081111561152257fe5b600160008373ffffffffffffffffffffffffffffffffffffffff1673ffffffffffffffffffffffffffffffffffffffff16815260200190815260200160002060010160009054906101000a900460ff16600281111561157d57fe5b146115f0576040517f08c379a00000000000000000000000000000000000000000000000000000000081526004018080602001828103825260158152602001807f4169726c696e65206973206e6f742066756e646564000000000000000000000081525060200191505060405180910390fd5b8484848080601f016020809104026020016040519081016040528093929190818152602001838380828437600081840152601f19601f82011690508083019250505050505050836000838383604051602001808473ffffffffffffffffffffffffffffffffffffffff1673ffffffffffffffffffffffffffffffffffffffff1660601b815260140183805190602001908083835b602083106116a75780518252602082019150602081019050602083039250611684565b6001836020036101000a0380198251168184511680821785525050505050509050018281526020019350505050604051602081830303815290604052805190602001209050600115156002600083815260200190815260200160002060020160169054906101000a900460ff16151514611789576040517f08c379a00000000000000000000000000000000000000000000000000000000081526004018080602001828103825260188152602001807f466c69676874206973206e6f742072656769737465726564000000000000000081525060200191505060405180910390fd5b600034116117e2576040517f08c379a0000000000000000000000000000000000000000000000000000000008152600401808060200182810382526031815260200180613a676031913960400191505060405180910390fd5b670de0b6b3a7640000341115611843576040517f08c379a0000000000000000000000000000000000000000000000000000000008152600401808060200182810382526038815260200180613b236038913960400191505060405180910390fd5b600089898989604051602001808573ffffffffffffffffffffffffffffffffffffffff1673ffffffffffffffffffffffffffffffffffffffff1660601b815260140184848082843780830192505050828152602001945050505050604051602081830303815290604052805190602001209050601460ff166002600083815260200190815260200160002060020160149054906101000a900460ff1660ff161415611939576040517f08c379a000000000000000000000000000000000000000000000000000000000815260040180806020018281038252603b8152602001806139a9603b913960400191505060405180910390fd5b600060026000838152602001908152602001600020600301905060008090505b8180549050811015611a2d573373ffffffffffffffffffffffffffffffffffffffff1682828154811061198857fe5b9060005260206000200160009054906101000a900473ffffffffffffffffffffffffffffffffffffffff1673ffffffffffffffffffffffffffffffffffffffff161415611a20576040517f08c379a0000000000000000000000000000000000000000000000000000000008152600401808060200182810382526039815260200180613b5b6039913960400191505060405180910390fd5b8080600101915050611959565b50803390806001815401808255809150509060018203906000526020600020016000909192909190916101000a81548173ffffffffffffffffffffffffffffffffffffffff021916908373ffffffffffffffffffffffffffffffffffffffff1602179055505060001515600360003373ffffffffffffffffffffffffffffffffffffffff1673ffffffffffffffffffffffffffffffffffffffff16815260200190815260200160002060010160009054906101000a900460ff1615151415611b5b576000600360003373ffffffffffffffffffffffffffffffffffffffff1673ffffffffffffffffffffffffffffffffffffffff16815260200190815260200160002090506000816000018190555060018160010160006101000a81548160ff021916908315150217905550505b34600360003373ffffffffffffffffffffffffffffffffffffffff1673ffffffffffffffffffffffffffffffffffffffff1681526020019081526020016000206002016000848152602001908152602001600020819055507f046b0f3e6ba2e133615b16d556acc452ce8efd9ccd24904d82db9f85585ca9bd823334604051808481526020018373ffffffffffffffffffffffffffffffffffffffff1673ffffffffffffffffffffffffffffffffffffffff168152602001828152602001935050505060405180910390a15050505050505050505050565b3360011515600160008373ffffffffffffffffffffffffffffffffffffffff1673ffffffffffffffffffffffffffffffffffffffff16815260200190815260200160002060030160009054906101000a900460ff16151514611cfd576040517f08c379a00000000000000000000000000000000000000000000000000000000081526004018080602001828103825260168152602001807f4169726c696e6520646f6573206e6f742065786973740000000000000000000081525060200191505060405180910390fd5b600280811115611d0957fe5b600160008373ffffffffffffffffffffffffffffffffffffffff1673ffffffffffffffffffffffffffffffffffffffff16815260200190815260200160002060010160009054906101000a900460ff166002811115611d6457fe5b14611dd7576040517f08c379a00000000000000000000000000000000000000000000000000000000081526004018080602001828103825260158152602001807f4169726c696e65206973206e6f742066756e646564000000000000000000000081525060200191505060405180910390fd5b600033858585604051602001808573ffffffffffffffffffffffffffffffffffffffff1673ffffffffffffffffffffffffffffffffffffffff1660601b81526014018484808284378083019250505082815260200194505050505060405160208183030381529060405280519060200120905060006002600083815260200190815260200160002090508585826000019190611e749291906138c0565b50838160010181905550338160020160006101000a81548173ffffffffffffffffffffffffffffffffffffffff021916908373ffffffffffffffffffffffffffffffffffffffff16021790555060008160020160146101000a81548160ff021916908360ff16021790555060018160020160166101000a81548160ff02191690831515021790555060008160020160156101000a81548160ff0219169083151502179055507f7e9c226ac5d85c5e088472aea4786ad32703535448a2c13a5963ff836b91551f8686863360405180806020018481526020018373ffffffffffffffffffffffffffffffffffffffff1673ffffffffffffffffffffffffffffffffffffffff1681526020018281038252868682818152602001925080828437600081840152601f19601f8201169050808301925050509550505050505060405180910390a1505050505050565b6001602052806000526040600020600091509050806000018054600181600116156101000203166002900480601f01602080910402602001604051908101604052809291908181526020018280546001816001161561010002031660029004801561206c5780601f106120415761010080835404028352916020019161206c565b820191906000526020600020905b81548152906001019060200180831161204f57829003601f168201915b5050505050908060010160009054906101000a900460ff16908060030160009054906101000a900460ff16905083565b60036020528060005260406000206000915090508060000154908060010160009054906101000a900460ff16905082565b8060011515600160008373ffffffffffffffffffffffffffffffffffffffff1673ffffffffffffffffffffffffffffffffffffffff16815260200190815260200160002060030160009054906101000a900460ff16151514612197576040517f08c379a00000000000000000000000000000000000000000000000000000000081526004018080602001828103825260168152602001807f4169726c696e6520646f6573206e6f742065786973740000000000000000000081525060200191505060405180910390fd5b600060028111156121a457fe5b600160008373ffffffffffffffffffffffffffffffffffffffff1673ffffffffffffffffffffffffffffffffffffffff16815260200190815260200160002060010160009054906101000a900460ff1660028111156121ff57fe5b14612272576040517f08c379a00000000000000000000000000000000000000000000000000000000081526004018080602001828103825260158152602001807f4169726c696e65206973206e6f7420717565756564000000000000000000000081525060200191505060405180910390fd5b3360011515600160008373ffffffffffffffffffffffffffffffffffffffff1673ffffffffffffffffffffffffffffffffffffffff16815260200190815260200160002060030160009054906101000a900460ff1615151461233c576040517f08c379a00000000000000000000000000000000000000000000000000000000081526004018080602001828103825260168152602001807f4169726c696e6520646f6573206e6f742065786973740000000000000000000081525060200191505060405180910390fd5b6001600281111561234957fe5b600160008373ffffffffffffffffffffffffffffffffffffffff1673ffffffffffffffffffffffffffffffffffffffff16815260200190815260200160002060010160009054906101000a900460ff1660028111156123a457fe5b148061241457506002808111156123b757fe5b600160008373ffffffffffffffffffffffffffffffffffffffff1673ffffffffffffffffffffffffffffffffffffffff16815260200190815260200160002060010160009054906101000a900460ff16600281111561241257fe5b145b612469576040517f08c379a0000000000000000000000000000000000000000000000000000000008152600401808060200182810382526023815260200180613a446023913960400191505060405180910390fd5b600080905060008090505b600160008673ffffffffffffffffffffffffffffffffffffffff1673ffffffffffffffffffffffffffffffffffffffff16815260200190815260200160002060020180549050811015612582573373ffffffffffffffffffffffffffffffffffffffff16600160008773ffffffffffffffffffffffffffffffffffffffff1673ffffffffffffffffffffffffffffffffffffffff168152602001908152602001600020600201828154811061252557fe5b9060005260206000200160009054906101000a900473ffffffffffffffffffffffffffffffffffffffff1673ffffffffffffffffffffffffffffffffffffffff1614156125755760019150612582565b8080600101915050612474565b5080156125da576040517f08c379a0000000000000000000000000000000000000000000000000000000008152600401808060200182810382526033815260200180613af06033913960400191505060405180910390fd5b600160008573ffffffffffffffffffffffffffffffffffffffff1673ffffffffffffffffffffffffffffffffffffffff1681526020019081526020016000206002013390806001815401808255809150509060018203906000526020600020016000909192909190916101000a81548173ffffffffffffffffffffffffffffffffffffffff021916908373ffffffffffffffffffffffffffffffffffffffff160217905550507fa54e0d9c0eb31974cf4aea5cb888ef86e0505bf4574e171be405e8fd014bae16600160008673ffffffffffffffffffffffffffffffffffffffff1673ffffffffffffffffffffffffffffffffffffffff168152602001908152602001600020600001338660405180806020018473ffffffffffffffffffffffffffffffffffffffff1673ffffffffffffffffffffffffffffffffffffffff1681526020018373ffffffffffffffffffffffffffffffffffffffff1673ffffffffffffffffffffffffffffffffffffffff1681526020018281038252858181546001816001161561010002031660029004815260200191508054600181600116156101000203166002900480156127d25780601f106127a7576101008083540402835291602001916127d2565b820191906000526020600020905b8154815290600101906020018083116127b557829003601f168201915b505094505050505060405180910390a16127ef6000546002612f5b565b600160008673ffffffffffffffffffffffffffffffffffffffff1673ffffffffffffffffffffffffffffffffffffffff1681526020019081526020016000206002018054905011156129e05760018060008673ffffffffffffffffffffffffffffffffffffffff1673ffffffffffffffffffffffffffffffffffffffff16815260200190815260200160002060010160006101000a81548160ff0219169083600281111561289957fe5b02179055506128ab6000546001612ed3565b6000819055507f4389233d1d7e817e3a41447176300b89c596c24ed4d58896d501ddb378abe2c4600160008673ffffffffffffffffffffffffffffffffffffffff1673ffffffffffffffffffffffffffffffffffffffff1681526020019081526020016000206000018560405180806020018373ffffffffffffffffffffffffffffffffffffffff1673ffffffffffffffffffffffffffffffffffffffff1681526020018281038252848181546001816001161561010002031660029004815260200191508054600181600116156101000203166002900480156129d05780601f106129a5576101008083540402835291602001916129d0565b820191906000526020600020905b8154815290600101906020018083116129b357829003601f168201915b5050935050505060405180910390a15b50505050565b8460011515600160008373ffffffffffffffffffffffffffffffffffffffff1673ffffffffffffffffffffffffffffffffffffffff16815260200190815260200160002060030160009054906101000a900460ff16151514612ab0576040517f08c379a00000000000000000000000000000000000000000000000000000000081526004018080602001828103825260168152602001807f4169726c696e6520646f6573206e6f742065786973740000000000000000000081525060200191505060405180910390fd5b600280811115612abc57fe5b600160008373ffffffffffffffffffffffffffffffffffffffff1673ffffffffffffffffffffffffffffffffffffffff16815260200190815260200160002060010160009054906101000a900460ff166002811115612b1757fe5b14612b8a576040517f08c379a00000000000000000000000000000000000000000000000000000000081526004018080602001828103825260158152602001807f4169726c696e65206973206e6f742066756e646564000000000000000000000081525060200191505060405180910390fd5b8585858080601f016020809104026020016040519081016040528093929190818152602001838380828437600081840152601f19601f82011690508083019250505050505050846000838383604051602001808473ffffffffffffffffffffffffffffffffffffffff1673ffffffffffffffffffffffffffffffffffffffff1660601b815260140183805190602001908083835b60208310612c415780518252602082019150602081019050602083039250612c1e565b6001836020036101000a0380198251168184511680821785525050505050509050018281526020019350505050604051602081830303815290604052805190602001209050600115156002600083815260200190815260200160002060020160169054906101000a900460ff16151514612d23576040517f08c379a00000000000000000000000000000000000000000000000000000000081526004018080602001828103825260188152602001807f466c69676874206973206e6f742072656769737465726564000000000000000081525060200191505060405180910390fd5b60008a8a8a8a604051602001808573ffffffffffffffffffffffffffffffffffffffff1673ffffffffffffffffffffffffffffffffffffffff1660601b815260140184848082843780830192505050828152602001945050505050604051602081830303815290604052805190602001209050866002600083815260200190815260200160002060020160146101000a81548160ff021916908360ff160217905550601460ff166002600083815260200190815260200160002060020160149054906101000a900460ff1660ff161415612e4757612e468b8b8b8080601f016020809104026020016040519081016040528093929190818152602001838380828437600081840152601f19601f820116905080830192505050505050508a612fa5565b5b7faa64de97a0016e1b1bf001490220ade9cee072e22e808be5880cc749c844bf4c8a8a8a8a60405180806020018481526020018360ff1660ff1681526020018281038252868682818152602001925080828437600081840152601f19601f8201169050808301925050509550505050505060405180910390a15050505050505050505050565b60005481565b600080828401905083811015612f51576040517f08c379a000000000000000000000000000000000000000000000000000000000815260040180806020018281038252601b8152602001807f536166654d6174683a206164646974696f6e206f766572666c6f77000000000081525060200191505060405180910390fd5b8091505092915050565b6000612f9d83836040518060400160405280601a81526020017f536166654d6174683a206469766973696f6e206279207a65726f00000000000081525061366a565b905092915050565b8282826000838383604051602001808473ffffffffffffffffffffffffffffffffffffffff1673ffffffffffffffffffffffffffffffffffffffff1660601b815260140183805190602001908083835b602083106130185780518252602082019150602081019050602083039250612ff5565b6001836020036101000a0380198251168184511680821785525050505050509050018281526020019350505050604051602081830303815290604052805190602001209050600115156002600083815260200190815260200160002060020160169054906101000a900460ff161515146130fa576040517f08c379a00000000000000000000000000000000000000000000000000000000081526004018080602001828103825260188152602001807f466c69676874206973206e6f742072656769737465726564000000000000000081525060200191505060405180910390fd5b8686866000838383604051602001808473ffffffffffffffffffffffffffffffffffffffff1673ffffffffffffffffffffffffffffffffffffffff1660601b815260140183805190602001908083835b6020831061316d578051825260208201915060208101905060208303925061314a565b6001836020036101000a0380198251168184511680821785525050505050509050018281526020019350505050604051602081830303815290604052805190602001209050600015156002600083815260200190815260200160002060020160159054906101000a900460ff16151514613232576040517f08c379a00000000000000000000000000000000000000000000000000000000081526004018080602001828103825260358152602001806139e46035913960400191505060405180910390fd5b60008b8b8b604051602001808473ffffffffffffffffffffffffffffffffffffffff1673ffffffffffffffffffffffffffffffffffffffff1660601b815260140183805190602001908083835b602083106132a2578051825260208201915060208101905060208303925061327f565b6001836020036101000a0380198251168184511680821785525050505050509050018281526020019350505050604051602081830303815290604052805190602001209050601460ff166002600083815260200190815260200160002060020160149054906101000a900460ff1660ff1614613386576040517f08c379a00000000000000000000000000000000000000000000000000000000081526004018080602001828103825260128152602001807f466c69676874206973206e6f74206c617465000000000000000000000000000081525060200191505060405180910390fd5b600060026000838152602001908152602001600020600301905060008090505b81805490508110156135535760008282815481106133c057fe5b9060005260206000200160009054906101000a900473ffffffffffffffffffffffffffffffffffffffff1690506000613457613450600360008573ffffffffffffffffffffffffffffffffffffffff1673ffffffffffffffffffffffffffffffffffffffff1681526020019081526020016000206002016000888152602001908152602001600020546096613730565b6064612f5b565b90506000600360008473ffffffffffffffffffffffffffffffffffffffff1673ffffffffffffffffffffffffffffffffffffffff1681526020019081526020016000206002016000878152602001908152602001600020819055506134fe600360008473ffffffffffffffffffffffffffffffffffffffff1673ffffffffffffffffffffffffffffffffffffffff1681526020019081526020016000206000015482612ed3565b600360008473ffffffffffffffffffffffffffffffffffffffff1673ffffffffffffffffffffffffffffffffffffffff16815260200190815260200160002060000181905550505080806001019150506133a6565b5060016002600084815260200190815260200160002060020160156101000a81548160ff0219169083151502179055507f052712d96ea5f77c5acd901d616b61fea347a9b4037a83e8e24ccdae475737768c8c8f60405180806020018481526020018373ffffffffffffffffffffffffffffffffffffffff1673ffffffffffffffffffffffffffffffffffffffff168152602001828103825285818151815260200191508051906020019080838360005b8381101561361f578082015181840152602081019050613604565b50505050905090810190601f16801561364c5780820380516001836020036101000a031916815260200191505b5094505050505060405180910390a150505050505050505050505050565b60008083118290613716576040517f08c379a00000000000000000000000000000000000000000000000000000000081526004018080602001828103825283818151815260200191508051906020019080838360005b838110156136db5780820151818401526020810190506136c0565b50505050905090810190601f1680156137085780820380516001836020036101000a031916815260200191505b509250505060405180910390fd5b50600083858161372257fe5b049050809150509392505050565b60008083141561374357600090506137b0565b600082840290508284828161375457fe5b04146137ab576040517f08c379a0000000000000000000000000000000000000000000000000000000008152600401808060200182810382526021815260200180613acf6021913960400191505060405180910390fd5b809150505b92915050565b828054600181600116156101000203166002900490600052602060002090601f016020900481019282601f106137f757805160ff1916838001178555613825565b82800160010185558215613825579182015b82811115613824578251825591602001919060010190613809565b5b5090506138329190613940565b5090565b8280548282559060005260206000209081019282156138af579160200282015b828111156138ae5782518260006101000a81548173ffffffffffffffffffffffffffffffffffffffff021916908373ffffffffffffffffffffffffffffffffffffffff16021790555091602001919060010190613856565b5b5090506138bc9190613965565b5090565b828054600181600116156101000203166002900490600052602060002090601f016020900481019282601f1061390157803560ff191683800117855561392f565b8280016001018555821561392f579182015b8281111561392e578235825591602001919060010190613913565b5b50905061393c9190613940565b5090565b61396291905b8082111561395e576000816000905550600101613946565b5090565b90565b6139a591905b808211156139a157600081816101000a81549073ffffffffffffffffffffffffffffffffffffffff02191690555060010161396b565b5090565b9056fe43616e6e6f7420707572636861736520696e737572616e636520666f72206120666c69676874207468617420697320616c7265616479206c617465496e73757265642070617373656e67657273206f6e2074686973206c61746520666c696768742068617665206265656e207061696445746865722073656e74206973206c657373207468616e2074686520726571756972656420616d6f756e744169726c696e65206973206e6f742072656769737465726564206f722066756e6465644e65656420746f2073656e6420657468657220696e206f7264657220746f20707572636861736520696e737572616e636550617373656e67657220646f6573206e6f7420686176652062616c616e636520656c696769626c6520666f72207769746864726177616c536166654d6174683a206d756c7469706c69636174696f6e206f766572666c6f7743616c6c65722068617320616c726561647920766f74656420746f20726567697374657265642074686973206169726c696e654d6178696d756d20616d6f756e7420746861742063616e206265207061696420666f7220696e737572616e6365206973203120657468657250617373656e6765722068617320616c72656164792070757263686173656420696e737572616e636520666f72207468697320666c69676874a265627a7a7231582077762c439d6a334422f0dbab490f4040c2e119cc0af744f09189a4308b5921cf64736f6c63430005100032",
  "source": "// SPDX-License-Identifier: MIT\npragma solidity >=0.4.22 <0.9.0;\n\nimport \"../node_modules/openzeppelin-solidity/contracts/math/SafeMath.sol\";\n\ncontract FlightSuretyApp {\n    using SafeMath for uint256;\n    \n    enum AirlineState { QUEUED, REGISTERED, FUNDED }\n    \n    struct Airline {\n        string name;\n        AirlineState status;\n        address[] votes;\n        bool exists;\n    }\n    \n    struct Flight {\n        string flightNumber;\n        uint256 flightTime;        \n        address airline;\n        uint8 statusCode;\n        bool isPaid;\n        bool exists;\n        address[] insuredPassengers;\n    }\n    \n    struct Passenger {\n        uint withdrawBalance;\n        bool exists;\n        mapping(bytes32 => uint) insuredFlights;\n    }\n    \n    // Number of airlines that can registered immediately before\n    // a consensus vote is required\n    uint private constant AIRLINES_REGISTRATION_LIMIT = 3;  \n    uint private constant FUNDING_REQUIRED = 10 ether;\n    uint private constant MAX_INSURANCE_PRICE = 1 ether;\n    \n    // Running counter of registered airlines\n    uint public registeredAirlinesCount = 0;\n    \n    mapping(address => Airline) public airlines;\n    mapping(bytes32 => Flight) public flights;\n    mapping(address => Passenger) public passengers;\n    \n    bool private operational = true;\n    address private contractOwner; \n    \n    // Flight status codes\n    uint8 private constant STATUS_CODE_UNKNOWN = 0;\n    uint8 private constant STATUS_CODE_ON_TIME = 10;\n    uint8 private constant STATUS_CODE_LATE_AIRLINE = 20;\n    uint8 private constant STATUS_CODE_LATE_WEATHER = 30;\n    uint8 private constant STATUS_CODE_LATE_TECHNICAL = 40;\n    uint8 private constant STATUS_CODE_LATE_OTHER = 50;\n    \n    // Events\n    event AirlineRegistered(string name, address airline);\n    event AirlineQueued(string name, address airline);\n    event AirlineFunded(string name, address airline);\n    event AirlineVoted(string name, address fromAirline, address toAirline);\n    event FlightRegistered(string flightNumber, uint flightTime, address airline);\n    event FlightStatus(string flightNumber, uint flightTime, uint8 statusCode);\n    event FlightCreditInsurees(string flightNumber, uint flightTime, address airline);\n    event PassengerPurchasedInsurance(bytes32 flightKey, address passenger, uint amount);\n    event PassengerWithdrawBalance(address passenger, uint amount);\n    \n    // Modifiers\n    modifier requireIsOperational() {\n        require(operational, \"Contract is currently not operational\");\n        _; \n    }\n    \n    modifier requireContractOwner() {\n        require(msg.sender == contractOwner, \"Caller is not contract owner\");\n        _;\n    }\n    \n    // Check if the airline is registered\n    modifier isAirlineRegistered(address airline) {\n        require(airlines[airline].exists == true, \"Airline does not exist\");\n        require(airlines[airline].status == AirlineState.REGISTERED, \"Airline is not registered\");\n        _;\n    }\n    \n    // Check if airline has been queued\n    modifier isAirlineQueued(address airline) {\n        require(airlines[airline].exists == true, \"Airline does not exist\");\n        require(airlines[airline].status == AirlineState.QUEUED, \"Airline is not queued\");\n        _;\n    }\n    \n    // Check if an airline is funded\n    modifier isAirlineFunded(address airline) {\n        require(airlines[airline].exists == true, \"Airline does not exist\");\n        require(airlines[airline].status == AirlineState.FUNDED, \"Airline is not funded\");\n        _;\n    }\n\n    // Check if airline is registered / funded\n    modifier isAirlineRegisteredFunded(address airline) {\n        require(airlines[airline].exists == true, \"Airline does not exist\");\n        require(airlines[airline].status == AirlineState.REGISTERED || airlines[airline].status == AirlineState.FUNDED, \"Airline is not registered or funded\");\n        _;\n    }\n    \n    modifier isFlightRegistered(address airline, string memory flightNumber, uint256 flightTime) {\n        bytes32 flightKey = keccak256(abi.encodePacked(airline, flightNumber, flightTime));\n        require(flights[flightKey].exists == true, \"Flight is not registered\");\n        _;\n    }\n    \n    // Check if flight has been paid\n    modifier isFlightPaid(address airline, string memory flightNumber, uint256 flightTime) {\n        bytes32 flightKey = keccak256(abi.encodePacked(airline, flightNumber, flightTime));\n        require(flights[flightKey].isPaid == false, \"Insured passengers on this late flight have been paid\");\n        _;\n    }\n    \n     // Define a modifier that checks if the paid amount is sufficient to cover the price\n     modifier paidEnough(uint amount) { \n        require(msg.value >= amount, \"Ether sent is less than the required amount\"); \n        _;\n    }\n  \n    // Check the amount sent and refunds the remaining balance\n    modifier checkValue(uint amount) {\n        _;\n        uint amountToReturn = msg.value - amount;\n        msg.sender.transfer(amountToReturn);\n    }\n    \n    // Check passenger pays at least 1 ether for insurance\n    modifier paidEnoughForInsurance() {\n        require(msg.value > 0, \"Need to send ether in order to purchase insurance\");\n        require(msg.value <= MAX_INSURANCE_PRICE, \"Maximum amount that can be paid for insurance is 1 ether\");\n        _;\n    }\n    \n    // Check if passenger exits\n    modifier isPassenger(address passenger) {\n        require(passengers[passenger].exists == true, \"Passenger does not exists\");\n        _;\n    }\n    \n    // Check if passenger is eligible to withdraw\n    modifier canPassengerWithdrawBalance(address passenger) {\n        require(passengers[passenger].withdrawBalance > 0, \"Passenger does not have balance eligible for withdrawal\");\n        _;\n    }\n    \n    constructor(string memory name, address airline) public {\n        contractOwner = msg.sender;\n    \n        // Register the first airline\n        airlines[airline] = Airline({ \n            name: name, \n            status: AirlineState.REGISTERED,\n            votes: new address[](0),\n            exists: true\n        });\n        registeredAirlinesCount = SafeMath.add(registeredAirlinesCount, 1);\n    }\n    \n    // *******************\n    // Airline functions\n    // *******************\n    function registerAirline(string memory name, address airline) isAirlineRegisteredFunded(msg.sender) public {\n        \n        // Queue the airline if the airline registration limit is exceeded\n        if (registeredAirlinesCount >= AIRLINES_REGISTRATION_LIMIT) {\n            \n            // Queue the airline\n            airlines[airline] = Airline({ \n                name: name, \n                status: AirlineState.QUEUED, \n                votes: new address[](0),\n                exists: true\n            }); \n            \n            emit AirlineQueued(name, airline);\n        }\n        else {\n            \n            // Register the airline\n            airlines[airline] = Airline({ \n                name: name, \n                status: AirlineState.REGISTERED,\n                votes: new address[](0),\n                exists: true\n            });  \n            registeredAirlinesCount = SafeMath.add(registeredAirlinesCount, 1);\n            \n            emit AirlineRegistered(name, airline);\n        }\n    }\n    \n    function voteAirline(address airline) \n        isAirlineQueued(airline) \n        isAirlineRegisteredFunded(msg.sender) public {\n        \n         // Check if caller has already called this function\n        bool isDuplicate = false;\n        for (uint i=0; i < airlines[airline].votes.length; i++) {\n            if (airlines[airline].votes[i] == msg.sender) {\n                isDuplicate = true;\n                break;\n            }\n        }\n        require(!isDuplicate, \"Caller has already voted to registered this airline\");\n\n        airlines[airline].votes.push(msg.sender);\n        emit AirlineVoted(airlines[airline].name, msg.sender, airline);\n\n        // Check if airline has the required number of votes 50%+\n        if (airlines[airline].votes.length > SafeMath.div(registeredAirlinesCount, 2)) {\n            airlines[airline].status = AirlineState.REGISTERED;\n            registeredAirlinesCount = SafeMath.add(registeredAirlinesCount, 1);\n            \n            emit AirlineRegistered(airlines[airline].name, airline);\n        }\n    }\n    \n    function fundAirline() isAirlineRegistered(msg.sender) \n        paidEnough(FUNDING_REQUIRED) \n        checkValue(FUNDING_REQUIRED) public payable {\n        airlines[msg.sender].status = AirlineState.FUNDED;\n        \n        emit AirlineFunded(airlines[msg.sender].name, msg.sender);\n    }\n    \n    // *******************\n    // Flights functions\n    // *******************\n    \n    // Only funded airlines can register flights that passengers can insure against\n    function registerFlight(string calldata flightNumber, uint256 flightTime) isAirlineFunded(msg.sender) external {\n        \n        // Generate a unique key for storing the flight details\n        bytes32 flightKey = keccak256(abi.encodePacked(msg.sender, flightNumber, flightTime));\n        \n        // Register the flight\n        Flight storage flight = flights[flightKey];\n        flight.flightNumber = flightNumber;\n        flight.flightTime = flightTime;\n        flight.airline = msg.sender;\n        flight.statusCode = STATUS_CODE_UNKNOWN;\n        flight.exists = true;\n        flight.isPaid = false;\n        \n        emit FlightRegistered(flightNumber, flightTime, msg.sender);\n    }\n    \n    function processFlightStatus(address airline, string calldata flightNumber, uint256 flightTime, uint8 statusCode) \n        isAirlineFunded(airline)\n        isFlightRegistered(airline, flightNumber, flightTime) external {\n            \n        // Generate the flightKey to retrieve the flight details\n        bytes32 flightKey = keccak256(abi.encodePacked(airline, flightNumber, flightTime));\n        \n        // Set the status for the flight\n        flights[flightKey].statusCode = statusCode;\n        \n        // If flight status is STATUS_CODE_LATE_AIRLINE then refund all users that\n        // have insurance for this flight 1.5x\n        if (flights[flightKey].statusCode == STATUS_CODE_LATE_AIRLINE) {\n            creditInsurees(airline, flightNumber, flightTime);\n        }\n        \n        emit FlightStatus(flightNumber, flightTime, statusCode);\n    }\n    \n    // *********************\n    // Passengers functions\n    // *********************\n    \n    function buyInsurance(address airline, string calldata flightNumber, uint256 flightTime) \n        isAirlineFunded(airline)\n        isFlightRegistered(airline, flightNumber, flightTime)\n        paidEnoughForInsurance external payable {\n        \n        // Generate the flightKey to retrieve the flight details\n        bytes32 flightKey = keccak256(abi.encodePacked(airline, flightNumber, flightTime));\n        \n        // Check if flight is not late and eligible for passengers to purchase insurance\n        require(flights[flightKey].statusCode != STATUS_CODE_LATE_AIRLINE, \"Cannot purchase insurance for a flight that is already late\");\n        \n        // Check if passenger has previously bought insurance for this flight\n        address[] storage insuredPassengers = flights[flightKey].insuredPassengers;\n        for (uint i=0; i < insuredPassengers.length; i++) {\n            if (insuredPassengers[i] == msg.sender) {\n                revert(\"Passenger has already purchased insurance for this flight\");   \n            }\n        }\n        \n        // Add passenger to insured passengers list for the flight\n        insuredPassengers.push(msg.sender);\n        \n        // Register passenger if they have not been created previously\n        if (passengers[msg.sender].exists == false) {\n            Passenger storage passenger = passengers[msg.sender];\n            passenger.withdrawBalance = 0;\n            passenger.exists = true;\n        }\n        \n        // Add balance paid for the insured flight\n        passengers[msg.sender].insuredFlights[flightKey] = msg.value;\n        \n        emit PassengerPurchasedInsurance(flightKey, msg.sender, msg.value);\n    }\n    \n    // Credit funds to passengers that have bought insurance and airline is late\n    function creditInsurees(address airline, string memory flightNumber, uint256 flightTime) \n        isFlightRegistered(airline, flightNumber, flightTime)\n        isFlightPaid(airline, flightNumber, flightTime) internal {\n        \n        // Generate the flightKey to retrieve the flight details\n        bytes32 flightKey = keccak256(abi.encodePacked(airline, flightNumber, flightTime));\n        \n        // Check if flight is late\n        require(flights[flightKey].statusCode == STATUS_CODE_LATE_AIRLINE, \"Flight is not late\");\n        \n        // Credit passengers\n        address[] storage insuredPassengers = flights[flightKey].insuredPassengers;\n        for (uint i=0; i < insuredPassengers.length; i++) {\n            address passengerAddress = insuredPassengers[i];\n            uint credit = SafeMath.div(SafeMath.mul(passengers[passengerAddress].insuredFlights[flightKey], 150), 100);\n            \n            // Set balance to 0 for insured passenger\n            passengers[passengerAddress].insuredFlights[flightKey] = 0;\n            \n            // Add credit to current withdraw balance\n            passengers[passengerAddress].withdrawBalance = SafeMath.add(passengers[passengerAddress].withdrawBalance, credit);\n        }\n        \n        // Set flight paid status\n        flights[flightKey].isPaid = true;\n        \n        emit FlightCreditInsurees(flightNumber, flightTime, airline);\n    }\n    \n    // Insuree withdraws the balance owed\n    function withdrawFunds() \n        isPassenger(msg.sender) \n        canPassengerWithdrawBalance(msg.sender) external {\n        \n        // Store the amount to be sent to the passenger\n        uint amountOwed = passengers[msg.sender].withdrawBalance;\n\n        // Reset passengers withdrawal balance to 0 \n        passengers[msg.sender].withdrawBalance = 0;\n\n        // Send funds to passenger\n        msg.sender.transfer(amountOwed);\n        \n        emit PassengerWithdrawBalance(msg.sender, amountOwed);\n    }\n    \n    function() external payable {\n        fundAirline();\n    }\n    \n}",
  "sourcePath": "/Users/antoniocunanan/Desktop/udacity/course 4/submission/udacity-flight-surety/flight-surety-contract/contracts/FlightSuretyApp.sol",
  "compiler": {
    "name": "solc",
    "version": "0.5.16+commit.9c3226ce.Emscripten.clang"
  },
  "schemaVersion": "3.4.1",
  "updatedAt": "2021-08-16T20:07:40.007Z",
  "networkType": "ethereum",
  "devdoc": {
    "methods": {}
  },
  "userdoc": {
    "methods": {}
  }
}