{
  "contractName": "FlightSuretyApp",
  "abi": [
    {
      "inputs": [
        {
          "internalType": "string",
          "name": "name",
          "type": "string"
        },
        {
          "internalType": "address",
          "name": "airline",
          "type": "address"
        }
      ],
      "payable": false,
      "stateMutability": "nonpayable",
      "type": "constructor"
    },
    {
      "anonymous": false,
      "inputs": [
        {
          "indexed": false,
          "internalType": "string",
          "name": "name",
          "type": "string"
        },
        {
          "indexed": false,
          "internalType": "address",
          "name": "airline",
          "type": "address"
        }
      ],
      "name": "AirlineFunded",
      "type": "event"
    },
    {
      "anonymous": false,
      "inputs": [
        {
          "indexed": false,
          "internalType": "string",
          "name": "name",
          "type": "string"
        },
        {
          "indexed": false,
          "internalType": "address",
          "name": "airline",
          "type": "address"
        }
      ],
      "name": "AirlineQueued",
      "type": "event"
    },
    {
      "anonymous": false,
      "inputs": [
        {
          "indexed": false,
          "internalType": "string",
          "name": "name",
          "type": "string"
        },
        {
          "indexed": false,
          "internalType": "address",
          "name": "airline",
          "type": "address"
        }
      ],
      "name": "AirlineRegistered",
      "type": "event"
    },
    {
      "anonymous": false,
      "inputs": [
        {
          "indexed": false,
          "internalType": "string",
          "name": "name",
          "type": "string"
        },
        {
          "indexed": false,
          "internalType": "address",
          "name": "fromAirline",
          "type": "address"
        },
        {
          "indexed": false,
          "internalType": "address",
          "name": "toAirline",
          "type": "address"
        }
      ],
      "name": "AirlineVoted",
      "type": "event"
    },
    {
      "anonymous": false,
      "inputs": [
        {
          "indexed": false,
          "internalType": "string",
          "name": "flightNumber",
          "type": "string"
        },
        {
          "indexed": false,
          "internalType": "uint256",
          "name": "flightTime",
          "type": "uint256"
        },
        {
          "indexed": false,
          "internalType": "address",
          "name": "airline",
          "type": "address"
        },
        {
          "indexed": false,
          "internalType": "bytes32",
          "name": "flightKey",
          "type": "bytes32"
        }
      ],
      "name": "FlightCreditInsurees",
      "type": "event"
    },
    {
      "anonymous": false,
      "inputs": [
        {
          "indexed": false,
          "internalType": "string",
          "name": "flightNumber",
          "type": "string"
        },
        {
          "indexed": false,
          "internalType": "uint256",
          "name": "flightTime",
          "type": "uint256"
        },
        {
          "indexed": false,
          "internalType": "address",
          "name": "airline",
          "type": "address"
        },
        {
          "indexed": false,
          "internalType": "bytes32",
          "name": "flightKey",
          "type": "bytes32"
        }
      ],
      "name": "FlightRegistered",
      "type": "event"
    },
    {
      "anonymous": false,
      "inputs": [
        {
          "indexed": false,
          "internalType": "string",
          "name": "flightNumber",
          "type": "string"
        },
        {
          "indexed": false,
          "internalType": "uint256",
          "name": "flightTime",
          "type": "uint256"
        },
        {
          "indexed": false,
          "internalType": "address",
          "name": "airline",
          "type": "address"
        },
        {
          "indexed": false,
          "internalType": "uint8",
          "name": "statusCode",
          "type": "uint8"
        },
        {
          "indexed": false,
          "internalType": "bytes32",
          "name": "flightKey",
          "type": "bytes32"
        }
      ],
      "name": "FlightStatus",
      "type": "event"
    },
    {
      "anonymous": false,
      "inputs": [
        {
          "indexed": false,
          "internalType": "address",
          "name": "airline",
          "type": "address"
        },
        {
          "indexed": false,
          "internalType": "string",
          "name": "flight",
          "type": "string"
        },
        {
          "indexed": false,
          "internalType": "uint256",
          "name": "timestamp",
          "type": "uint256"
        },
        {
          "indexed": false,
          "internalType": "uint8",
          "name": "status",
          "type": "uint8"
        }
      ],
      "name": "FlightStatusInfo",
      "type": "event"
    },
    {
      "anonymous": false,
      "inputs": [
        {
          "indexed": false,
          "internalType": "address",
          "name": "airline",
          "type": "address"
        },
        {
          "indexed": false,
          "internalType": "string",
          "name": "flight",
          "type": "string"
        },
        {
          "indexed": false,
          "internalType": "uint256",
          "name": "timestamp",
          "type": "uint256"
        },
        {
          "indexed": false,
          "internalType": "uint8",
          "name": "status",
          "type": "uint8"
        }
      ],
      "name": "OracleReport",
      "type": "event"
    },
    {
      "anonymous": false,
      "inputs": [
        {
          "indexed": false,
          "internalType": "uint8",
          "name": "index",
          "type": "uint8"
        },
        {
          "indexed": false,
          "internalType": "address",
          "name": "airline",
          "type": "address"
        },
        {
          "indexed": false,
          "internalType": "string",
          "name": "flight",
          "type": "string"
        },
        {
          "indexed": false,
          "internalType": "uint256",
          "name": "timestamp",
          "type": "uint256"
        }
      ],
      "name": "OracleRequest",
      "type": "event"
    },
    {
      "anonymous": false,
      "inputs": [
        {
          "indexed": false,
          "internalType": "string",
          "name": "name",
          "type": "string"
        },
        {
          "indexed": false,
          "internalType": "bytes32",
          "name": "flightKey",
          "type": "bytes32"
        },
        {
          "indexed": false,
          "internalType": "address",
          "name": "passenger",
          "type": "address"
        },
        {
          "indexed": false,
          "internalType": "uint256",
          "name": "amount",
          "type": "uint256"
        }
      ],
      "name": "PassengerPurchasedInsurance",
      "type": "event"
    },
    {
      "anonymous": false,
      "inputs": [
        {
          "indexed": false,
          "internalType": "address",
          "name": "passenger",
          "type": "address"
        },
        {
          "indexed": false,
          "internalType": "uint256",
          "name": "amount",
          "type": "uint256"
        }
      ],
      "name": "PassengerWithdrawBalance",
      "type": "event"
    },
    {
      "payable": true,
      "stateMutability": "payable",
      "type": "fallback"
    },
    {
      "constant": true,
      "inputs": [],
      "name": "REGISTRATION_FEE",
      "outputs": [
        {
          "internalType": "uint256",
          "name": "",
          "type": "uint256"
        }
      ],
      "payable": false,
      "stateMutability": "view",
      "type": "function"
    },
    {
      "constant": true,
      "inputs": [
        {
          "internalType": "address",
          "name": "",
          "type": "address"
        }
      ],
      "name": "airlines",
      "outputs": [
        {
          "internalType": "string",
          "name": "name",
          "type": "string"
        },
        {
          "internalType": "enum FlightSuretyApp.AirlineState",
          "name": "status",
          "type": "uint8"
        },
        {
          "internalType": "bool",
          "name": "exists",
          "type": "bool"
        }
      ],
      "payable": false,
      "stateMutability": "view",
      "type": "function"
    },
    {
      "constant": true,
      "inputs": [
        {
          "internalType": "bytes32",
          "name": "",
          "type": "bytes32"
        }
      ],
      "name": "flights",
      "outputs": [
        {
          "internalType": "string",
          "name": "flightNumber",
          "type": "string"
        },
        {
          "internalType": "uint256",
          "name": "flightTime",
          "type": "uint256"
        },
        {
          "internalType": "address",
          "name": "airline",
          "type": "address"
        },
        {
          "internalType": "uint8",
          "name": "statusCode",
          "type": "uint8"
        },
        {
          "internalType": "bool",
          "name": "isPaid",
          "type": "bool"
        },
        {
          "internalType": "bool",
          "name": "exists",
          "type": "bool"
        }
      ],
      "payable": false,
      "stateMutability": "view",
      "type": "function"
    },
    {
      "constant": true,
      "inputs": [
        {
          "internalType": "address",
          "name": "",
          "type": "address"
        }
      ],
      "name": "passengers",
      "outputs": [
        {
          "internalType": "string",
          "name": "name",
          "type": "string"
        },
        {
          "internalType": "uint256",
          "name": "withdrawBalance",
          "type": "uint256"
        },
        {
          "internalType": "bool",
          "name": "exists",
          "type": "bool"
        }
      ],
      "payable": false,
      "stateMutability": "view",
      "type": "function"
    },
    {
      "constant": true,
      "inputs": [],
      "name": "registeredAirlinesCount",
      "outputs": [
        {
          "internalType": "uint256",
          "name": "",
          "type": "uint256"
        }
      ],
      "payable": false,
      "stateMutability": "view",
      "type": "function"
    },
    {
      "constant": false,
      "inputs": [
        {
          "internalType": "string",
          "name": "name",
          "type": "string"
        },
        {
          "internalType": "address",
          "name": "airline",
          "type": "address"
        }
      ],
      "name": "registerAirline",
      "outputs": [],
      "payable": false,
      "stateMutability": "nonpayable",
      "type": "function"
    },
    {
      "constant": false,
      "inputs": [
        {
          "internalType": "address",
          "name": "airline",
          "type": "address"
        }
      ],
      "name": "voteAirline",
      "outputs": [],
      "payable": false,
      "stateMutability": "nonpayable",
      "type": "function"
    },
    {
      "constant": false,
      "inputs": [],
      "name": "fundAirline",
      "outputs": [],
      "payable": true,
      "stateMutability": "payable",
      "type": "function"
    },
    {
      "constant": false,
      "inputs": [
        {
          "internalType": "string",
          "name": "flightNumber",
          "type": "string"
        },
        {
          "internalType": "uint256",
          "name": "flightTime",
          "type": "uint256"
        }
      ],
      "name": "registerFlight",
      "outputs": [],
      "payable": false,
      "stateMutability": "nonpayable",
      "type": "function"
    },
    {
      "constant": false,
      "inputs": [
        {
          "internalType": "address",
          "name": "airline",
          "type": "address"
        },
        {
          "internalType": "string",
          "name": "flightNumber",
          "type": "string"
        },
        {
          "internalType": "uint256",
          "name": "flightTime",
          "type": "uint256"
        },
        {
          "internalType": "uint8",
          "name": "statusCode",
          "type": "uint8"
        }
      ],
      "name": "processFlightStatus",
      "outputs": [],
      "payable": false,
      "stateMutability": "nonpayable",
      "type": "function"
    },
    {
      "constant": false,
      "inputs": [
        {
          "internalType": "string",
          "name": "name",
          "type": "string"
        },
        {
          "internalType": "address",
          "name": "airline",
          "type": "address"
        },
        {
          "internalType": "string",
          "name": "flightNumber",
          "type": "string"
        },
        {
          "internalType": "uint256",
          "name": "flightTime",
          "type": "uint256"
        }
      ],
      "name": "buyInsurance",
      "outputs": [],
      "payable": true,
      "stateMutability": "payable",
      "type": "function"
    },
    {
      "constant": false,
      "inputs": [],
      "name": "withdrawFunds",
      "outputs": [],
      "payable": false,
      "stateMutability": "nonpayable",
      "type": "function"
    },
    {
      "constant": false,
      "inputs": [],
      "name": "registerOracle",
      "outputs": [],
      "payable": true,
      "stateMutability": "payable",
      "type": "function"
    },
    {
      "constant": true,
      "inputs": [],
      "name": "getMyIndexes",
      "outputs": [
        {
          "internalType": "uint8[3]",
          "name": "",
          "type": "uint8[3]"
        }
      ],
      "payable": false,
      "stateMutability": "view",
      "type": "function"
    },
    {
      "constant": false,
      "inputs": [
        {
          "internalType": "uint8",
          "name": "index",
          "type": "uint8"
        },
        {
          "internalType": "address",
          "name": "airline",
          "type": "address"
        },
        {
          "internalType": "string",
          "name": "flight",
          "type": "string"
        },
        {
          "internalType": "uint256",
          "name": "timestamp",
          "type": "uint256"
        },
        {
          "internalType": "uint8",
          "name": "statusCode",
          "type": "uint8"
        }
      ],
      "name": "submitOracleResponse",
      "outputs": [],
      "payable": false,
      "stateMutability": "nonpayable",
      "type": "function"
    }
  ],
  "bytecode": "0x6080604052600080556001600460006101000a81548160ff0219169083151502179055506000600460156101000a81548160ff021916908360ff1602179055503480156200004c57600080fd5b50604051620050e4380380620050e4833981810160405260408110156200007257600080fd5b81019080805160405193929190846401000000008211156200009357600080fd5b83820191506020820185811115620000aa57600080fd5b8251866001820283011164010000000082111715620000c857600080fd5b8083526020830192505050908051906020019080838360005b83811015620000fe578082015181840152602081019050620000e1565b50505050905090810190601f1680156200012c5780820380516001836020036101000a031916815260200191505b506040526020018051906020019092919050505033600460016101000a81548173ffffffffffffffffffffffffffffffffffffffff021916908373ffffffffffffffffffffffffffffffffffffffff160217905550604051806080016040528083815260200160016002811115620001a057fe5b81526020016000604051908082528060200260200182016040528015620001d65781602001602082028038833980820191505090505b50815260200160011515815250600160008373ffffffffffffffffffffffffffffffffffffffff1673ffffffffffffffffffffffffffffffffffffffff1681526020019081526020016000206000820151816000019080519060200190620002409291906200035e565b5060208201518160010160006101000a81548160ff021916908360028111156200026657fe5b0217905550604082015181600201908051906020019062000289929190620003e5565b5060608201518160030160006101000a81548160ff021916908315150217905550905050620002c76000546001620002d560201b62003b061760201c565b6000819055505050620004e2565b60008082840190508381101562000354576040517f08c379a000000000000000000000000000000000000000000000000000000000815260040180806020018281038252601b8152602001807f536166654d6174683a206164646974696f6e206f766572666c6f77000000000081525060200191505060405180910390fd5b8091505092915050565b828054600181600116156101000203166002900490600052602060002090601f016020900481019282601f10620003a157805160ff1916838001178555620003d2565b82800160010185558215620003d2579182015b82811115620003d1578251825591602001919060010190620003b4565b5b509050620003e1919062000474565b5090565b82805482825590600052602060002090810192821562000461579160200282015b82811115620004605782518260006101000a81548173ffffffffffffffffffffffffffffffffffffffff021916908373ffffffffffffffffffffffffffffffffffffffff1602179055509160200191906001019062000406565b5b5090506200047091906200049c565b5090565b6200049991905b80821115620004955760008160009055506001016200047b565b5090565b90565b620004df91905b80821115620004db57600081816101000a81549073ffffffffffffffffffffffffffffffffffffffff021916905550600101620004a3565b5090565b90565b614bf280620004f26000396000f3fe6080604052600436106100e85760003560e01c80635f1cc0e61161008a578063ce164fdd11610059578063ce164fdd146106d0578063d8ab5b89146107ac578063e7bdde3b146107fd578063f53aa2e2146108fc576100e8565b80635f1cc0e61461057e57806364b4f751146105d15780639ed18927146105fc578063c10f270014610606576100e8565b80632e9ca67d116100c65780632e9ca67d14610302578063339d2590146103fa57806339cfc995146104045780634168476914610494576100e8565b80630e2c4129146100f257806320c5375e146101da57806324600fc3146102eb575b6100f0610927565b005b3480156100fe57600080fd5b506101d86004803603604081101561011557600080fd5b810190808035906020019064010000000081111561013257600080fd5b82018360208201111561014457600080fd5b8035906020019184600183028401116401000000008311171561016657600080fd5b91908080601f016020809104026020016040519081016040528093929190818152602001838380828437600081840152601f19601f820116905080830192505050505050509192919290803573ffffffffffffffffffffffffffffffffffffffff169060200190929190505050610d1d565b005b3480156101e657600080fd5b50610213600480360360208110156101fd57600080fd5b81019080803590602001909291905050506113d4565b60405180806020018781526020018673ffffffffffffffffffffffffffffffffffffffff1673ffffffffffffffffffffffffffffffffffffffff1681526020018560ff1660ff1681526020018415151515815260200183151515158152602001828103825288818151815260200191508051906020019080838360005b838110156102ab578082015181840152602081019050610290565b50505050905090810190601f1680156102d85780820380516001836020036101000a031916815260200191505b5097505050505050505060405180910390f35b3480156102f757600080fd5b506103006114ef565b005b6103f86004803603608081101561031857600080fd5b810190808035906020019064010000000081111561033557600080fd5b82018360208201111561034757600080fd5b8035906020019184600183028401116401000000008311171561036957600080fd5b9091929391929390803573ffffffffffffffffffffffffffffffffffffffff169060200190929190803590602001906401000000008111156103aa57600080fd5b8201836020820111156103bc57600080fd5b803590602001918460018302840111640100000000831117156103de57600080fd5b90919293919293908035906020019092919050505061179b565b005b610402611fcc565b005b34801561041057600080fd5b506104926004803603604081101561042757600080fd5b810190808035906020019064010000000081111561044457600080fd5b82018360208201111561045657600080fd5b8035906020019184600183028401116401000000008311171561047857600080fd5b9091929391929390803590602001909291905050506120f2565b005b3480156104a057600080fd5b506104e3600480360360208110156104b757600080fd5b81019080803573ffffffffffffffffffffffffffffffffffffffff169060200190929190505050612487565b60405180806020018460028111156104f757fe5b60ff16815260200183151515158152602001828103825285818151815260200191508051906020019080838360005b83811015610541578082015181840152602081019050610526565b50505050905090810190601f16801561056e5780820380516001836020036101000a031916815260200191505b5094505050505060405180910390f35b34801561058a57600080fd5b50610593612563565b6040518082600360200280838360005b838110156105be5780820151818401526020810190506105a3565b5050505090500191505060405180910390f35b3480156105dd57600080fd5b506105e66126d6565b6040518082815260200191505060405180910390f35b610604610927565b005b34801561061257600080fd5b506106ce600480360360a081101561062957600080fd5b81019080803560ff169060200190929190803573ffffffffffffffffffffffffffffffffffffffff1690602001909291908035906020019064010000000081111561067357600080fd5b82018360208201111561068557600080fd5b803590602001918460018302840111640100000000831117156106a757600080fd5b909192939192939080359060200190929190803560ff1690602001909291905050506126e2565b005b3480156106dc57600080fd5b5061071f600480360360208110156106f357600080fd5b81019080803573ffffffffffffffffffffffffffffffffffffffff169060200190929190505050612c03565b604051808060200184815260200183151515158152602001828103825285818151815260200191508051906020019080838360005b8381101561076f578082015181840152602081019050610754565b50505050905090810190601f16801561079c5780820380516001836020036101000a031916815260200191505b5094505050505060405180910390f35b3480156107b857600080fd5b506107fb600480360360208110156107cf57600080fd5b81019080803573ffffffffffffffffffffffffffffffffffffffff169060200190929190505050612cd2565b005b34801561080957600080fd5b506108fa6004803603608081101561082057600080fd5b81019080803573ffffffffffffffffffffffffffffffffffffffff1690602001909291908035906020019064010000000081111561085d57600080fd5b82018360208201111561086f57600080fd5b8035906020019184600183028401116401000000008311171561089157600080fd5b91908080601f016020809104026020016040519081016040528093929190818152602001838380828437600081840152601f19601f82011690508083019250505050505050919291929080359060200190929190803560ff1690602001909291905050506135eb565b005b34801561090857600080fd5b50610911613b00565b6040518082815260200191505060405180910390f35b3360011515600160008373ffffffffffffffffffffffffffffffffffffffff1673ffffffffffffffffffffffffffffffffffffffff16815260200190815260200160002060030160009054906101000a900460ff161515146109f1576040517f08c379a00000000000000000000000000000000000000000000000000000000081526004018080602001828103825260168152602001807f4169726c696e6520646f6573206e6f742065786973740000000000000000000081525060200191505060405180910390fd5b600160028111156109fe57fe5b600160008373ffffffffffffffffffffffffffffffffffffffff1673ffffffffffffffffffffffffffffffffffffffff16815260200190815260200160002060010160009054906101000a900460ff166002811115610a5957fe5b14610acc576040517f08c379a00000000000000000000000000000000000000000000000000000000081526004018080602001828103825260198152602001807f4169726c696e65206973206e6f7420726567697374657265640000000000000081525060200191505060405180910390fd5b678ac7230489e8000080341015610b2e576040517f08c379a000000000000000000000000000000000000000000000000000000000815260040180806020018281038252602b8152602001806149eb602b913960400191505060405180910390fd5b678ac7230489e800006002600160003373ffffffffffffffffffffffffffffffffffffffff1673ffffffffffffffffffffffffffffffffffffffff16815260200190815260200160002060010160006101000a81548160ff02191690836002811115610b9657fe5b02179055507fb79e695bf38dcea3887c0922d0f819d2c35e4197231fb49fc074b143a81feae2600160003373ffffffffffffffffffffffffffffffffffffffff1673ffffffffffffffffffffffffffffffffffffffff1681526020019081526020016000206000013360405180806020018373ffffffffffffffffffffffffffffffffffffffff1673ffffffffffffffffffffffffffffffffffffffff168152602001828103825284818154600181600116156101000203166002900481526020019150805460018160011615610100020316600290048015610cba5780601f10610c8f57610100808354040283529160200191610cba565b820191906000526020600020905b815481529060010190602001808311610c9d57829003601f168201915b5050935050505060405180910390a1600081340390503373ffffffffffffffffffffffffffffffffffffffff166108fc829081150290604051600060405180830381858888f19350505050158015610d16573d6000803e3d6000fd5b5050505050565b8060001515600160008373ffffffffffffffffffffffffffffffffffffffff1673ffffffffffffffffffffffffffffffffffffffff16815260200190815260200160002060030160009054906101000a900460ff16151514610dca576040517f08c379a0000000000000000000000000000000000000000000000000000000008152600401808060200182810382526035815260200180614aa16035913960400191505060405180910390fd5b3360011515600160008373ffffffffffffffffffffffffffffffffffffffff1673ffffffffffffffffffffffffffffffffffffffff16815260200190815260200160002060030160009054906101000a900460ff16151514610e94576040517f08c379a00000000000000000000000000000000000000000000000000000000081526004018080602001828103825260168152602001807f4169726c696e6520646f6573206e6f742065786973740000000000000000000081525060200191505060405180910390fd5b60016002811115610ea157fe5b600160008373ffffffffffffffffffffffffffffffffffffffff1673ffffffffffffffffffffffffffffffffffffffff16815260200190815260200160002060010160009054906101000a900460ff166002811115610efc57fe5b1480610f6c5750600280811115610f0f57fe5b600160008373ffffffffffffffffffffffffffffffffffffffff1673ffffffffffffffffffffffffffffffffffffffff16815260200190815260200160002060010160009054906101000a900460ff166002811115610f6a57fe5b145b610fc1576040517f08c379a0000000000000000000000000000000000000000000000000000000008152600401808060200182810382526023815260200180614a166023913960400191505060405180910390fd5b6003600054106111c557604051806080016040528085815260200160006002811115610fe957fe5b8152602001600060405190808252806020026020018201604052801561101e5781602001602082028038833980820191505090505b50815260200160011515815250600160008573ffffffffffffffffffffffffffffffffffffffff1673ffffffffffffffffffffffffffffffffffffffff168152602001908152602001600020600082015181600001908051906020019061108692919061466d565b5060208201518160010160006101000a81548160ff021916908360028111156110ab57fe5b021790555060408201518160020190805190602001906110cc9291906146ed565b5060608201518160030160006101000a81548160ff0219169083151502179055509050507f139fd9037472380d5bf5a4e6cf302d59173ab6a5ddb235d44912cea4df728c23848460405180806020018373ffffffffffffffffffffffffffffffffffffffff1673ffffffffffffffffffffffffffffffffffffffff168152602001828103825284818151815260200191508051906020019080838360005b8381101561118557808201518184015260208101905061116a565b50505050905090810190601f1680156111b25780820380516001836020036101000a031916815260200191505b50935050505060405180910390a16113ce565b6040518060800160405280858152602001600160028111156111e357fe5b815260200160006040519080825280602002602001820160405280156112185781602001602082028038833980820191505090505b50815260200160011515815250600160008573ffffffffffffffffffffffffffffffffffffffff1673ffffffffffffffffffffffffffffffffffffffff168152602001908152602001600020600082015181600001908051906020019061128092919061466d565b5060208201518160010160006101000a81548160ff021916908360028111156112a557fe5b021790555060408201518160020190805190602001906112c69291906146ed565b5060608201518160030160006101000a81548160ff0219169083151502179055509050506112f76000546001613b06565b6000819055507f4389233d1d7e817e3a41447176300b89c596c24ed4d58896d501ddb378abe2c4848460405180806020018373ffffffffffffffffffffffffffffffffffffffff1673ffffffffffffffffffffffffffffffffffffffff168152602001828103825284818151815260200191508051906020019080838360005b83811015611392578082015181840152602081019050611377565b50505050905090810190601f1680156113bf5780820380516001836020036101000a031916815260200191505b50935050505060405180910390a15b50505050565b6002602052806000526040600020600091509050806000018054600181600116156101000203166002900480601f0160208091040260200160405190810160405280929190818152602001828054600181600116156101000203166002900480156114805780601f1061145557610100808354040283529160200191611480565b820191906000526020600020905b81548152906001019060200180831161146357829003601f168201915b5050505050908060010154908060020160009054906101000a900473ffffffffffffffffffffffffffffffffffffffff16908060020160149054906101000a900460ff16908060020160159054906101000a900460ff16908060020160169054906101000a900460ff16905086565b3360011515600360008373ffffffffffffffffffffffffffffffffffffffff1673ffffffffffffffffffffffffffffffffffffffff16815260200190815260200160002060020160009054906101000a900460ff161515146115b9576040517f08c379a00000000000000000000000000000000000000000000000000000000081526004018080602001828103825260198152602001807f50617373656e67657220646f6573206e6f74206578697374730000000000000081525060200191505060405180910390fd5b336000600360008373ffffffffffffffffffffffffffffffffffffffff1673ffffffffffffffffffffffffffffffffffffffff1681526020019081526020016000206001015411611655576040517f08c379a0000000000000000000000000000000000000000000000000000000008152600401808060200182810382526037815260200180614a6a6037913960400191505060405180910390fd5b6000600360003373ffffffffffffffffffffffffffffffffffffffff1673ffffffffffffffffffffffffffffffffffffffff1681526020019081526020016000206001015490506000600360003373ffffffffffffffffffffffffffffffffffffffff1673ffffffffffffffffffffffffffffffffffffffff168152602001908152602001600020600101819055503373ffffffffffffffffffffffffffffffffffffffff166108fc829081150290604051600060405180830381858888f1935050505015801561172a573d6000803e3d6000fd5b507f40dff61d076e677795905805eb7b6094d4e41dd3fb3760e17e6a85867f1a49563382604051808373ffffffffffffffffffffffffffffffffffffffff1673ffffffffffffffffffffffffffffffffffffffff1681526020018281526020019250505060405180910390a1505050565b8360011515600160008373ffffffffffffffffffffffffffffffffffffffff1673ffffffffffffffffffffffffffffffffffffffff16815260200190815260200160002060030160009054906101000a900460ff16151514611865576040517f08c379a00000000000000000000000000000000000000000000000000000000081526004018080602001828103825260168152602001807f4169726c696e6520646f6573206e6f742065786973740000000000000000000081525060200191505060405180910390fd5b60028081111561187157fe5b600160008373ffffffffffffffffffffffffffffffffffffffff1673ffffffffffffffffffffffffffffffffffffffff16815260200190815260200160002060010160009054906101000a900460ff1660028111156118cc57fe5b1461193f576040517f08c379a00000000000000000000000000000000000000000000000000000000081526004018080602001828103825260158152602001807f4169726c696e65206973206e6f742066756e646564000000000000000000000081525060200191505060405180910390fd5b8484848080601f016020809104026020016040519081016040528093929190818152602001838380828437600081840152601f19601f82011690508083019250505050505050836000838383604051602001808473ffffffffffffffffffffffffffffffffffffffff1673ffffffffffffffffffffffffffffffffffffffff1660601b815260140183805190602001908083835b602083106119f657805182526020820191506020810190506020830392506119d3565b6001836020036101000a0380198251168184511680821785525050505050509050018281526020019350505050604051602081830303815290604052805190602001209050600115156002600083815260200190815260200160002060020160169054906101000a900460ff16151514611ad8576040517f08c379a00000000000000000000000000000000000000000000000000000000081526004018080602001828103825260188152602001807f466c69676874206973206e6f742072656769737465726564000000000000000081525060200191505060405180910390fd5b60003411611b31576040517f08c379a0000000000000000000000000000000000000000000000000000000008152600401808060200182810382526031815260200180614a396031913960400191505060405180910390fd5b670de0b6b3a7640000341115611b92576040517f08c379a0000000000000000000000000000000000000000000000000000000008152600401808060200182810382526038815260200180614b2a6038913960400191505060405180910390fd5b600089898989604051602001808573ffffffffffffffffffffffffffffffffffffffff1673ffffffffffffffffffffffffffffffffffffffff1660601b815260140184848082843780830192505050828152602001945050505050604051602081830303815290604052805190602001209050601460ff166002600083815260200190815260200160002060020160149054906101000a900460ff1660ff161415611c88576040517f08c379a000000000000000000000000000000000000000000000000000000000815260040180806020018281038252603b81526020018061497b603b913960400191505060405180910390fd5b600060026000838152602001908152602001600020600301905060008090505b8180549050811015611d7c573373ffffffffffffffffffffffffffffffffffffffff16828281548110611cd757fe5b9060005260206000200160009054906101000a900473ffffffffffffffffffffffffffffffffffffffff1673ffffffffffffffffffffffffffffffffffffffff161415611d6f576040517f08c379a0000000000000000000000000000000000000000000000000000000008152600401808060200182810382526039815260200180614b856039913960400191505060405180910390fd5b8080600101915050611ca8565b50803390806001815401808255809150509060018203906000526020600020016000909192909190916101000a81548173ffffffffffffffffffffffffffffffffffffffff021916908373ffffffffffffffffffffffffffffffffffffffff1602179055505060001515600360003373ffffffffffffffffffffffffffffffffffffffff1673ffffffffffffffffffffffffffffffffffffffff16815260200190815260200160002060020160009054906101000a900460ff1615151415611ebe576000600360003373ffffffffffffffffffffffffffffffffffffffff1673ffffffffffffffffffffffffffffffffffffffff16815260200190815260200160002090508d8d826000019190611e94929190614777565b506000816001018190555060018160020160006101000a81548160ff021916908315150217905550505b34600360003373ffffffffffffffffffffffffffffffffffffffff1673ffffffffffffffffffffffffffffffffffffffff1681526020019081526020016000206003016000848152602001908152602001600020819055507f8d1d728b3e083cb21eccf339f45ddbfc88eb72c1877c715536dfa2616d1c3c848d8d84333460405180806020018581526020018473ffffffffffffffffffffffffffffffffffffffff1673ffffffffffffffffffffffffffffffffffffffff1681526020018381526020018281038252878782818152602001925080828437600081840152601f19601f820116905080830192505050965050505050505060405180910390a150505050505050505050505050565b670de0b6b3a764000034101561204a576040517f08c379a000000000000000000000000000000000000000000000000000000000815260040180806020018281038252601c8152602001807f526567697374726174696f6e206665652069732072657175697265640000000081525060200191505060405180910390fd5b6120526147f7565b61205b33613b8e565b9050604051806040016040528060011515815260200182815250600560003373ffffffffffffffffffffffffffffffffffffffff1673ffffffffffffffffffffffffffffffffffffffff16815260200190815260200160002060008201518160000160006101000a81548160ff0219169083151502179055506020820151816001019060036120eb929190614819565b5090505050565b3360011515600160008373ffffffffffffffffffffffffffffffffffffffff1673ffffffffffffffffffffffffffffffffffffffff16815260200190815260200160002060030160009054906101000a900460ff161515146121bc576040517f08c379a00000000000000000000000000000000000000000000000000000000081526004018080602001828103825260168152602001807f4169726c696e6520646f6573206e6f742065786973740000000000000000000081525060200191505060405180910390fd5b6002808111156121c857fe5b600160008373ffffffffffffffffffffffffffffffffffffffff1673ffffffffffffffffffffffffffffffffffffffff16815260200190815260200160002060010160009054906101000a900460ff16600281111561222357fe5b14612296576040517f08c379a00000000000000000000000000000000000000000000000000000000081526004018080602001828103825260158152602001807f4169726c696e65206973206e6f742066756e646564000000000000000000000081525060200191505060405180910390fd5b600033858585604051602001808573ffffffffffffffffffffffffffffffffffffffff1673ffffffffffffffffffffffffffffffffffffffff1660601b81526014018484808284378083019250505082815260200194505050505060405160208183030381529060405280519060200120905060006002600083815260200190815260200160002090508585826000019190612333929190614777565b50838160010181905550338160020160006101000a81548173ffffffffffffffffffffffffffffffffffffffff021916908373ffffffffffffffffffffffffffffffffffffffff16021790555060008160020160146101000a81548160ff021916908360ff16021790555060018160020160166101000a81548160ff02191690831515021790555060008160020160156101000a81548160ff0219169083151502179055507ffe0b0db86af9d557d4082f8c7e39f16fec088fa1491488d161505b5e0db16301868686338660405180806020018581526020018473ffffffffffffffffffffffffffffffffffffffff1673ffffffffffffffffffffffffffffffffffffffff1681526020018381526020018281038252878782818152602001925080828437600081840152601f19601f820116905080830192505050965050505050505060405180910390a1505050505050565b6001602052806000526040600020600091509050806000018054600181600116156101000203166002900480601f0160208091040260200160405190810160405280929190818152602001828054600181600116156101000203166002900480156125335780601f1061250857610100808354040283529160200191612533565b820191906000526020600020905b81548152906001019060200180831161251657829003601f168201915b5050505050908060010160009054906101000a900460ff16908060030160009054906101000a900460ff16905083565b61256b6147f7565b600560003373ffffffffffffffffffffffffffffffffffffffff1673ffffffffffffffffffffffffffffffffffffffff16815260200190815260200160002060000160009054906101000a900460ff1661262d576040517f08c379a000000000000000000000000000000000000000000000000000000000815260040180806020018281038252601b8152602001807f4e6f74207265676973746572656420617320616e206f7261636c65000000000081525060200191505060405180910390fd5b600560003373ffffffffffffffffffffffffffffffffffffffff1673ffffffffffffffffffffffffffffffffffffffff1681526020019081526020016000206001016003806020026040519081016040528092919082600380156126cc576020028201916000905b82829054906101000a900460ff1660ff16815260200190600101906020826000010492830192600103820291508084116126955790505b5050505050905090565b670de0b6b3a764000081565b8560ff16600560003373ffffffffffffffffffffffffffffffffffffffff1673ffffffffffffffffffffffffffffffffffffffff16815260200190815260200160002060010160006003811061273457fe5b602091828204019190069054906101000a900460ff1660ff1614806127c157508560ff16600560003373ffffffffffffffffffffffffffffffffffffffff1673ffffffffffffffffffffffffffffffffffffffff1681526020019081526020016000206001016001600381106127a657fe5b602091828204019190069054906101000a900460ff1660ff16145b8061283457508560ff16600560003373ffffffffffffffffffffffffffffffffffffffff1673ffffffffffffffffffffffffffffffffffffffff16815260200190815260200160002060010160026003811061281957fe5b602091828204019190069054906101000a900460ff1660ff16145b612889576040517f08c379a0000000000000000000000000000000000000000000000000000000008152600401808060200182810382526023815260200180614b626023913960400191505060405180910390fd5b60008686868686604051602001808660ff1660ff1660f81b81526001018573ffffffffffffffffffffffffffffffffffffffff1673ffffffffffffffffffffffffffffffffffffffff1660601b815260140184848082843780830192505050828152602001955050505050506040516020818303038152906040528051906020012090506006600082815260200190815260200160002060000160149054906101000a900460ff16612986576040517f08c379a000000000000000000000000000000000000000000000000000000000815260040180806020018281038252602f81526020018061494c602f913960400191505060405180910390fd5b6006600082815260200190815260200160002060010160008360ff1660ff1681526020019081526020016000203390806001815401808255809150509060018203906000526020600020016000909192909190916101000a81548173ffffffffffffffffffffffffffffffffffffffff021916908373ffffffffffffffffffffffffffffffffffffffff160217905550507f43c853095c2752648493c88b4baac4d580d2594ffb00c6f1d4242d844514f7838686868686604051808673ffffffffffffffffffffffffffffffffffffffff1673ffffffffffffffffffffffffffffffffffffffff168152602001806020018481526020018360ff1660ff1681526020018281038252868682818152602001925080828437600081840152601f19601f820116905080830192505050965050505050505060405180910390a160036006600083815260200190815260200160002060010160008460ff1660ff1681526020019081526020016000208054905010612bfa577fe23f5229de535c091e3b7bec2665f5d698192d3b31393066e8987b7a05076b6c8686868686604051808673ffffffffffffffffffffffffffffffffffffffff1673ffffffffffffffffffffffffffffffffffffffff168152602001806020018481526020018360ff1660ff1681526020018281038252868682818152602001925080828437600081840152601f19601f820116905080830192505050965050505050505060405180910390a1612bf98686868080601f016020809104026020016040519081016040528093929190818152602001838380828437600081840152601f19601f8201169050808301925050505050505085856135eb565b5b50505050505050565b6003602052806000526040600020600091509050806000018054600181600116156101000203166002900480601f016020809104026020016040519081016040528092919081815260200182805460018160011615610100020316600290048015612caf5780601f10612c8457610100808354040283529160200191612caf565b820191906000526020600020905b815481529060010190602001808311612c9257829003601f168201915b5050505050908060010154908060020160009054906101000a900460ff16905083565b8060011515600160008373ffffffffffffffffffffffffffffffffffffffff1673ffffffffffffffffffffffffffffffffffffffff16815260200190815260200160002060030160009054906101000a900460ff16151514612d9c576040517f08c379a00000000000000000000000000000000000000000000000000000000081526004018080602001828103825260168152602001807f4169726c696e6520646f6573206e6f742065786973740000000000000000000081525060200191505060405180910390fd5b60006002811115612da957fe5b600160008373ffffffffffffffffffffffffffffffffffffffff1673ffffffffffffffffffffffffffffffffffffffff16815260200190815260200160002060010160009054906101000a900460ff166002811115612e0457fe5b14612e77576040517f08c379a00000000000000000000000000000000000000000000000000000000081526004018080602001828103825260158152602001807f4169726c696e65206973206e6f7420717565756564000000000000000000000081525060200191505060405180910390fd5b3360011515600160008373ffffffffffffffffffffffffffffffffffffffff1673ffffffffffffffffffffffffffffffffffffffff16815260200190815260200160002060030160009054906101000a900460ff16151514612f41576040517f08c379a00000000000000000000000000000000000000000000000000000000081526004018080602001828103825260168152602001807f4169726c696e6520646f6573206e6f742065786973740000000000000000000081525060200191505060405180910390fd5b60016002811115612f4e57fe5b600160008373ffffffffffffffffffffffffffffffffffffffff1673ffffffffffffffffffffffffffffffffffffffff16815260200190815260200160002060010160009054906101000a900460ff166002811115612fa957fe5b14806130195750600280811115612fbc57fe5b600160008373ffffffffffffffffffffffffffffffffffffffff1673ffffffffffffffffffffffffffffffffffffffff16815260200190815260200160002060010160009054906101000a900460ff16600281111561301757fe5b145b61306e576040517f08c379a0000000000000000000000000000000000000000000000000000000008152600401808060200182810382526023815260200180614a166023913960400191505060405180910390fd5b600080905060008090505b600160008673ffffffffffffffffffffffffffffffffffffffff1673ffffffffffffffffffffffffffffffffffffffff16815260200190815260200160002060020180549050811015613187573373ffffffffffffffffffffffffffffffffffffffff16600160008773ffffffffffffffffffffffffffffffffffffffff1673ffffffffffffffffffffffffffffffffffffffff168152602001908152602001600020600201828154811061312a57fe5b9060005260206000200160009054906101000a900473ffffffffffffffffffffffffffffffffffffffff1673ffffffffffffffffffffffffffffffffffffffff16141561317a5760019150613187565b8080600101915050613079565b5080156131df576040517f08c379a0000000000000000000000000000000000000000000000000000000008152600401808060200182810382526033815260200180614af76033913960400191505060405180910390fd5b600160008573ffffffffffffffffffffffffffffffffffffffff1673ffffffffffffffffffffffffffffffffffffffff1681526020019081526020016000206002013390806001815401808255809150509060018203906000526020600020016000909192909190916101000a81548173ffffffffffffffffffffffffffffffffffffffff021916908373ffffffffffffffffffffffffffffffffffffffff160217905550507fa54e0d9c0eb31974cf4aea5cb888ef86e0505bf4574e171be405e8fd014bae16600160008673ffffffffffffffffffffffffffffffffffffffff1673ffffffffffffffffffffffffffffffffffffffff168152602001908152602001600020600001338660405180806020018473ffffffffffffffffffffffffffffffffffffffff1673ffffffffffffffffffffffffffffffffffffffff1681526020018373ffffffffffffffffffffffffffffffffffffffff1673ffffffffffffffffffffffffffffffffffffffff1681526020018281038252858181546001816001161561010002031660029004815260200191508054600181600116156101000203166002900480156133d75780601f106133ac576101008083540402835291602001916133d7565b820191906000526020600020905b8154815290600101906020018083116133ba57829003601f168201915b505094505050505060405180910390a16133f46000546002613d1a565b600160008673ffffffffffffffffffffffffffffffffffffffff1673ffffffffffffffffffffffffffffffffffffffff1681526020019081526020016000206002018054905011156135e55760018060008673ffffffffffffffffffffffffffffffffffffffff1673ffffffffffffffffffffffffffffffffffffffff16815260200190815260200160002060010160006101000a81548160ff0219169083600281111561349e57fe5b02179055506134b06000546001613b06565b6000819055507f4389233d1d7e817e3a41447176300b89c596c24ed4d58896d501ddb378abe2c4600160008673ffffffffffffffffffffffffffffffffffffffff1673ffffffffffffffffffffffffffffffffffffffff1681526020019081526020016000206000018560405180806020018373ffffffffffffffffffffffffffffffffffffffff1673ffffffffffffffffffffffffffffffffffffffff1681526020018281038252848181546001816001161561010002031660029004815260200191508054600181600116156101000203166002900480156135d55780601f106135aa576101008083540402835291602001916135d5565b820191906000526020600020905b8154815290600101906020018083116135b857829003601f168201915b5050935050505060405180910390a15b50505050565b8360011515600160008373ffffffffffffffffffffffffffffffffffffffff1673ffffffffffffffffffffffffffffffffffffffff16815260200190815260200160002060030160009054906101000a900460ff161515146136b5576040517f08c379a00000000000000000000000000000000000000000000000000000000081526004018080602001828103825260168152602001807f4169726c696e6520646f6573206e6f742065786973740000000000000000000081525060200191505060405180910390fd5b6002808111156136c157fe5b600160008373ffffffffffffffffffffffffffffffffffffffff1673ffffffffffffffffffffffffffffffffffffffff16815260200190815260200160002060010160009054906101000a900460ff16600281111561371c57fe5b1461378f576040517f08c379a00000000000000000000000000000000000000000000000000000000081526004018080602001828103825260158152602001807f4169726c696e65206973206e6f742066756e646564000000000000000000000081525060200191505060405180910390fd5b8484846000838383604051602001808473ffffffffffffffffffffffffffffffffffffffff1673ffffffffffffffffffffffffffffffffffffffff1660601b815260140183805190602001908083835b6020831061380257805182526020820191506020810190506020830392506137df565b6001836020036101000a0380198251168184511680821785525050505050509050018281526020019350505050604051602081830303815290604052805190602001209050600115156002600083815260200190815260200160002060020160169054906101000a900460ff161515146138e4576040517f08c379a00000000000000000000000000000000000000000000000000000000081526004018080602001828103825260188152602001807f466c69676874206973206e6f742072656769737465726564000000000000000081525060200191505060405180910390fd5b6000898989604051602001808473ffffffffffffffffffffffffffffffffffffffff1673ffffffffffffffffffffffffffffffffffffffff1660601b815260140183805190602001908083835b602083106139545780518252602082019150602081019050602083039250613931565b6001836020036101000a0380198251168184511680821785525050505050509050018281526020019350505050604051602081830303815290604052805190602001209050866002600083815260200190815260200160002060020160146101000a81548160ff021916908360ff160217905550601460ff166002600083815260200190815260200160002060020160149054906101000a900460ff1660ff161415613a0657613a058a8a8a613d64565b5b7f893a9d930329c0f9f3aeb466a5b3637c79923d63c428779599a324712786f6e489898c8a8560405180806020018681526020018573ffffffffffffffffffffffffffffffffffffffff1673ffffffffffffffffffffffffffffffffffffffff1681526020018460ff1660ff168152602001838152602001828103825287818151815260200191508051906020019080838360005b83811015613ab6578082015181840152602081019050613a9b565b50505050905090810190601f168015613ae35780820380516001836020036101000a031916815260200191505b50965050505050505060405180910390a150505050505050505050565b60005481565b600080828401905083811015613b84576040517f08c379a000000000000000000000000000000000000000000000000000000000815260040180806020018281038252601b8152602001807f536166654d6174683a206164646974696f6e206f766572666c6f77000000000081525060200191505060405180910390fd5b8091505092915050565b613b966147f7565b613b9e6147f7565b613ba783614431565b81600060038110613bb457fe5b602002019060ff16908160ff168152505080600060038110613bd257fe5b602002015181600160038110613be457fe5b602002019060ff16908160ff16815250505b80600060038110613c0357fe5b602002015160ff1681600160038110613c1857fe5b602002015160ff161415613c5257613c2f83614431565b81600160038110613c3c57fe5b602002019060ff16908160ff1681525050613bf6565b80600160038110613c5f57fe5b602002015181600260038110613c7157fe5b602002019060ff16908160ff16815250505b80600060038110613c9057fe5b602002015160ff1681600260038110613ca557fe5b602002015160ff161480613ce0575080600160038110613cc157fe5b602002015160ff1681600260038110613cd657fe5b602002015160ff16145b15613d1157613cee83614431565b81600260038110613cfb57fe5b602002019060ff16908160ff1681525050613c83565b80915050919050565b6000613d5c83836040518060400160405280601a81526020017f536166654d6174683a206469766973696f6e206279207a65726f000000000000815250614521565b905092915050565b8282826000838383604051602001808473ffffffffffffffffffffffffffffffffffffffff1673ffffffffffffffffffffffffffffffffffffffff1660601b815260140183805190602001908083835b60208310613dd75780518252602082019150602081019050602083039250613db4565b6001836020036101000a0380198251168184511680821785525050505050509050018281526020019350505050604051602081830303815290604052805190602001209050600115156002600083815260200190815260200160002060020160169054906101000a900460ff16151514613eb9576040517f08c379a00000000000000000000000000000000000000000000000000000000081526004018080602001828103825260188152602001807f466c69676874206973206e6f742072656769737465726564000000000000000081525060200191505060405180910390fd5b8686866000838383604051602001808473ffffffffffffffffffffffffffffffffffffffff1673ffffffffffffffffffffffffffffffffffffffff1660601b815260140183805190602001908083835b60208310613f2c5780518252602082019150602081019050602083039250613f09565b6001836020036101000a0380198251168184511680821785525050505050509050018281526020019350505050604051602081830303815290604052805190602001209050600015156002600083815260200190815260200160002060020160159054906101000a900460ff16151514613ff1576040517f08c379a00000000000000000000000000000000000000000000000000000000081526004018080602001828103825260358152602001806149b66035913960400191505060405180910390fd5b60008b8b8b604051602001808473ffffffffffffffffffffffffffffffffffffffff1673ffffffffffffffffffffffffffffffffffffffff1660601b815260140183805190602001908083835b60208310614061578051825260208201915060208101905060208303925061403e565b6001836020036101000a0380198251168184511680821785525050505050509050018281526020019350505050604051602081830303815290604052805190602001209050601460ff166002600083815260200190815260200160002060020160149054906101000a900460ff1660ff1614614145576040517f08c379a00000000000000000000000000000000000000000000000000000000081526004018080602001828103825260128152602001807f466c69676874206973206e6f74206c617465000000000000000000000000000081525060200191505060405180910390fd5b600060026000838152602001908152602001600020600301905060008090505b818054905081101561431257600082828154811061417f57fe5b9060005260206000200160009054906101000a900473ffffffffffffffffffffffffffffffffffffffff169050600061421661420f600360008573ffffffffffffffffffffffffffffffffffffffff1673ffffffffffffffffffffffffffffffffffffffff16815260200190815260200160002060030160008881526020019081526020016000205460966145e7565b6064613d1a565b90506000600360008473ffffffffffffffffffffffffffffffffffffffff1673ffffffffffffffffffffffffffffffffffffffff1681526020019081526020016000206003016000878152602001908152602001600020819055506142bd600360008473ffffffffffffffffffffffffffffffffffffffff1673ffffffffffffffffffffffffffffffffffffffff1681526020019081526020016000206001015482613b06565b600360008473ffffffffffffffffffffffffffffffffffffffff1673ffffffffffffffffffffffffffffffffffffffff1681526020019081526020016000206001018190555050508080600101915050614165565b5060016002600084815260200190815260200160002060020160156101000a81548160ff0219169083151502179055507fef52ceb5219ce040f85eeb22acd104c6297df805bb20e0500b88191c305f72878c8c8f8560405180806020018581526020018473ffffffffffffffffffffffffffffffffffffffff1673ffffffffffffffffffffffffffffffffffffffff168152602001838152602001828103825286818151815260200191508051906020019080838360005b838110156143e55780820151818401526020810190506143ca565b50505050905090810190601f1680156144125780820380516001836020036101000a031916815260200191505b509550505050505060405180910390a150505050505050505050505050565b600080600a905060008160ff166004601581819054906101000a900460ff168092919060010191906101000a81548160ff021916908360ff16021790555060ff1643034085604051602001808381526020018273ffffffffffffffffffffffffffffffffffffffff1673ffffffffffffffffffffffffffffffffffffffff1660601b8152601401925050506040516020818303038152906040528051906020012060001c816144dc57fe5b06905060fa600460159054906101000a900460ff1660ff161115614517576000600460156101000a81548160ff021916908360ff1602179055505b8092505050919050565b600080831182906145cd576040517f08c379a00000000000000000000000000000000000000000000000000000000081526004018080602001828103825283818151815260200191508051906020019080838360005b83811015614592578082015181840152602081019050614577565b50505050905090810190601f1680156145bf5780820380516001836020036101000a031916815260200191505b509250505060405180910390fd5b5060008385816145d957fe5b049050809150509392505050565b6000808314156145fa5760009050614667565b600082840290508284828161460b57fe5b0414614662576040517f08c379a0000000000000000000000000000000000000000000000000000000008152600401808060200182810382526021815260200180614ad66021913960400191505060405180910390fd5b809150505b92915050565b828054600181600116156101000203166002900490600052602060002090601f016020900481019282601f106146ae57805160ff19168380011785556146dc565b828001600101855582156146dc579182015b828111156146db5782518255916020019190600101906146c0565b5b5090506146e991906148b3565b5090565b828054828255906000526020600020908101928215614766579160200282015b828111156147655782518260006101000a81548173ffffffffffffffffffffffffffffffffffffffff021916908373ffffffffffffffffffffffffffffffffffffffff1602179055509160200191906001019061470d565b5b50905061477391906148d8565b5090565b828054600181600116156101000203166002900490600052602060002090601f016020900481019282601f106147b857803560ff19168380011785556147e6565b828001600101855582156147e6579182015b828111156147e55782358255916020019190600101906147ca565b5b5090506147f391906148b3565b5090565b6040518060600160405280600390602082028038833980820191505090505090565b826003601f016020900481019282156148a25791602002820160005b8382111561487357835183826101000a81548160ff021916908360ff1602179055509260200192600101602081600001049283019260010302614835565b80156148a05782816101000a81549060ff0219169055600101602081600001049283019260010302614873565b505b5090506148af919061491b565b5090565b6148d591905b808211156148d15760008160009055506001016148b9565b5090565b90565b61491891905b8082111561491457600081816101000a81549073ffffffffffffffffffffffffffffffffffffffff0219169055506001016148de565b5090565b90565b61494891905b8082111561494457600081816101000a81549060ff021916905550600101614921565b5090565b9056fe466c69676874206f722074696d657374616d7020646f206e6f74206d61746368206f7261636c65207265717565737443616e6e6f7420707572636861736520696e737572616e636520666f72206120666c69676874207468617420697320616c7265616479206c617465496e73757265642070617373656e67657273206f6e2074686973206c61746520666c696768742068617665206265656e207061696445746865722073656e74206973206c657373207468616e2074686520726571756972656420616d6f756e744169726c696e65206973206e6f742072656769737465726564206f722066756e6465644e65656420746f2073656e6420657468657220696e206f7264657220746f20707572636861736520696e737572616e636550617373656e67657220646f6573206e6f7420686176652062616c616e636520656c696769626c6520666f72207769746864726177616c4169726c696e652068617320616c7265616479206265656e2072656769737465726564207769746820746869732061646472657373536166654d6174683a206d756c7469706c69636174696f6e206f766572666c6f7743616c6c65722068617320616c726561647920766f74656420746f20726567697374657265642074686973206169726c696e654d6178696d756d20616d6f756e7420746861742063616e206265207061696420666f7220696e737572616e63652069732031206574686572496e64657820646f6573206e6f74206d61746368206f7261636c65207265717565737450617373656e6765722068617320616c72656164792070757263686173656420696e737572616e636520666f72207468697320666c69676874a265627a7a72315820966c62130025907a798a8f8b3d6c252e9abc4e3dd5460d1639d9e1b8e64ee98164736f6c63430005100032",
  "source": "// SPDX-License-Identifier: MIT\npragma solidity >=0.4.22 <0.9.0;\n\nimport \"../node_modules/openzeppelin-solidity/contracts/math/SafeMath.sol\";\n\ncontract FlightSuretyApp {\n    using SafeMath for uint256;\n    \n    enum AirlineState { QUEUED, REGISTERED, FUNDED }\n    \n    struct Airline {\n        string name;\n        AirlineState status;\n        address[] votes;\n        bool exists;\n    }\n    \n    struct Flight {\n        string flightNumber;\n        uint256 flightTime;        \n        address airline;\n        uint8 statusCode;\n        bool isPaid;\n        bool exists;\n        address[] insuredPassengers;\n    }\n    \n    struct Passenger {\n        string name;\n        uint withdrawBalance;\n        bool exists;\n        mapping(bytes32 => uint) insuredFlights;\n    }\n    \n    // Number of airlines that can registered immediately before\n    // a consensus vote is required\n    uint private constant AIRLINES_REGISTRATION_LIMIT = 3;  \n    uint private constant FUNDING_REQUIRED = 10 ether;\n    uint private constant MAX_INSURANCE_PRICE = 1 ether;\n    \n    // Running counter of registered airlines\n    uint public registeredAirlinesCount = 0;\n    \n    mapping(address => Airline) public airlines;\n    mapping(bytes32 => Flight) public flights;\n    mapping(address => Passenger) public passengers;\n    \n    bool private operational = true;\n    address private contractOwner; \n    \n    // Flight status codes\n    uint8 private constant STATUS_CODE_UNKNOWN = 0;\n    uint8 private constant STATUS_CODE_ON_TIME = 10;\n    uint8 private constant STATUS_CODE_LATE_AIRLINE = 20;\n    uint8 private constant STATUS_CODE_LATE_WEATHER = 30;\n    uint8 private constant STATUS_CODE_LATE_TECHNICAL = 40;\n    uint8 private constant STATUS_CODE_LATE_OTHER = 50;\n    \n    // Events\n    event AirlineRegistered(string name, address airline);\n    event AirlineQueued(string name, address airline);\n    event AirlineFunded(string name, address airline);\n    event AirlineVoted(string name, address fromAirline, address toAirline);\n    event FlightRegistered(string flightNumber, uint flightTime, address airline, bytes32 flightKey);\n    event FlightStatus(string flightNumber, uint flightTime, address airline, uint8 statusCode, bytes32 flightKey);\n    event FlightCreditInsurees(string flightNumber, uint flightTime, address airline, bytes32 flightKey);\n    event PassengerPurchasedInsurance(string name, bytes32 flightKey, address passenger, uint amount);\n    event PassengerWithdrawBalance(address passenger, uint amount);\n    \n    // Modifiers\n    modifier requireIsOperational() {\n        require(operational, \"Contract is currently not operational\");\n        _; \n    }\n    \n    modifier requireContractOwner() {\n        require(msg.sender == contractOwner, \"Caller is not contract owner\");\n        _;\n    }\n    \n    // Check if the airline is registered\n    modifier isAirlineRegistered(address airline) {\n        require(airlines[airline].exists == true, \"Airline does not exist\");\n        require(airlines[airline].status == AirlineState.REGISTERED, \"Airline is not registered\");\n        _;\n    }\n    \n    // Check if airline has been queued\n    modifier isAirlineQueued(address airline) {\n        require(airlines[airline].exists == true, \"Airline does not exist\");\n        require(airlines[airline].status == AirlineState.QUEUED, \"Airline is not queued\");\n        _;\n    }\n    \n    // Check if an airline is funded\n    modifier isAirlineFunded(address airline) {\n        require(airlines[airline].exists == true, \"Airline does not exist\");\n        require(airlines[airline].status == AirlineState.FUNDED, \"Airline is not funded\");\n        _;\n    }\n\n    // Check if airline is registered / funded\n    modifier isAirlineRegisteredFunded(address airline) {\n        require(airlines[airline].exists == true, \"Airline does not exist\");\n        require(airlines[airline].status == AirlineState.REGISTERED || airlines[airline].status == AirlineState.FUNDED, \"Airline is not registered or funded\");\n        _;\n    }\n\n    // Check if the airline address has already been registered\n    modifier isNewAirline(address airline) {\n        require(airlines[airline].exists == false, \"Airline has already been registered with this address\");\n        _;\n    }\n    \n    modifier isFlightRegistered(address airline, string memory flightNumber, uint256 flightTime) {\n        bytes32 flightKey = keccak256(abi.encodePacked(airline, flightNumber, flightTime));\n        require(flights[flightKey].exists == true, \"Flight is not registered\");\n        _;\n    }\n    \n    // Check if flight has been paid\n    modifier isFlightPaid(address airline, string memory flightNumber, uint256 flightTime) {\n        bytes32 flightKey = keccak256(abi.encodePacked(airline, flightNumber, flightTime));\n        require(flights[flightKey].isPaid == false, \"Insured passengers on this late flight have been paid\");\n        _;\n    }\n    \n     // Define a modifier that checks if the paid amount is sufficient to cover the price\n     modifier paidEnough(uint amount) { \n        require(msg.value >= amount, \"Ether sent is less than the required amount\"); \n        _;\n    }\n  \n    // Check the amount sent and refunds the remaining balance\n    modifier checkValue(uint amount) {\n        _;\n        uint amountToReturn = msg.value - amount;\n        msg.sender.transfer(amountToReturn);\n    }\n    \n    // Check passenger pays at least 1 ether for insurance\n    modifier paidEnoughForInsurance() {\n        require(msg.value > 0, \"Need to send ether in order to purchase insurance\");\n        require(msg.value <= MAX_INSURANCE_PRICE, \"Maximum amount that can be paid for insurance is 1 ether\");\n        _;\n    }\n    \n    // Check if passenger exits\n    modifier isPassenger(address passenger) {\n        require(passengers[passenger].exists == true, \"Passenger does not exists\");\n        _;\n    }\n    \n    // Check if passenger is eligible to withdraw\n    modifier canPassengerWithdrawBalance(address passenger) {\n        require(passengers[passenger].withdrawBalance > 0, \"Passenger does not have balance eligible for withdrawal\");\n        _;\n    }\n    \n    constructor(string memory name, address airline) public {\n        contractOwner = msg.sender;\n    \n        // Register the first airline\n        airlines[airline] = Airline({ \n            name: name, \n            status: AirlineState.REGISTERED,\n            votes: new address[](0),\n            exists: true\n        });\n        registeredAirlinesCount = SafeMath.add(registeredAirlinesCount, 1);\n    }\n    \n    // *******************\n    // Airline functions\n    // *******************\n    function registerAirline(string memory name, address airline) \n        isNewAirline(airline)\n        isAirlineRegisteredFunded(msg.sender) public {\n        \n        // Queue the airline if the airline registration limit is exceeded\n        if (registeredAirlinesCount >= AIRLINES_REGISTRATION_LIMIT) {\n            \n            // Queue the airline\n            airlines[airline] = Airline({ \n                name: name, \n                status: AirlineState.QUEUED, \n                votes: new address[](0),\n                exists: true\n            }); \n            \n            emit AirlineQueued(name, airline);\n        }\n        else {\n            \n            // Register the airline\n            airlines[airline] = Airline({ \n                name: name, \n                status: AirlineState.REGISTERED,\n                votes: new address[](0),\n                exists: true\n            });  \n            registeredAirlinesCount = SafeMath.add(registeredAirlinesCount, 1);\n            \n            emit AirlineRegistered(name, airline);\n        }\n    }\n    \n    function voteAirline(address airline) \n        isAirlineQueued(airline) \n        isAirlineRegisteredFunded(msg.sender) public {\n        \n         // Check if caller has already called this function\n        bool isDuplicate = false;\n        for (uint i=0; i < airlines[airline].votes.length; i++) {\n            if (airlines[airline].votes[i] == msg.sender) {\n                isDuplicate = true;\n                break;\n            }\n        }\n        require(!isDuplicate, \"Caller has already voted to registered this airline\");\n\n        airlines[airline].votes.push(msg.sender);\n        emit AirlineVoted(airlines[airline].name, msg.sender, airline);\n\n        // Check if airline has the required number of votes 50%+\n        if (airlines[airline].votes.length > SafeMath.div(registeredAirlinesCount, 2)) {\n            airlines[airline].status = AirlineState.REGISTERED;\n            registeredAirlinesCount = SafeMath.add(registeredAirlinesCount, 1);\n            \n            emit AirlineRegistered(airlines[airline].name, airline);\n        }\n    }\n    \n    function fundAirline() isAirlineRegistered(msg.sender) \n        paidEnough(FUNDING_REQUIRED) \n        checkValue(FUNDING_REQUIRED) public payable {\n        airlines[msg.sender].status = AirlineState.FUNDED;\n        \n        emit AirlineFunded(airlines[msg.sender].name, msg.sender);\n    }\n    \n    // *******************\n    // Flights functions\n    // *******************\n    \n    // Only funded airlines can register flights that passengers can insure against\n    function registerFlight(string calldata flightNumber, uint256 flightTime) isAirlineFunded(msg.sender) external {\n        \n        // Generate a unique key for storing the flight details\n        bytes32 flightKey = keccak256(abi.encodePacked(msg.sender, flightNumber, flightTime));\n        \n        // Register the flight\n        Flight storage flight = flights[flightKey];\n        flight.flightNumber = flightNumber;\n        flight.flightTime = flightTime;\n        flight.airline = msg.sender;\n        flight.statusCode = STATUS_CODE_UNKNOWN;\n        flight.exists = true;\n        flight.isPaid = false;\n        \n        emit FlightRegistered(flightNumber, flightTime, msg.sender, flightKey);\n    }\n    \n    function processFlightStatus(address airline, string memory flightNumber, uint256 flightTime, uint8 statusCode) \n        isAirlineFunded(airline)\n        isFlightRegistered(airline, flightNumber, flightTime) public {\n            \n        // Generate the flightKey to retrieve the flight details\n        bytes32 flightKey = keccak256(abi.encodePacked(airline, flightNumber, flightTime));\n        \n        // Set the status for the flight\n        flights[flightKey].statusCode = statusCode;\n        \n        // If flight status is STATUS_CODE_LATE_AIRLINE then refund all users that\n        // have insurance for this flight 1.5x\n        if (flights[flightKey].statusCode == STATUS_CODE_LATE_AIRLINE) {\n            creditInsurees(airline, flightNumber, flightTime);\n        }\n        \n        emit FlightStatus(flightNumber, flightTime, airline, statusCode, flightKey);\n    }\n    \n    // *********************\n    // Passengers functions\n    // *********************\n    \n    function buyInsurance(string calldata name, address airline, string calldata flightNumber, uint256 flightTime) \n        isAirlineFunded(airline)\n        isFlightRegistered(airline, flightNumber, flightTime)\n        paidEnoughForInsurance external payable {\n        \n        // Generate the flightKey to retrieve the flight details\n        bytes32 flightKey = keccak256(abi.encodePacked(airline, flightNumber, flightTime));\n        \n        // Check if flight is not late and eligible for passengers to purchase insurance\n        require(flights[flightKey].statusCode != STATUS_CODE_LATE_AIRLINE, \"Cannot purchase insurance for a flight that is already late\");\n        \n        // Check if passenger has previously bought insurance for this flight\n        address[] storage insuredPassengers = flights[flightKey].insuredPassengers;\n        for (uint i=0; i < insuredPassengers.length; i++) {\n            if (insuredPassengers[i] == msg.sender) {\n                revert(\"Passenger has already purchased insurance for this flight\");   \n            }\n        }\n        \n        // Add passenger to insured passengers list for the flight\n        insuredPassengers.push(msg.sender);\n        \n        // Register passenger if they have not been created previously\n        if (passengers[msg.sender].exists == false) {\n            Passenger storage passenger = passengers[msg.sender];\n            passenger.name = name;\n            passenger.withdrawBalance = 0;\n            passenger.exists = true;\n        }\n        \n        // Add balance paid for the insured flight\n        passengers[msg.sender].insuredFlights[flightKey] = msg.value;\n        \n        emit PassengerPurchasedInsurance(name, flightKey, msg.sender, msg.value);\n    }\n    \n    // Credit funds to passengers that have bought insurance and airline is late\n    function creditInsurees(address airline, string memory flightNumber, uint256 flightTime) \n        isFlightRegistered(airline, flightNumber, flightTime)\n        isFlightPaid(airline, flightNumber, flightTime) internal {\n        \n        // Generate the flightKey to retrieve the flight details\n        bytes32 flightKey = keccak256(abi.encodePacked(airline, flightNumber, flightTime));\n        \n        // Check if flight is late\n        require(flights[flightKey].statusCode == STATUS_CODE_LATE_AIRLINE, \"Flight is not late\");\n        \n        // Credit passengers\n        address[] storage insuredPassengers = flights[flightKey].insuredPassengers;\n        for (uint i=0; i < insuredPassengers.length; i++) {\n            address passengerAddress = insuredPassengers[i];\n            uint credit = SafeMath.div(SafeMath.mul(passengers[passengerAddress].insuredFlights[flightKey], 150), 100);\n            \n            // Set balance to 0 for insured passenger\n            passengers[passengerAddress].insuredFlights[flightKey] = 0;\n            \n            // Add credit to current withdraw balance\n            passengers[passengerAddress].withdrawBalance = SafeMath.add(passengers[passengerAddress].withdrawBalance, credit);\n        }\n        \n        // Set flight paid status\n        flights[flightKey].isPaid = true;\n        \n        emit FlightCreditInsurees(flightNumber, flightTime, airline, flightKey);\n    }\n    \n    // Insuree withdraws the balance owed\n    function withdrawFunds() \n        isPassenger(msg.sender) \n        canPassengerWithdrawBalance(msg.sender) external {\n        \n        // Store the amount to be sent to the passenger\n        uint amountOwed = passengers[msg.sender].withdrawBalance;\n\n        // Reset passengers withdrawal balance to 0 \n        passengers[msg.sender].withdrawBalance = 0;\n\n        // Send funds to passenger\n        msg.sender.transfer(amountOwed);\n        \n        emit PassengerWithdrawBalance(msg.sender, amountOwed);\n    }\n\n    // region ORACLE MANAGEMENT\n    // Incremented to add pseudo-randomness at various points\n    uint8 private nonce = 0;    \n\n    // Fee to be paid when registering oracle\n    uint256 public constant REGISTRATION_FEE = 1 ether;\n\n    // Number of oracles that must respond for valid status\n    uint256 private constant MIN_RESPONSES = 3;\n\n    struct Oracle {\n        bool isRegistered;\n        uint8[3] indexes;        \n    }\n\n    // Track all registered oracles\n    mapping(address => Oracle) private oracles;\n\n    // Model for responses from oracles\n    struct ResponseInfo {\n        address requester;                              // Account that requested status\n        bool isOpen;                                    // If open, oracle responses are accepted\n        mapping(uint8 => address[]) responses;          // Mapping key is the status code reported\n                                                        // This lets us group responses and identify\n                                                        // the response that majority of the oracles\n    }\n\n    // Track all oracle responses\n    // Key = hash(index, flight, timestamp)\n    mapping(bytes32 => ResponseInfo) private oracleResponses;\n\n    // Event fired each time an oracle submits a response\n    event FlightStatusInfo(address airline, string flight, uint256 timestamp, uint8 status);\n\n    event OracleReport(address airline, string flight, uint256 timestamp, uint8 status);\n\n    // Event fired when flight status request is submitted\n    // Oracles track this and if they have a matching index\n    // they fetch data and submit a response\n    event OracleRequest(uint8 index, address airline, string flight, uint256 timestamp);\n\n\n    // Register an oracle with the contract\n    function registerOracle() external payable {\n        // Require registration fee\n        require(msg.value >= REGISTRATION_FEE, \"Registration fee is required\");\n        uint8[3] memory indexes = generateIndexes(msg.sender);\n        oracles[msg.sender] = Oracle({ isRegistered: true, indexes: indexes });\n    }\n\n    function getMyIndexes() view external returns(uint8[3] memory) {\n        require(oracles[msg.sender].isRegistered, \"Not registered as an oracle\");\n        return oracles[msg.sender].indexes;\n    }\n\n    // Called by oracle when a response is available to an outstanding request\n    // For the response to be accepted, there must be a pending request that is open\n    // and matches one of the three Indexes randomly assigned to the oracle at the\n    // time of registration (i.e. uninvited oracles are not welcome)\n    function submitOracleResponse(uint8 index, address airline, string calldata flight, uint256 timestamp, uint8 statusCode) external {\n        require((oracles[msg.sender].indexes[0] == index) || (oracles[msg.sender].indexes[1] == index) || (oracles[msg.sender].indexes[2] == index), \"Index does not match oracle request\");\n\n        bytes32 key = keccak256(abi.encodePacked(index, airline, flight, timestamp)); \n        require(oracleResponses[key].isOpen, \"Flight or timestamp do not match oracle request\");\n\n        oracleResponses[key].responses[statusCode].push(msg.sender);\n\n        // Information isn't considered verified until at least MIN_RESPONSES\n        // oracles respond with the *** same *** information\n        emit OracleReport(airline, flight, timestamp, statusCode);\n        if (oracleResponses[key].responses[statusCode].length >= MIN_RESPONSES) {\n            emit FlightStatusInfo(airline, flight, timestamp, statusCode);\n\n            // Handle flight status as appropriate\n            processFlightStatus(airline, flight, timestamp, statusCode);\n        }\n    }\n\n    function getFlightKey(address airline, string memory flight, uint256 timestamp) pure internal returns(bytes32) {\n        return keccak256(abi.encodePacked(airline, flight, timestamp));\n    }\n\n    // Returns array of three non-duplicating integers from 0-9\n    function generateIndexes(address account) internal returns(uint8[3] memory) {\n        uint8[3] memory indexes;\n        indexes[0] = getRandomIndex(account);\n        \n        indexes[1] = indexes[0];\n        while(indexes[1] == indexes[0]) {\n            indexes[1] = getRandomIndex(account);\n        }\n\n        indexes[2] = indexes[1];\n        while((indexes[2] == indexes[0]) || (indexes[2] == indexes[1])) {\n            indexes[2] = getRandomIndex(account);\n        }\n\n        return indexes;\n    }\n\n    // Returns array of three non-duplicating integers from 0-9\n    function getRandomIndex(address account) internal returns (uint8) {\n        uint8 maxValue = 10;\n\n        // Pseudo random number...the incrementing nonce adds variation\n        uint8 random = uint8(uint256(keccak256(abi.encodePacked(blockhash(block.number - nonce++), account))) % maxValue);\n\n        if (nonce > 250) {\n            nonce = 0;  // Can only fetch blockhashes for last 256 blocks so we adapt\n        }\n        return random;\n    }\n\n    // endregion\n    \n    function() external payable {\n        fundAirline();\n    }\n    \n}",
  "sourcePath": "/Users/antoniocunanan/Desktop/udacity/course 4/submission/udacity-flight-surety/flight-surety-contract/contracts/FlightSuretyApp.sol",
  "compiler": {
    "name": "solc",
    "version": "0.5.16+commit.9c3226ce.Emscripten.clang"
  },
  "schemaVersion": "3.4.1",
  "updatedAt": "2021-08-20T23:49:53.181Z",
  "devdoc": {
    "methods": {}
  },
  "userdoc": {
    "methods": {}
  }
}