{
  "contractName": "FlightSuretyApp",
  "abi": [
    {
      "inputs": [
        {
          "internalType": "address",
          "name": "dataContract",
          "type": "address"
        }
      ],
      "payable": false,
      "stateMutability": "nonpayable",
      "type": "constructor"
    },
    {
      "anonymous": false,
      "inputs": [
        {
          "indexed": false,
          "internalType": "string",
          "name": "name",
          "type": "string"
        },
        {
          "indexed": false,
          "internalType": "address",
          "name": "airline",
          "type": "address"
        }
      ],
      "name": "AirlineFunded",
      "type": "event"
    },
    {
      "anonymous": false,
      "inputs": [
        {
          "indexed": false,
          "internalType": "string",
          "name": "name",
          "type": "string"
        },
        {
          "indexed": false,
          "internalType": "address",
          "name": "airline",
          "type": "address"
        }
      ],
      "name": "AirlineQueued",
      "type": "event"
    },
    {
      "anonymous": false,
      "inputs": [
        {
          "indexed": false,
          "internalType": "string",
          "name": "name",
          "type": "string"
        },
        {
          "indexed": false,
          "internalType": "address",
          "name": "airline",
          "type": "address"
        }
      ],
      "name": "AirlineRegistered",
      "type": "event"
    },
    {
      "anonymous": false,
      "inputs": [
        {
          "indexed": false,
          "internalType": "string",
          "name": "name",
          "type": "string"
        },
        {
          "indexed": false,
          "internalType": "address",
          "name": "fromAirline",
          "type": "address"
        },
        {
          "indexed": false,
          "internalType": "address",
          "name": "toAirline",
          "type": "address"
        }
      ],
      "name": "AirlineVoted",
      "type": "event"
    },
    {
      "anonymous": false,
      "inputs": [
        {
          "indexed": false,
          "internalType": "string",
          "name": "flightNumber",
          "type": "string"
        },
        {
          "indexed": false,
          "internalType": "uint256",
          "name": "flightTime",
          "type": "uint256"
        },
        {
          "indexed": false,
          "internalType": "address",
          "name": "airline",
          "type": "address"
        },
        {
          "indexed": false,
          "internalType": "bytes32",
          "name": "flightKey",
          "type": "bytes32"
        }
      ],
      "name": "FlightCreditInsurees",
      "type": "event"
    },
    {
      "anonymous": false,
      "inputs": [
        {
          "indexed": false,
          "internalType": "string",
          "name": "flightNumber",
          "type": "string"
        },
        {
          "indexed": false,
          "internalType": "uint256",
          "name": "flightTime",
          "type": "uint256"
        },
        {
          "indexed": false,
          "internalType": "address",
          "name": "airline",
          "type": "address"
        },
        {
          "indexed": false,
          "internalType": "bytes32",
          "name": "flightKey",
          "type": "bytes32"
        }
      ],
      "name": "FlightRegistered",
      "type": "event"
    },
    {
      "anonymous": false,
      "inputs": [
        {
          "indexed": false,
          "internalType": "string",
          "name": "flightNumber",
          "type": "string"
        },
        {
          "indexed": false,
          "internalType": "uint256",
          "name": "flightTime",
          "type": "uint256"
        },
        {
          "indexed": false,
          "internalType": "address",
          "name": "airline",
          "type": "address"
        },
        {
          "indexed": false,
          "internalType": "uint8",
          "name": "statusCode",
          "type": "uint8"
        },
        {
          "indexed": false,
          "internalType": "bytes32",
          "name": "flightKey",
          "type": "bytes32"
        }
      ],
      "name": "FlightStatus",
      "type": "event"
    },
    {
      "anonymous": false,
      "inputs": [
        {
          "indexed": false,
          "internalType": "address",
          "name": "airline",
          "type": "address"
        },
        {
          "indexed": false,
          "internalType": "string",
          "name": "flight",
          "type": "string"
        },
        {
          "indexed": false,
          "internalType": "uint256",
          "name": "timestamp",
          "type": "uint256"
        },
        {
          "indexed": false,
          "internalType": "uint8",
          "name": "status",
          "type": "uint8"
        }
      ],
      "name": "FlightStatusInfo",
      "type": "event"
    },
    {
      "anonymous": false,
      "inputs": [
        {
          "indexed": false,
          "internalType": "address",
          "name": "airline",
          "type": "address"
        },
        {
          "indexed": false,
          "internalType": "string",
          "name": "flight",
          "type": "string"
        },
        {
          "indexed": false,
          "internalType": "uint256",
          "name": "timestamp",
          "type": "uint256"
        },
        {
          "indexed": false,
          "internalType": "uint8",
          "name": "status",
          "type": "uint8"
        }
      ],
      "name": "OracleReport",
      "type": "event"
    },
    {
      "anonymous": false,
      "inputs": [
        {
          "indexed": false,
          "internalType": "uint8",
          "name": "index",
          "type": "uint8"
        },
        {
          "indexed": false,
          "internalType": "address",
          "name": "airline",
          "type": "address"
        },
        {
          "indexed": false,
          "internalType": "string",
          "name": "flight",
          "type": "string"
        },
        {
          "indexed": false,
          "internalType": "uint256",
          "name": "timestamp",
          "type": "uint256"
        }
      ],
      "name": "OracleRequest",
      "type": "event"
    },
    {
      "anonymous": false,
      "inputs": [
        {
          "indexed": false,
          "internalType": "string",
          "name": "name",
          "type": "string"
        },
        {
          "indexed": false,
          "internalType": "bytes32",
          "name": "flightKey",
          "type": "bytes32"
        },
        {
          "indexed": false,
          "internalType": "address",
          "name": "passenger",
          "type": "address"
        },
        {
          "indexed": false,
          "internalType": "uint256",
          "name": "amount",
          "type": "uint256"
        }
      ],
      "name": "PassengerPurchasedInsurance",
      "type": "event"
    },
    {
      "anonymous": false,
      "inputs": [
        {
          "indexed": false,
          "internalType": "string",
          "name": "name",
          "type": "string"
        },
        {
          "indexed": false,
          "internalType": "address",
          "name": "passenger",
          "type": "address"
        },
        {
          "indexed": false,
          "internalType": "uint256",
          "name": "amount",
          "type": "uint256"
        }
      ],
      "name": "PassengerWithdrawBalance",
      "type": "event"
    },
    {
      "constant": true,
      "inputs": [],
      "name": "REGISTRATION_FEE",
      "outputs": [
        {
          "internalType": "uint256",
          "name": "",
          "type": "uint256"
        }
      ],
      "payable": false,
      "stateMutability": "view",
      "type": "function"
    },
    {
      "constant": true,
      "inputs": [
        {
          "internalType": "bytes32",
          "name": "",
          "type": "bytes32"
        }
      ],
      "name": "flights",
      "outputs": [
        {
          "internalType": "string",
          "name": "flightNumber",
          "type": "string"
        },
        {
          "internalType": "uint256",
          "name": "flightTime",
          "type": "uint256"
        },
        {
          "internalType": "address",
          "name": "airline",
          "type": "address"
        },
        {
          "internalType": "uint8",
          "name": "statusCode",
          "type": "uint8"
        },
        {
          "internalType": "bool",
          "name": "isPaid",
          "type": "bool"
        },
        {
          "internalType": "bool",
          "name": "exists",
          "type": "bool"
        }
      ],
      "payable": false,
      "stateMutability": "view",
      "type": "function"
    },
    {
      "constant": true,
      "inputs": [
        {
          "internalType": "address",
          "name": "",
          "type": "address"
        }
      ],
      "name": "passengers",
      "outputs": [
        {
          "internalType": "string",
          "name": "name",
          "type": "string"
        },
        {
          "internalType": "uint256",
          "name": "withdrawBalance",
          "type": "uint256"
        },
        {
          "internalType": "bool",
          "name": "exists",
          "type": "bool"
        }
      ],
      "payable": false,
      "stateMutability": "view",
      "type": "function"
    },
    {
      "constant": false,
      "inputs": [
        {
          "internalType": "string",
          "name": "name",
          "type": "string"
        },
        {
          "internalType": "address",
          "name": "airline",
          "type": "address"
        }
      ],
      "name": "registerAirline",
      "outputs": [],
      "payable": false,
      "stateMutability": "nonpayable",
      "type": "function"
    },
    {
      "constant": false,
      "inputs": [
        {
          "internalType": "address",
          "name": "airline",
          "type": "address"
        }
      ],
      "name": "voteAirline",
      "outputs": [],
      "payable": false,
      "stateMutability": "nonpayable",
      "type": "function"
    },
    {
      "constant": false,
      "inputs": [],
      "name": "fundAirline",
      "outputs": [],
      "payable": true,
      "stateMutability": "payable",
      "type": "function"
    },
    {
      "constant": false,
      "inputs": [
        {
          "internalType": "string",
          "name": "flightNumber",
          "type": "string"
        },
        {
          "internalType": "uint256",
          "name": "flightTime",
          "type": "uint256"
        }
      ],
      "name": "registerFlight",
      "outputs": [],
      "payable": false,
      "stateMutability": "nonpayable",
      "type": "function"
    },
    {
      "constant": false,
      "inputs": [
        {
          "internalType": "address",
          "name": "airline",
          "type": "address"
        },
        {
          "internalType": "string",
          "name": "flightNumber",
          "type": "string"
        },
        {
          "internalType": "uint256",
          "name": "flightTime",
          "type": "uint256"
        },
        {
          "internalType": "uint8",
          "name": "statusCode",
          "type": "uint8"
        }
      ],
      "name": "processFlightStatus",
      "outputs": [],
      "payable": false,
      "stateMutability": "nonpayable",
      "type": "function"
    },
    {
      "constant": false,
      "inputs": [
        {
          "internalType": "address",
          "name": "airline",
          "type": "address"
        },
        {
          "internalType": "string",
          "name": "flight",
          "type": "string"
        },
        {
          "internalType": "uint256",
          "name": "timestamp",
          "type": "uint256"
        }
      ],
      "name": "fetchFlightStatus",
      "outputs": [],
      "payable": false,
      "stateMutability": "nonpayable",
      "type": "function"
    },
    {
      "constant": false,
      "inputs": [
        {
          "internalType": "string",
          "name": "name",
          "type": "string"
        },
        {
          "internalType": "address",
          "name": "airline",
          "type": "address"
        },
        {
          "internalType": "string",
          "name": "flightNumber",
          "type": "string"
        },
        {
          "internalType": "uint256",
          "name": "flightTime",
          "type": "uint256"
        }
      ],
      "name": "buyInsurance",
      "outputs": [],
      "payable": true,
      "stateMutability": "payable",
      "type": "function"
    },
    {
      "constant": false,
      "inputs": [],
      "name": "withdrawFunds",
      "outputs": [],
      "payable": false,
      "stateMutability": "nonpayable",
      "type": "function"
    },
    {
      "constant": false,
      "inputs": [],
      "name": "registerOracle",
      "outputs": [],
      "payable": true,
      "stateMutability": "payable",
      "type": "function"
    },
    {
      "constant": true,
      "inputs": [],
      "name": "getMyIndexes",
      "outputs": [
        {
          "internalType": "uint8[3]",
          "name": "",
          "type": "uint8[3]"
        }
      ],
      "payable": false,
      "stateMutability": "view",
      "type": "function"
    },
    {
      "constant": false,
      "inputs": [
        {
          "internalType": "uint8",
          "name": "index",
          "type": "uint8"
        },
        {
          "internalType": "address",
          "name": "airline",
          "type": "address"
        },
        {
          "internalType": "string",
          "name": "flight",
          "type": "string"
        },
        {
          "internalType": "uint256",
          "name": "timestamp",
          "type": "uint256"
        },
        {
          "internalType": "uint8",
          "name": "statusCode",
          "type": "uint8"
        }
      ],
      "name": "submitOracleResponse",
      "outputs": [],
      "payable": false,
      "stateMutability": "nonpayable",
      "type": "function"
    }
  ],
  "bytecode": "0x60806040526000600360146101000a81548160ff021916908360ff1602179055503480156200002d57600080fd5b50604051620067fd380380620067fd833981810160405260208110156200005357600080fd5b810190808051906020019092919050505033600360006101000a81548173ffffffffffffffffffffffffffffffffffffffff021916908373ffffffffffffffffffffffffffffffffffffffff16021790555080600260006101000a81548173ffffffffffffffffffffffffffffffffffffffff021916908373ffffffffffffffffffffffffffffffffffffffff1602179055505061670680620000f76000396000f3fe6080604052600436106100dd5760003560e01c806364b4f7511161007f578063ce164fdd11610059578063ce164fdd146105d6578063d8ab5b89146106b2578063e7bdde3b14610703578063f83f11c014610802576100dd565b806364b4f751146104d75780639ed1892714610502578063c10f27001461050c576100dd565b80632e9ca67d116100bb5780632e9ca67d146102f2578063339d2590146103ea57806339cfc995146103f45780635f1cc0e614610484576100dd565b80630e2c4129146100e257806320c5375e146101ca57806324600fc3146102db575b600080fd5b3480156100ee57600080fd5b506101c86004803603604081101561010557600080fd5b810190808035906020019064010000000081111561012257600080fd5b82018360208201111561013457600080fd5b8035906020019184600183028401116401000000008311171561015657600080fd5b91908080601f016020809104026020016040519081016040528093929190818152602001838380828437600081840152601f19601f820116905080830192505050505050509192919290803573ffffffffffffffffffffffffffffffffffffffff1690602001909291905050506108b2565b005b3480156101d657600080fd5b50610203600480360360208110156101ed57600080fd5b810190808035906020019092919050505061121c565b60405180806020018781526020018673ffffffffffffffffffffffffffffffffffffffff1673ffffffffffffffffffffffffffffffffffffffff1681526020018560ff1660ff1681526020018415151515815260200183151515158152602001828103825288818151815260200191508051906020019080838360005b8381101561029b578082015181840152602081019050610280565b50505050905090810190601f1680156102c85780820380516001836020036101000a031916815260200191505b5097505050505050505060405180910390f35b3480156102e757600080fd5b506102f0611337565b005b6103e86004803603608081101561030857600080fd5b810190808035906020019064010000000081111561032557600080fd5b82018360208201111561033757600080fd5b8035906020019184600183028401116401000000008311171561035957600080fd5b9091929391929390803573ffffffffffffffffffffffffffffffffffffffff1690602001909291908035906020019064010000000081111561039a57600080fd5b8201836020820111156103ac57600080fd5b803590602001918460018302840111640100000000831117156103ce57600080fd5b9091929391929390803590602001909291905050506117a6565b005b6103f26121c1565b005b34801561040057600080fd5b506104826004803603604081101561041757600080fd5b810190808035906020019064010000000081111561043457600080fd5b82018360208201111561044657600080fd5b8035906020019184600183028401116401000000008311171561046857600080fd5b9091929391929390803590602001909291905050506123df565b005b34801561049057600080fd5b50610499612960565b6040518082600360200280838360005b838110156104c45780820151818401526020810190506104a9565b5050505090500191505060405180910390f35b3480156104e357600080fd5b506104ec612ad3565b6040518082815260200191505060405180910390f35b61050a612adf565b005b34801561051857600080fd5b506105d4600480360360a081101561052f57600080fd5b81019080803560ff169060200190929190803573ffffffffffffffffffffffffffffffffffffffff1690602001909291908035906020019064010000000081111561057957600080fd5b82018360208201111561058b57600080fd5b803590602001918460018302840111640100000000831117156105ad57600080fd5b909192939192939080359060200190929190803560ff169060200190929190505050613250565b005b3480156105e257600080fd5b50610625600480360360208110156105f957600080fd5b81019080803573ffffffffffffffffffffffffffffffffffffffff169060200190929190505050613869565b604051808060200184815260200183151515158152602001828103825285818151815260200191508051906020019080838360005b8381101561067557808201518184015260208101905061065a565b50505050905090810190601f1680156106a25780820380516001836020036101000a031916815260200191505b5094505050505060405180910390f35b3480156106be57600080fd5b50610701600480360360208110156106d557600080fd5b81019080803573ffffffffffffffffffffffffffffffffffffffff169060200190929190505050613938565b005b34801561070f57600080fd5b506108006004803603608081101561072657600080fd5b81019080803573ffffffffffffffffffffffffffffffffffffffff1690602001909291908035906020019064010000000081111561076357600080fd5b82018360208201111561077557600080fd5b8035906020019184600183028401116401000000008311171561079757600080fd5b91908080601f016020809104026020016040519081016040528093929190818152602001838380828437600081840152601f19601f82011690508083019250505050505050919291929080359060200190929190803560ff169060200190929190505050614c67565b005b34801561080e57600080fd5b506108b06004803603606081101561082557600080fd5b81019080803573ffffffffffffffffffffffffffffffffffffffff1690602001909291908035906020019064010000000081111561086257600080fd5b82018360208201111561087457600080fd5b8035906020019184600183028401116401000000008311171561089657600080fd5b909192939192939080359060200190929190505050615366565b005b600260009054906101000a900473ffffffffffffffffffffffffffffffffffffffff1673ffffffffffffffffffffffffffffffffffffffff1663cd905dff6040518163ffffffff1660e01b815260040160206040518083038186803b15801561091a57600080fd5b505afa15801561092e573d6000803e3d6000fd5b505050506040513d602081101561094457600080fd5b81019080805190602001909291905050506109aa576040517f08c379a00000000000000000000000000000000000000000000000000000000081526004018080602001828103825260258152602001806165e66025913960400191505060405180910390fd5b8060001515600260009054906101000a900473ffffffffffffffffffffffffffffffffffffffff1673ffffffffffffffffffffffffffffffffffffffff16631309ece7836040518263ffffffff1660e01b8152600401808273ffffffffffffffffffffffffffffffffffffffff1673ffffffffffffffffffffffffffffffffffffffff16815260200191505060206040518083038186803b158015610a4e57600080fd5b505afa158015610a62573d6000803e3d6000fd5b505050506040513d6020811015610a7857600080fd5b8101908080519060200190929190505050151514610ae1576040517f08c379a00000000000000000000000000000000000000000000000000000000081526004018080602001828103825260358152602001806165906035913960400191505060405180910390fd5b33600260009054906101000a900473ffffffffffffffffffffffffffffffffffffffff1673ffffffffffffffffffffffffffffffffffffffff16631309ece7826040518263ffffffff1660e01b8152600401808273ffffffffffffffffffffffffffffffffffffffff1673ffffffffffffffffffffffffffffffffffffffff16815260200191505060206040518083038186803b158015610b8157600080fd5b505afa158015610b95573d6000803e3d6000fd5b505050506040513d6020811015610bab57600080fd5b8101908080519060200190929190505050610c2e576040517f08c379a00000000000000000000000000000000000000000000000000000000081526004018080602001828103825260168152602001807f4169726c696e6520646f6573206e6f742065786973740000000000000000000081525060200191505060405180910390fd5b600260009054906101000a900473ffffffffffffffffffffffffffffffffffffffff1673ffffffffffffffffffffffffffffffffffffffff1663f53b6d65826040518263ffffffff1660e01b8152600401808273ffffffffffffffffffffffffffffffffffffffff1673ffffffffffffffffffffffffffffffffffffffff16815260200191505060206040518083038186803b158015610ccd57600080fd5b505afa158015610ce1573d6000803e3d6000fd5b505050506040513d6020811015610cf757600080fd5b8101908080519060200190929190505050610d7a576040517f08c379a00000000000000000000000000000000000000000000000000000000081526004018080602001828103825260158152602001807f4169726c696e65206973206e6f742066756e646564000000000000000000000081525060200191505060405180910390fd5b6003600260009054906101000a900473ffffffffffffffffffffffffffffffffffffffff1673ffffffffffffffffffffffffffffffffffffffff1663f77890ea6040518163ffffffff1660e01b815260040160206040518083038186803b158015610de457600080fd5b505afa158015610df8573d6000803e3d6000fd5b505050506040513d6020811015610e0e57600080fd5b81019080805190602001909291905050501061101f57600260009054906101000a900473ffffffffffffffffffffffffffffffffffffffff1673ffffffffffffffffffffffffffffffffffffffff1663c382977285856040518363ffffffff1660e01b815260040180806020018373ffffffffffffffffffffffffffffffffffffffff1673ffffffffffffffffffffffffffffffffffffffff168152602001828103825284818151815260200191508051906020019080838360005b83811015610ee5578082015181840152602081019050610eca565b50505050905090810190601f168015610f125780820380516001836020036101000a031916815260200191505b509350505050600060405180830381600087803b158015610f3257600080fd5b505af1158015610f46573d6000803e3d6000fd5b505050507f139fd9037472380d5bf5a4e6cf302d59173ab6a5ddb235d44912cea4df728c23848460405180806020018373ffffffffffffffffffffffffffffffffffffffff1673ffffffffffffffffffffffffffffffffffffffff168152602001828103825284818151815260200191508051906020019080838360005b83811015610fdf578082015181840152602081019050610fc4565b50505050905090810190601f16801561100c5780820380516001836020036101000a031916815260200191505b50935050505060405180910390a1611216565b600260009054906101000a900473ffffffffffffffffffffffffffffffffffffffff1673ffffffffffffffffffffffffffffffffffffffff16630e2c412985856040518363ffffffff1660e01b815260040180806020018373ffffffffffffffffffffffffffffffffffffffff1673ffffffffffffffffffffffffffffffffffffffff168152602001828103825284818151815260200191508051906020019080838360005b838110156110e05780820151818401526020810190506110c5565b50505050905090810190601f16801561110d5780820380516001836020036101000a031916815260200191505b509350505050600060405180830381600087803b15801561112d57600080fd5b505af1158015611141573d6000803e3d6000fd5b505050507f4389233d1d7e817e3a41447176300b89c596c24ed4d58896d501ddb378abe2c4848460405180806020018373ffffffffffffffffffffffffffffffffffffffff1673ffffffffffffffffffffffffffffffffffffffff168152602001828103825284818151815260200191508051906020019080838360005b838110156111da5780820151818401526020810190506111bf565b50505050905090810190601f1680156112075780820380516001836020036101000a031916815260200191505b50935050505060405180910390a15b50505050565b6000602052806000526040600020600091509050806000018054600181600116156101000203166002900480601f0160208091040260200160405190810160405280929190818152602001828054600181600116156101000203166002900480156112c85780601f1061129d576101008083540402835291602001916112c8565b820191906000526020600020905b8154815290600101906020018083116112ab57829003601f168201915b5050505050908060010154908060020160009054906101000a900473ffffffffffffffffffffffffffffffffffffffff16908060020160149054906101000a900460ff16908060020160159054906101000a900460ff16908060020160169054906101000a900460ff16905086565b600260009054906101000a900473ffffffffffffffffffffffffffffffffffffffff1673ffffffffffffffffffffffffffffffffffffffff1663cd905dff6040518163ffffffff1660e01b815260040160206040518083038186803b15801561139f57600080fd5b505afa1580156113b3573d6000803e3d6000fd5b505050506040513d60208110156113c957600080fd5b810190808051906020019092919050505061142f576040517f08c379a00000000000000000000000000000000000000000000000000000000081526004018080602001828103825260258152602001806165e66025913960400191505060405180910390fd5b3360011515600160008373ffffffffffffffffffffffffffffffffffffffff1673ffffffffffffffffffffffffffffffffffffffff16815260200190815260200160002060020160009054906101000a900460ff161515146114f9576040517f08c379a00000000000000000000000000000000000000000000000000000000081526004018080602001828103825260198152602001807f50617373656e67657220646f6573206e6f74206578697374730000000000000081525060200191505060405180910390fd5b336000600160008373ffffffffffffffffffffffffffffffffffffffff1673ffffffffffffffffffffffffffffffffffffffff1681526020019081526020016000206001015411611595576040517f08c379a00000000000000000000000000000000000000000000000000000000081526004018080602001828103825260378152602001806165596037913960400191505060405180910390fd5b6000600160003373ffffffffffffffffffffffffffffffffffffffff1673ffffffffffffffffffffffffffffffffffffffff1681526020019081526020016000206001015490506000600160003373ffffffffffffffffffffffffffffffffffffffff1673ffffffffffffffffffffffffffffffffffffffff168152602001908152602001600020600101819055503373ffffffffffffffffffffffffffffffffffffffff166108fc829081150290604051600060405180830381858888f1935050505015801561166a573d6000803e3d6000fd5b507f40e2c9cc059ec9489f4e63b98dfb11f6409c66f41f810515683886fe9df92aaf600160003373ffffffffffffffffffffffffffffffffffffffff1673ffffffffffffffffffffffffffffffffffffffff168152602001908152602001600020600001338360405180806020018473ffffffffffffffffffffffffffffffffffffffff1673ffffffffffffffffffffffffffffffffffffffff1681526020018381526020018281038252858181546001816001161561010002031660029004815260200191508054600181600116156101000203166002900480156117915780601f1061176657610100808354040283529160200191611791565b820191906000526020600020905b81548152906001019060200180831161177457829003601f168201915b505094505050505060405180910390a1505050565b600260009054906101000a900473ffffffffffffffffffffffffffffffffffffffff1673ffffffffffffffffffffffffffffffffffffffff1663cd905dff6040518163ffffffff1660e01b815260040160206040518083038186803b15801561180e57600080fd5b505afa158015611822573d6000803e3d6000fd5b505050506040513d602081101561183857600080fd5b810190808051906020019092919050505061189e576040517f08c379a00000000000000000000000000000000000000000000000000000000081526004018080602001828103825260258152602001806165e66025913960400191505060405180910390fd5b83600260009054906101000a900473ffffffffffffffffffffffffffffffffffffffff1673ffffffffffffffffffffffffffffffffffffffff16631309ece7826040518263ffffffff1660e01b8152600401808273ffffffffffffffffffffffffffffffffffffffff1673ffffffffffffffffffffffffffffffffffffffff16815260200191505060206040518083038186803b15801561193e57600080fd5b505afa158015611952573d6000803e3d6000fd5b505050506040513d602081101561196857600080fd5b81019080805190602001909291905050506119eb576040517f08c379a00000000000000000000000000000000000000000000000000000000081526004018080602001828103825260168152602001807f4169726c696e6520646f6573206e6f742065786973740000000000000000000081525060200191505060405180910390fd5b600260009054906101000a900473ffffffffffffffffffffffffffffffffffffffff1673ffffffffffffffffffffffffffffffffffffffff1663f53b6d65826040518263ffffffff1660e01b8152600401808273ffffffffffffffffffffffffffffffffffffffff1673ffffffffffffffffffffffffffffffffffffffff16815260200191505060206040518083038186803b158015611a8a57600080fd5b505afa158015611a9e573d6000803e3d6000fd5b505050506040513d6020811015611ab457600080fd5b8101908080519060200190929190505050611b37576040517f08c379a00000000000000000000000000000000000000000000000000000000081526004018080602001828103825260158152602001807f4169726c696e65206973206e6f742066756e646564000000000000000000000081525060200191505060405180910390fd5b8484848080601f016020809104026020016040519081016040528093929190818152602001838380828437600081840152601f19601f82011690508083019250505050505050836000838383604051602001808473ffffffffffffffffffffffffffffffffffffffff1673ffffffffffffffffffffffffffffffffffffffff1660601b815260140183805190602001908083835b60208310611bee5780518252602082019150602081019050602083039250611bcb565b6001836020036101000a03801982511681845116808217855250505050505090500182815260200193505050506040516020818303038152906040528051906020012090506001151560008083815260200190815260200160002060020160169054906101000a900460ff16151514611ccf576040517f08c379a00000000000000000000000000000000000000000000000000000000081526004018080602001828103825260188152602001807f466c69676874206973206e6f742072656769737465726564000000000000000081525060200191505060405180910390fd5b60003411611d28576040517f08c379a00000000000000000000000000000000000000000000000000000000081526004018080602001828103825260318152602001806165286031913960400191505060405180910390fd5b670de0b6b3a7640000341115611d89576040517f08c379a000000000000000000000000000000000000000000000000000000000815260040180806020018281038252603881526020018061663e6038913960400191505060405180910390fd5b600089898989604051602001808573ffffffffffffffffffffffffffffffffffffffff1673ffffffffffffffffffffffffffffffffffffffff1660601b815260140184848082843780830192505050828152602001945050505050604051602081830303815290604052805190602001209050601460ff1660008083815260200190815260200160002060020160149054906101000a900460ff1660ff161415611e7e576040517f08c379a000000000000000000000000000000000000000000000000000000000815260040180806020018281038252603b81526020018061646a603b913960400191505060405180910390fd5b6000806000838152602001908152602001600020600301905060008090505b8180549050811015611f71573373ffffffffffffffffffffffffffffffffffffffff16828281548110611ecc57fe5b9060005260206000200160009054906101000a900473ffffffffffffffffffffffffffffffffffffffff1673ffffffffffffffffffffffffffffffffffffffff161415611f64576040517f08c379a00000000000000000000000000000000000000000000000000000000081526004018080602001828103825260398152602001806166996039913960400191505060405180910390fd5b8080600101915050611e9d565b50803390806001815401808255809150509060018203906000526020600020016000909192909190916101000a81548173ffffffffffffffffffffffffffffffffffffffff021916908373ffffffffffffffffffffffffffffffffffffffff1602179055505060001515600160003373ffffffffffffffffffffffffffffffffffffffff1673ffffffffffffffffffffffffffffffffffffffff16815260200190815260200160002060020160009054906101000a900460ff16151514156120b3576000600160003373ffffffffffffffffffffffffffffffffffffffff1673ffffffffffffffffffffffffffffffffffffffff16815260200190815260200160002090508d8d8260000191906120899291906162a9565b506000816001018190555060018160020160006101000a81548160ff021916908315150217905550505b34600160003373ffffffffffffffffffffffffffffffffffffffff1673ffffffffffffffffffffffffffffffffffffffff1681526020019081526020016000206003016000848152602001908152602001600020819055507f8d1d728b3e083cb21eccf339f45ddbfc88eb72c1877c715536dfa2616d1c3c848d8d84333460405180806020018581526020018473ffffffffffffffffffffffffffffffffffffffff1673ffffffffffffffffffffffffffffffffffffffff1681526020018381526020018281038252878782818152602001925080828437600081840152601f19601f820116905080830192505050965050505050505060405180910390a150505050505050505050505050565b600260009054906101000a900473ffffffffffffffffffffffffffffffffffffffff1673ffffffffffffffffffffffffffffffffffffffff1663cd905dff6040518163ffffffff1660e01b815260040160206040518083038186803b15801561222957600080fd5b505afa15801561223d573d6000803e3d6000fd5b505050506040513d602081101561225357600080fd5b81019080805190602001909291905050506122b9576040517f08c379a00000000000000000000000000000000000000000000000000000000081526004018080602001828103825260258152602001806165e66025913960400191505060405180910390fd5b670de0b6b3a7640000341015612337576040517f08c379a000000000000000000000000000000000000000000000000000000000815260040180806020018281038252601c8152602001807f526567697374726174696f6e206665652069732072657175697265640000000081525060200191505060405180910390fd5b61233f616329565b6123483361564f565b9050604051806040016040528060011515815260200182815250600460003373ffffffffffffffffffffffffffffffffffffffff1673ffffffffffffffffffffffffffffffffffffffff16815260200190815260200160002060008201518160000160006101000a81548160ff0219169083151502179055506020820151816001019060036123d892919061634b565b5090505050565b600260009054906101000a900473ffffffffffffffffffffffffffffffffffffffff1673ffffffffffffffffffffffffffffffffffffffff1663cd905dff6040518163ffffffff1660e01b815260040160206040518083038186803b15801561244757600080fd5b505afa15801561245b573d6000803e3d6000fd5b505050506040513d602081101561247157600080fd5b81019080805190602001909291905050506124d7576040517f08c379a00000000000000000000000000000000000000000000000000000000081526004018080602001828103825260258152602001806165e66025913960400191505060405180910390fd5b33600260009054906101000a900473ffffffffffffffffffffffffffffffffffffffff1673ffffffffffffffffffffffffffffffffffffffff16631309ece7826040518263ffffffff1660e01b8152600401808273ffffffffffffffffffffffffffffffffffffffff1673ffffffffffffffffffffffffffffffffffffffff16815260200191505060206040518083038186803b15801561257757600080fd5b505afa15801561258b573d6000803e3d6000fd5b505050506040513d60208110156125a157600080fd5b8101908080519060200190929190505050612624576040517f08c379a00000000000000000000000000000000000000000000000000000000081526004018080602001828103825260168152602001807f4169726c696e6520646f6573206e6f742065786973740000000000000000000081525060200191505060405180910390fd5b600260009054906101000a900473ffffffffffffffffffffffffffffffffffffffff1673ffffffffffffffffffffffffffffffffffffffff1663f53b6d65826040518263ffffffff1660e01b8152600401808273ffffffffffffffffffffffffffffffffffffffff1673ffffffffffffffffffffffffffffffffffffffff16815260200191505060206040518083038186803b1580156126c357600080fd5b505afa1580156126d7573d6000803e3d6000fd5b505050506040513d60208110156126ed57600080fd5b8101908080519060200190929190505050612770576040517f08c379a00000000000000000000000000000000000000000000000000000000081526004018080602001828103825260158152602001807f4169726c696e65206973206e6f742066756e646564000000000000000000000081525060200191505060405180910390fd5b600033858585604051602001808573ffffffffffffffffffffffffffffffffffffffff1673ffffffffffffffffffffffffffffffffffffffff1660601b81526014018484808284378083019250505082815260200194505050505060405160208183030381529060405280519060200120905060008060008381526020019081526020016000209050858582600001919061280c9291906162a9565b50838160010181905550338160020160006101000a81548173ffffffffffffffffffffffffffffffffffffffff021916908373ffffffffffffffffffffffffffffffffffffffff16021790555060008160020160146101000a81548160ff021916908360ff16021790555060018160020160166101000a81548160ff02191690831515021790555060008160020160156101000a81548160ff0219169083151502179055507ffe0b0db86af9d557d4082f8c7e39f16fec088fa1491488d161505b5e0db16301868686338660405180806020018581526020018473ffffffffffffffffffffffffffffffffffffffff1673ffffffffffffffffffffffffffffffffffffffff1681526020018381526020018281038252878782818152602001925080828437600081840152601f19601f820116905080830192505050965050505050505060405180910390a1505050505050565b612968616329565b600460003373ffffffffffffffffffffffffffffffffffffffff1673ffffffffffffffffffffffffffffffffffffffff16815260200190815260200160002060000160009054906101000a900460ff16612a2a576040517f08c379a000000000000000000000000000000000000000000000000000000000815260040180806020018281038252601b8152602001807f4e6f74207265676973746572656420617320616e206f7261636c65000000000081525060200191505060405180910390fd5b600460003373ffffffffffffffffffffffffffffffffffffffff1673ffffffffffffffffffffffffffffffffffffffff168152602001908152602001600020600101600380602002604051908101604052809291908260038015612ac9576020028201916000905b82829054906101000a900460ff1660ff1681526020019060010190602082600001049283019260010382029150808411612a925790505b5050505050905090565b670de0b6b3a764000081565b33600260009054906101000a900473ffffffffffffffffffffffffffffffffffffffff1673ffffffffffffffffffffffffffffffffffffffff16631309ece7826040518263ffffffff1660e01b8152600401808273ffffffffffffffffffffffffffffffffffffffff1673ffffffffffffffffffffffffffffffffffffffff16815260200191505060206040518083038186803b158015612b7f57600080fd5b505afa158015612b93573d6000803e3d6000fd5b505050506040513d6020811015612ba957600080fd5b8101908080519060200190929190505050612c2c576040517f08c379a00000000000000000000000000000000000000000000000000000000081526004018080602001828103825260168152602001807f4169726c696e6520646f6573206e6f742065786973740000000000000000000081525060200191505060405180910390fd5b600260009054906101000a900473ffffffffffffffffffffffffffffffffffffffff1673ffffffffffffffffffffffffffffffffffffffff1663010c5c97826040518263ffffffff1660e01b8152600401808273ffffffffffffffffffffffffffffffffffffffff1673ffffffffffffffffffffffffffffffffffffffff16815260200191505060206040518083038186803b158015612ccb57600080fd5b505afa158015612cdf573d6000803e3d6000fd5b505050506040513d6020811015612cf557600080fd5b8101908080519060200190929190505050612d78576040517f08c379a00000000000000000000000000000000000000000000000000000000081526004018080602001828103825260198152602001807f4169726c696e65206973206e6f7420726567697374657265640000000000000081525060200191505060405180910390fd5b600260009054906101000a900473ffffffffffffffffffffffffffffffffffffffff1673ffffffffffffffffffffffffffffffffffffffff1663cd905dff6040518163ffffffff1660e01b815260040160206040518083038186803b158015612de057600080fd5b505afa158015612df4573d6000803e3d6000fd5b505050506040513d6020811015612e0a57600080fd5b8101908080519060200190929190505050612e70576040517f08c379a00000000000000000000000000000000000000000000000000000000081526004018080602001828103825260258152602001806165e66025913960400191505060405180910390fd5b678ac7230489e8000080341015612ed2576040517f08c379a000000000000000000000000000000000000000000000000000000000815260040180806020018281038252602b8152602001806164da602b913960400191505060405180910390fd5b678ac7230489e80000600260009054906101000a900473ffffffffffffffffffffffffffffffffffffffff1673ffffffffffffffffffffffffffffffffffffffff16636fbb879834336040518363ffffffff1660e01b8152600401808273ffffffffffffffffffffffffffffffffffffffff1673ffffffffffffffffffffffffffffffffffffffff1681526020019150506000604051808303818588803b158015612f7c57600080fd5b505af1158015612f90573d6000803e3d6000fd5b50505050507fb79e695bf38dcea3887c0922d0f819d2c35e4197231fb49fc074b143a81feae2600260009054906101000a900473ffffffffffffffffffffffffffffffffffffffff1673ffffffffffffffffffffffffffffffffffffffff1663524b6100336040518263ffffffff1660e01b8152600401808273ffffffffffffffffffffffffffffffffffffffff1673ffffffffffffffffffffffffffffffffffffffff16815260200191505060006040518083038186803b15801561305557600080fd5b505afa158015613069573d6000803e3d6000fd5b505050506040513d6000823e3d601f19601f82011682018060405250602081101561309357600080fd5b81019080805160405193929190846401000000008211156130b357600080fd5b838201915060208201858111156130c957600080fd5b82518660018202830111640100000000821117156130e657600080fd5b8083526020830192505050908051906020019080838360005b8381101561311a5780820151818401526020810190506130ff565b50505050905090810190601f1680156131475780820380516001836020036101000a031916815260200191505b506040525050503360405180806020018373ffffffffffffffffffffffffffffffffffffffff1673ffffffffffffffffffffffffffffffffffffffff168152602001828103825284818151815260200191508051906020019080838360005b838110156131c15780820151818401526020810190506131a6565b50505050905090810190601f1680156131ee5780820380516001836020036101000a031916815260200191505b50935050505060405180910390a1600081340390503373ffffffffffffffffffffffffffffffffffffffff166108fc829081150290604051600060405180830381858888f19350505050158015613249573d6000803e3d6000fd5b5050505050565b600260009054906101000a900473ffffffffffffffffffffffffffffffffffffffff1673ffffffffffffffffffffffffffffffffffffffff1663cd905dff6040518163ffffffff1660e01b815260040160206040518083038186803b1580156132b857600080fd5b505afa1580156132cc573d6000803e3d6000fd5b505050506040513d60208110156132e257600080fd5b8101908080519060200190929190505050613348576040517f08c379a00000000000000000000000000000000000000000000000000000000081526004018080602001828103825260258152602001806165e66025913960400191505060405180910390fd5b8560ff16600460003373ffffffffffffffffffffffffffffffffffffffff1673ffffffffffffffffffffffffffffffffffffffff16815260200190815260200160002060010160006003811061339a57fe5b602091828204019190069054906101000a900460ff1660ff16148061342757508560ff16600460003373ffffffffffffffffffffffffffffffffffffffff1673ffffffffffffffffffffffffffffffffffffffff16815260200190815260200160002060010160016003811061340c57fe5b602091828204019190069054906101000a900460ff1660ff16145b8061349a57508560ff16600460003373ffffffffffffffffffffffffffffffffffffffff1673ffffffffffffffffffffffffffffffffffffffff16815260200190815260200160002060010160026003811061347f57fe5b602091828204019190069054906101000a900460ff1660ff16145b6134ef576040517f08c379a00000000000000000000000000000000000000000000000000000000081526004018080602001828103825260238152602001806166766023913960400191505060405180910390fd5b60008686868686604051602001808660ff1660ff1660f81b81526001018573ffffffffffffffffffffffffffffffffffffffff1673ffffffffffffffffffffffffffffffffffffffff1660601b815260140184848082843780830192505050828152602001955050505050506040516020818303038152906040528051906020012090506005600082815260200190815260200160002060000160149054906101000a900460ff166135ec576040517f08c379a000000000000000000000000000000000000000000000000000000000815260040180806020018281038252602f81526020018061643b602f913960400191505060405180910390fd5b6005600082815260200190815260200160002060010160008360ff1660ff1681526020019081526020016000203390806001815401808255809150509060018203906000526020600020016000909192909190916101000a81548173ffffffffffffffffffffffffffffffffffffffff021916908373ffffffffffffffffffffffffffffffffffffffff160217905550507f43c853095c2752648493c88b4baac4d580d2594ffb00c6f1d4242d844514f7838686868686604051808673ffffffffffffffffffffffffffffffffffffffff1673ffffffffffffffffffffffffffffffffffffffff168152602001806020018481526020018360ff1660ff1681526020018281038252868682818152602001925080828437600081840152601f19601f820116905080830192505050965050505050505060405180910390a160036005600083815260200190815260200160002060010160008460ff1660ff1681526020019081526020016000208054905010613860577fe23f5229de535c091e3b7bec2665f5d698192d3b31393066e8987b7a05076b6c8686868686604051808673ffffffffffffffffffffffffffffffffffffffff1673ffffffffffffffffffffffffffffffffffffffff168152602001806020018481526020018360ff1660ff1681526020018281038252868682818152602001925080828437600081840152601f19601f820116905080830192505050965050505050505060405180910390a161385f8686868080601f016020809104026020016040519081016040528093929190818152602001838380828437600081840152601f19601f820116905080830192505050505050508585614c67565b5b50505050505050565b6001602052806000526040600020600091509050806000018054600181600116156101000203166002900480601f0160208091040260200160405190810160405280929190818152602001828054600181600116156101000203166002900480156139155780601f106138ea57610100808354040283529160200191613915565b820191906000526020600020905b8154815290600101906020018083116138f857829003601f168201915b5050505050908060010154908060020160009054906101000a900460ff16905083565b600260009054906101000a900473ffffffffffffffffffffffffffffffffffffffff1673ffffffffffffffffffffffffffffffffffffffff1663cd905dff6040518163ffffffff1660e01b815260040160206040518083038186803b1580156139a057600080fd5b505afa1580156139b4573d6000803e3d6000fd5b505050506040513d60208110156139ca57600080fd5b8101908080519060200190929190505050613a30576040517f08c379a00000000000000000000000000000000000000000000000000000000081526004018080602001828103825260258152602001806165e66025913960400191505060405180910390fd5b80600260009054906101000a900473ffffffffffffffffffffffffffffffffffffffff1673ffffffffffffffffffffffffffffffffffffffff16631309ece7826040518263ffffffff1660e01b8152600401808273ffffffffffffffffffffffffffffffffffffffff1673ffffffffffffffffffffffffffffffffffffffff16815260200191505060206040518083038186803b158015613ad057600080fd5b505afa158015613ae4573d6000803e3d6000fd5b505050506040513d6020811015613afa57600080fd5b8101908080519060200190929190505050613b7d576040517f08c379a00000000000000000000000000000000000000000000000000000000081526004018080602001828103825260168152602001807f4169726c696e6520646f6573206e6f742065786973740000000000000000000081525060200191505060405180910390fd5b600260009054906101000a900473ffffffffffffffffffffffffffffffffffffffff1673ffffffffffffffffffffffffffffffffffffffff16635719424b826040518263ffffffff1660e01b8152600401808273ffffffffffffffffffffffffffffffffffffffff1673ffffffffffffffffffffffffffffffffffffffff16815260200191505060206040518083038186803b158015613c1c57600080fd5b505afa158015613c30573d6000803e3d6000fd5b505050506040513d6020811015613c4657600080fd5b8101908080519060200190929190505050613cc9576040517f08c379a00000000000000000000000000000000000000000000000000000000081526004018080602001828103825260158152602001807f4169726c696e65206973206e6f7420717565756564000000000000000000000081525060200191505060405180910390fd5b33600260009054906101000a900473ffffffffffffffffffffffffffffffffffffffff1673ffffffffffffffffffffffffffffffffffffffff16631309ece7826040518263ffffffff1660e01b8152600401808273ffffffffffffffffffffffffffffffffffffffff1673ffffffffffffffffffffffffffffffffffffffff16815260200191505060206040518083038186803b158015613d6957600080fd5b505afa158015613d7d573d6000803e3d6000fd5b505050506040513d6020811015613d9357600080fd5b8101908080519060200190929190505050613e16576040517f08c379a00000000000000000000000000000000000000000000000000000000081526004018080602001828103825260168152602001807f4169726c696e6520646f6573206e6f742065786973740000000000000000000081525060200191505060405180910390fd5b600260009054906101000a900473ffffffffffffffffffffffffffffffffffffffff1673ffffffffffffffffffffffffffffffffffffffff1663010c5c97826040518263ffffffff1660e01b8152600401808273ffffffffffffffffffffffffffffffffffffffff1673ffffffffffffffffffffffffffffffffffffffff16815260200191505060206040518083038186803b158015613eb557600080fd5b505afa158015613ec9573d6000803e3d6000fd5b505050506040513d6020811015613edf57600080fd5b810190808051906020019092919050505080613fd15750600260009054906101000a900473ffffffffffffffffffffffffffffffffffffffff1673ffffffffffffffffffffffffffffffffffffffff1663f53b6d65826040518263ffffffff1660e01b8152600401808273ffffffffffffffffffffffffffffffffffffffff1673ffffffffffffffffffffffffffffffffffffffff16815260200191505060206040518083038186803b158015613f9557600080fd5b505afa158015613fa9573d6000803e3d6000fd5b505050506040513d6020811015613fbf57600080fd5b81019080805190602001909291905050505b614026576040517f08c379a00000000000000000000000000000000000000000000000000000000081526004018080602001828103825260238152602001806165056023913960400191505060405180910390fd5b8233600260009054906101000a900473ffffffffffffffffffffffffffffffffffffffff1673ffffffffffffffffffffffffffffffffffffffff166305c6c17c83836040518363ffffffff1660e01b8152600401808373ffffffffffffffffffffffffffffffffffffffff1673ffffffffffffffffffffffffffffffffffffffff1681526020018273ffffffffffffffffffffffffffffffffffffffff1673ffffffffffffffffffffffffffffffffffffffff1681526020019250505060206040518083038186803b1580156140fb57600080fd5b505afa15801561410f573d6000803e3d6000fd5b505050506040513d602081101561412557600080fd5b810190808051906020019092919050505061418b576040517f08c379a000000000000000000000000000000000000000000000000000000000815260040180806020018281038252603381526020018061660b6033913960400191505060405180910390fd5b600260009054906101000a900473ffffffffffffffffffffffffffffffffffffffff1673ffffffffffffffffffffffffffffffffffffffff1663c5323de586336040518363ffffffff1660e01b8152600401808373ffffffffffffffffffffffffffffffffffffffff1673ffffffffffffffffffffffffffffffffffffffff1681526020018273ffffffffffffffffffffffffffffffffffffffff1673ffffffffffffffffffffffffffffffffffffffff16815260200192505050600060405180830381600087803b15801561426057600080fd5b505af1158015614274573d6000803e3d6000fd5b505050507fa54e0d9c0eb31974cf4aea5cb888ef86e0505bf4574e171be405e8fd014bae16600260009054906101000a900473ffffffffffffffffffffffffffffffffffffffff1673ffffffffffffffffffffffffffffffffffffffff1663524b6100876040518263ffffffff1660e01b8152600401808273ffffffffffffffffffffffffffffffffffffffff1673ffffffffffffffffffffffffffffffffffffffff16815260200191505060006040518083038186803b15801561433857600080fd5b505afa15801561434c573d6000803e3d6000fd5b505050506040513d6000823e3d601f19601f82011682018060405250602081101561437657600080fd5b810190808051604051939291908464010000000082111561439657600080fd5b838201915060208201858111156143ac57600080fd5b82518660018202830111640100000000821117156143c957600080fd5b8083526020830192505050908051906020019080838360005b838110156143fd5780820151818401526020810190506143e2565b50505050905090810190601f16801561442a5780820380516001836020036101000a031916815260200191505b50604052505050338760405180806020018473ffffffffffffffffffffffffffffffffffffffff1673ffffffffffffffffffffffffffffffffffffffff1681526020018373ffffffffffffffffffffffffffffffffffffffff1673ffffffffffffffffffffffffffffffffffffffff168152602001828103825285818151815260200191508051906020019080838360005b838110156144d75780820151818401526020810190506144bc565b50505050905090810190601f1680156145045780820380516001836020036101000a031916815260200191505b5094505050505060405180910390a16145c0600260009054906101000a900473ffffffffffffffffffffffffffffffffffffffff1673ffffffffffffffffffffffffffffffffffffffff1663f77890ea6040518163ffffffff1660e01b815260040160206040518083038186803b15801561457e57600080fd5b505afa158015614592573d6000803e3d6000fd5b505050506040513d60208110156145a857600080fd5b810190808051906020019092919050505060026157db565b600260009054906101000a900473ffffffffffffffffffffffffffffffffffffffff1673ffffffffffffffffffffffffffffffffffffffff16636d47c815876040518263ffffffff1660e01b8152600401808273ffffffffffffffffffffffffffffffffffffffff1673ffffffffffffffffffffffffffffffffffffffff16815260200191505060006040518083038186803b15801561465f57600080fd5b505afa158015614673573d6000803e3d6000fd5b505050506040513d6000823e3d601f19601f82011682018060405250602081101561469d57600080fd5b81019080805160405193929190846401000000008211156146bd57600080fd5b838201915060208201858111156146d357600080fd5b82518660208202830111640100000000821117156146f057600080fd5b8083526020830192505050908051906020019060200280838360005b8381101561472757808201518184015260208101905061470c565b50505050905001604052505050511115614c6057600260009054906101000a900473ffffffffffffffffffffffffffffffffffffffff1673ffffffffffffffffffffffffffffffffffffffff16630e2c4129600260009054906101000a900473ffffffffffffffffffffffffffffffffffffffff1673ffffffffffffffffffffffffffffffffffffffff1663524b6100886040518263ffffffff1660e01b8152600401808273ffffffffffffffffffffffffffffffffffffffff1673ffffffffffffffffffffffffffffffffffffffff16815260200191505060006040518083038186803b15801561481857600080fd5b505afa15801561482c573d6000803e3d6000fd5b505050506040513d6000823e3d601f19601f82011682018060405250602081101561485657600080fd5b810190808051604051939291908464010000000082111561487657600080fd5b8382019150602082018581111561488c57600080fd5b82518660018202830111640100000000821117156148a957600080fd5b8083526020830192505050908051906020019080838360005b838110156148dd5780820151818401526020810190506148c2565b50505050905090810190601f16801561490a5780820380516001836020036101000a031916815260200191505b50604052505050876040518363ffffffff1660e01b815260040180806020018373ffffffffffffffffffffffffffffffffffffffff1673ffffffffffffffffffffffffffffffffffffffff168152602001828103825284818151815260200191508051906020019080838360005b83811015614993578082015181840152602081019050614978565b50505050905090810190601f1680156149c05780820380516001836020036101000a031916815260200191505b509350505050600060405180830381600087803b1580156149e057600080fd5b505af11580156149f4573d6000803e3d6000fd5b505050507f4389233d1d7e817e3a41447176300b89c596c24ed4d58896d501ddb378abe2c4600260009054906101000a900473ffffffffffffffffffffffffffffffffffffffff1673ffffffffffffffffffffffffffffffffffffffff1663524b6100876040518263ffffffff1660e01b8152600401808273ffffffffffffffffffffffffffffffffffffffff1673ffffffffffffffffffffffffffffffffffffffff16815260200191505060006040518083038186803b158015614ab857600080fd5b505afa158015614acc573d6000803e3d6000fd5b505050506040513d6000823e3d601f19601f820116820180604052506020811015614af657600080fd5b8101908080516040519392919084640100000000821115614b1657600080fd5b83820191506020820185811115614b2c57600080fd5b8251866001820283011164010000000082111715614b4957600080fd5b8083526020830192505050908051906020019080838360005b83811015614b7d578082015181840152602081019050614b62565b50505050905090810190601f168015614baa5780820380516001836020036101000a031916815260200191505b506040525050508660405180806020018373ffffffffffffffffffffffffffffffffffffffff1673ffffffffffffffffffffffffffffffffffffffff168152602001828103825284818151815260200191508051906020019080838360005b83811015614c24578082015181840152602081019050614c09565b50505050905090810190601f168015614c515780820380516001836020036101000a031916815260200191505b50935050505060405180910390a15b5050505050565b600260009054906101000a900473ffffffffffffffffffffffffffffffffffffffff1673ffffffffffffffffffffffffffffffffffffffff1663cd905dff6040518163ffffffff1660e01b815260040160206040518083038186803b158015614ccf57600080fd5b505afa158015614ce3573d6000803e3d6000fd5b505050506040513d6020811015614cf957600080fd5b8101908080519060200190929190505050614d5f576040517f08c379a00000000000000000000000000000000000000000000000000000000081526004018080602001828103825260258152602001806165e66025913960400191505060405180910390fd5b83600260009054906101000a900473ffffffffffffffffffffffffffffffffffffffff1673ffffffffffffffffffffffffffffffffffffffff16631309ece7826040518263ffffffff1660e01b8152600401808273ffffffffffffffffffffffffffffffffffffffff1673ffffffffffffffffffffffffffffffffffffffff16815260200191505060206040518083038186803b158015614dff57600080fd5b505afa158015614e13573d6000803e3d6000fd5b505050506040513d6020811015614e2957600080fd5b8101908080519060200190929190505050614eac576040517f08c379a00000000000000000000000000000000000000000000000000000000081526004018080602001828103825260168152602001807f4169726c696e6520646f6573206e6f742065786973740000000000000000000081525060200191505060405180910390fd5b600260009054906101000a900473ffffffffffffffffffffffffffffffffffffffff1673ffffffffffffffffffffffffffffffffffffffff1663f53b6d65826040518263ffffffff1660e01b8152600401808273ffffffffffffffffffffffffffffffffffffffff1673ffffffffffffffffffffffffffffffffffffffff16815260200191505060206040518083038186803b158015614f4b57600080fd5b505afa158015614f5f573d6000803e3d6000fd5b505050506040513d6020811015614f7557600080fd5b8101908080519060200190929190505050614ff8576040517f08c379a00000000000000000000000000000000000000000000000000000000081526004018080602001828103825260158152602001807f4169726c696e65206973206e6f742066756e646564000000000000000000000081525060200191505060405180910390fd5b8484846000838383604051602001808473ffffffffffffffffffffffffffffffffffffffff1673ffffffffffffffffffffffffffffffffffffffff1660601b815260140183805190602001908083835b6020831061506b5780518252602082019150602081019050602083039250615048565b6001836020036101000a03801982511681845116808217855250505050505090500182815260200193505050506040516020818303038152906040528051906020012090506001151560008083815260200190815260200160002060020160169054906101000a900460ff1615151461514c576040517f08c379a00000000000000000000000000000000000000000000000000000000081526004018080602001828103825260188152602001807f466c69676874206973206e6f742072656769737465726564000000000000000081525060200191505060405180910390fd5b6000898989604051602001808473ffffffffffffffffffffffffffffffffffffffff1673ffffffffffffffffffffffffffffffffffffffff1660601b815260140183805190602001908083835b602083106151bc5780518252602082019150602081019050602083039250615199565b6001836020036101000a03801982511681845116808217855250505050505090500182815260200193505050506040516020818303038152906040528051906020012090508660008083815260200190815260200160002060020160146101000a81548160ff021916908360ff160217905550601460ff1660008083815260200190815260200160002060020160149054906101000a900460ff1660ff16141561526c5761526b8a8a8a615825565b5b7f893a9d930329c0f9f3aeb466a5b3637c79923d63c428779599a324712786f6e489898c8a8560405180806020018681526020018573ffffffffffffffffffffffffffffffffffffffff1673ffffffffffffffffffffffffffffffffffffffff1681526020018460ff1660ff168152602001838152602001828103825287818151815260200191508051906020019080838360005b8381101561531c578082015181840152602081019050615301565b50505050905090810190601f1680156153495780820380516001836020036101000a031916815260200191505b50965050505050505060405180910390a150505050505050505050565b600260009054906101000a900473ffffffffffffffffffffffffffffffffffffffff1673ffffffffffffffffffffffffffffffffffffffff1663cd905dff6040518163ffffffff1660e01b815260040160206040518083038186803b1580156153ce57600080fd5b505afa1580156153e2573d6000803e3d6000fd5b505050506040513d60208110156153f857600080fd5b810190808051906020019092919050505061545e576040517f08c379a00000000000000000000000000000000000000000000000000000000081526004018080602001828103825260258152602001806165e66025913960400191505060405180910390fd5b600061546933615fe5565b905060008186868686604051602001808660ff1660ff1660f81b81526001018573ffffffffffffffffffffffffffffffffffffffff1673ffffffffffffffffffffffffffffffffffffffff1660601b8152601401848480828437808301925050508281526020019550505050505060405160208183030381529060405280519060200120905060405180604001604052803373ffffffffffffffffffffffffffffffffffffffff168152602001600115158152506005600083815260200190815260200160002060008201518160000160006101000a81548173ffffffffffffffffffffffffffffffffffffffff021916908373ffffffffffffffffffffffffffffffffffffffff16021790555060208201518160000160146101000a81548160ff0219169083151502179055509050507f3ed01f2c3fc24c6b329d931e35b03e390d23497d22b3f90e15b600343e93df118287878787604051808660ff1660ff1681526020018573ffffffffffffffffffffffffffffffffffffffff1673ffffffffffffffffffffffffffffffffffffffff168152602001806020018381526020018281038252858582818152602001925080828437600081840152601f19601f820116905080830192505050965050505050505060405180910390a1505050505050565b615657616329565b61565f616329565b61566883615fe5565b8160006003811061567557fe5b602002019060ff16908160ff16815250508060006003811061569357fe5b6020020151816001600381106156a557fe5b602002019060ff16908160ff16815250505b806000600381106156c457fe5b602002015160ff16816001600381106156d957fe5b602002015160ff161415615713576156f083615fe5565b816001600381106156fd57fe5b602002019060ff16908160ff16815250506156b7565b8060016003811061572057fe5b60200201518160026003811061573257fe5b602002019060ff16908160ff16815250505b8060006003811061575157fe5b602002015160ff168160026003811061576657fe5b602002015160ff1614806157a157508060016003811061578257fe5b602002015160ff168160026003811061579757fe5b602002015160ff16145b156157d2576157af83615fe5565b816002600381106157bc57fe5b602002019060ff16908160ff1681525050615744565b80915050919050565b600061581d83836040518060400160405280601a81526020017f536166654d6174683a206469766973696f6e206279207a65726f0000000000008152506160d5565b905092915050565b600260009054906101000a900473ffffffffffffffffffffffffffffffffffffffff1673ffffffffffffffffffffffffffffffffffffffff1663cd905dff6040518163ffffffff1660e01b815260040160206040518083038186803b15801561588d57600080fd5b505afa1580156158a1573d6000803e3d6000fd5b505050506040513d60208110156158b757600080fd5b810190808051906020019092919050505061591d576040517f08c379a00000000000000000000000000000000000000000000000000000000081526004018080602001828103825260258152602001806165e66025913960400191505060405180910390fd5b8282826000838383604051602001808473ffffffffffffffffffffffffffffffffffffffff1673ffffffffffffffffffffffffffffffffffffffff1660601b815260140183805190602001908083835b60208310615990578051825260208201915060208101905060208303925061596d565b6001836020036101000a03801982511681845116808217855250505050505090500182815260200193505050506040516020818303038152906040528051906020012090506001151560008083815260200190815260200160002060020160169054906101000a900460ff16151514615a71576040517f08c379a00000000000000000000000000000000000000000000000000000000081526004018080602001828103825260188152602001807f466c69676874206973206e6f742072656769737465726564000000000000000081525060200191505060405180910390fd5b8686866000838383604051602001808473ffffffffffffffffffffffffffffffffffffffff1673ffffffffffffffffffffffffffffffffffffffff1660601b815260140183805190602001908083835b60208310615ae45780518252602082019150602081019050602083039250615ac1565b6001836020036101000a03801982511681845116808217855250505050505090500182815260200193505050506040516020818303038152906040528051906020012090506000151560008083815260200190815260200160002060020160159054906101000a900460ff16151514615ba8576040517f08c379a00000000000000000000000000000000000000000000000000000000081526004018080602001828103825260358152602001806164a56035913960400191505060405180910390fd5b60008b8b8b604051602001808473ffffffffffffffffffffffffffffffffffffffff1673ffffffffffffffffffffffffffffffffffffffff1660601b815260140183805190602001908083835b60208310615c185780518252602082019150602081019050602083039250615bf5565b6001836020036101000a0380198251168184511680821785525050505050509050018281526020019350505050604051602081830303815290604052805190602001209050601460ff1660008083815260200190815260200160002060020160149054906101000a900460ff1660ff1614615cfb576040517f08c379a00000000000000000000000000000000000000000000000000000000081526004018080602001828103825260128152602001807f466c69676874206973206e6f74206c617465000000000000000000000000000081525060200191505060405180910390fd5b6000806000838152602001908152602001600020600301905060008090505b8180549050811015615ec7576000828281548110615d3457fe5b9060005260206000200160009054906101000a900473ffffffffffffffffffffffffffffffffffffffff1690506000615dcb615dc4600160008573ffffffffffffffffffffffffffffffffffffffff1673ffffffffffffffffffffffffffffffffffffffff168152602001908152602001600020600301600088815260200190815260200160002054609661619b565b60646157db565b90506000600160008473ffffffffffffffffffffffffffffffffffffffff1673ffffffffffffffffffffffffffffffffffffffff168152602001908152602001600020600301600087815260200190815260200160002081905550615e72600160008473ffffffffffffffffffffffffffffffffffffffff1673ffffffffffffffffffffffffffffffffffffffff1681526020019081526020016000206001015482616221565b600160008473ffffffffffffffffffffffffffffffffffffffff1673ffffffffffffffffffffffffffffffffffffffff1681526020019081526020016000206001018190555050508080600101915050615d1a565b50600160008084815260200190815260200160002060020160156101000a81548160ff0219169083151502179055507fef52ceb5219ce040f85eeb22acd104c6297df805bb20e0500b88191c305f72878c8c8f8560405180806020018581526020018473ffffffffffffffffffffffffffffffffffffffff1673ffffffffffffffffffffffffffffffffffffffff168152602001838152602001828103825286818151815260200191508051906020019080838360005b83811015615f99578082015181840152602081019050615f7e565b50505050905090810190601f168015615fc65780820380516001836020036101000a031916815260200191505b509550505050505060405180910390a150505050505050505050505050565b600080600a905060008160ff166003601481819054906101000a900460ff168092919060010191906101000a81548160ff021916908360ff16021790555060ff1643034085604051602001808381526020018273ffffffffffffffffffffffffffffffffffffffff1673ffffffffffffffffffffffffffffffffffffffff1660601b8152601401925050506040516020818303038152906040528051906020012060001c8161609057fe5b06905060fa600360149054906101000a900460ff1660ff1611156160cb576000600360146101000a81548160ff021916908360ff1602179055505b8092505050919050565b60008083118290616181576040517f08c379a00000000000000000000000000000000000000000000000000000000081526004018080602001828103825283818151815260200191508051906020019080838360005b8381101561614657808201518184015260208101905061612b565b50505050905090810190601f1680156161735780820380516001836020036101000a031916815260200191505b509250505060405180910390fd5b50600083858161618d57fe5b049050809150509392505050565b6000808314156161ae576000905061621b565b60008284029050828482816161bf57fe5b0414616216576040517f08c379a00000000000000000000000000000000000000000000000000000000081526004018080602001828103825260218152602001806165c56021913960400191505060405180910390fd5b809150505b92915050565b60008082840190508381101561629f576040517f08c379a000000000000000000000000000000000000000000000000000000000815260040180806020018281038252601b8152602001807f536166654d6174683a206164646974696f6e206f766572666c6f77000000000081525060200191505060405180910390fd5b8091505092915050565b828054600181600116156101000203166002900490600052602060002090601f016020900481019282601f106162ea57803560ff1916838001178555616318565b82800160010185558215616318579182015b828111156163175782358255916020019190600101906162fc565b5b50905061632591906163e5565b5090565b6040518060600160405280600390602082028038833980820191505090505090565b826003601f016020900481019282156163d45791602002820160005b838211156163a557835183826101000a81548160ff021916908360ff1602179055509260200192600101602081600001049283019260010302616367565b80156163d25782816101000a81549060ff02191690556001016020816000010492830192600103026163a5565b505b5090506163e1919061640a565b5090565b61640791905b808211156164035760008160009055506001016163eb565b5090565b90565b61643791905b8082111561643357600081816101000a81549060ff021916905550600101616410565b5090565b9056fe466c69676874206f722074696d657374616d7020646f206e6f74206d61746368206f7261636c65207265717565737443616e6e6f7420707572636861736520696e737572616e636520666f72206120666c69676874207468617420697320616c7265616479206c617465496e73757265642070617373656e67657273206f6e2074686973206c61746520666c696768742068617665206265656e207061696445746865722073656e74206973206c657373207468616e2074686520726571756972656420616d6f756e744169726c696e65206973206e6f742072656769737465726564206f722066756e6465644e65656420746f2073656e6420657468657220696e206f7264657220746f20707572636861736520696e737572616e636550617373656e67657220646f6573206e6f7420686176652062616c616e636520656c696769626c6520666f72207769746864726177616c4169726c696e652068617320616c7265616479206265656e2072656769737465726564207769746820746869732061646472657373536166654d6174683a206d756c7469706c69636174696f6e206f766572666c6f77436f6e74726163742069732063757272656e746c79206e6f74206f7065726174696f6e616c43616c6c65722068617320616c726561647920766f74656420746f20726567697374657265642074686973206169726c696e654d6178696d756d20616d6f756e7420746861742063616e206265207061696420666f7220696e737572616e63652069732031206574686572496e64657820646f6573206e6f74206d61746368206f7261636c65207265717565737450617373656e6765722068617320616c72656164792070757263686173656420696e737572616e636520666f72207468697320666c69676874a265627a7a72315820e0e2cc9abee6ef4adcf8da15a4f763ab4a98db7b85f36781435b743fbb33326364736f6c63430005100032",
  "source": "// SPDX-License-Identifier: MIT\npragma solidity >=0.4.22 <0.9.0;\n\nimport \"../node_modules/openzeppelin-solidity/contracts/math/SafeMath.sol\";\n\ninterface IFlightSurety {\n    function isOperational() external view returns(bool);\n    function isAirlineExists(address airline) external view returns (bool);\n    function isAirlineQueued(address airline) external view returns (bool);\n    function isAirlineRegistered(address airline) external view returns (bool);\n    function isAirlineFunded(address airline) external view returns (bool);\n    function getRegisteredAirlinesCount() external view returns (uint);\n    function getAirlineName(address airline) external view returns (string memory);\n    function queueAirline(string calldata name, address airline) external;\n    function registerAirline(string calldata name, address airline) external;\n    function isUniqueVote(address airline, address votingAirline) external view returns (bool);\n    function voteAirline(address airline, address votingAirline) external;\n    function getAirlineVotes(address airline) external view returns (address[] memory);\n    function fundAirline(address airline) external payable;\n}\n\ncontract FlightSuretyApp {\n    using SafeMath for uint256;\n    \n    struct Flight {\n        string flightNumber;\n        uint256 flightTime;        \n        address airline;\n        uint8 statusCode;\n        bool isPaid;\n        bool exists;\n        address[] insuredPassengers;\n    }\n    \n    struct Passenger {\n        string name;\n        uint withdrawBalance;\n        bool exists;\n        mapping(bytes32 => uint) insuredFlights;\n    }\n    \n    // Number of airlines that can registered immediately before\n    // a consensus vote is required\n    uint private constant AIRLINES_REGISTRATION_LIMIT = 3;  \n    uint private constant FUNDING_REQUIRED = 10 ether;\n    uint private constant MAX_INSURANCE_PRICE = 1 ether;\n    \n    mapping(bytes32 => Flight) public flights;\n    mapping(address => Passenger) public passengers;\n    \n    IFlightSurety flightSurety;\n    address private contractOwner; \n    \n    // Flight status codes\n    uint8 private constant STATUS_CODE_UNKNOWN = 0;\n    uint8 private constant STATUS_CODE_ON_TIME = 10;\n    uint8 private constant STATUS_CODE_LATE_AIRLINE = 20;\n    uint8 private constant STATUS_CODE_LATE_WEATHER = 30;\n    uint8 private constant STATUS_CODE_LATE_TECHNICAL = 40;\n    uint8 private constant STATUS_CODE_LATE_OTHER = 50;\n    \n    // Events\n    event AirlineRegistered(string name, address airline);\n    event AirlineQueued(string name, address airline);\n    event AirlineFunded(string name, address airline);\n    event AirlineVoted(string name, address fromAirline, address toAirline);\n    event FlightRegistered(string flightNumber, uint flightTime, address airline, bytes32 flightKey);\n    event FlightStatus(string flightNumber, uint flightTime, address airline, uint8 statusCode, bytes32 flightKey);\n    event FlightCreditInsurees(string flightNumber, uint flightTime, address airline, bytes32 flightKey);\n    event PassengerPurchasedInsurance(string name, bytes32 flightKey, address passenger, uint amount);\n    event PassengerWithdrawBalance(string name, address passenger, uint amount);\n    \n     modifier requireIsOperational() {\n        require(flightSurety.isOperational(), \"Contract is currently not operational\");\n        _; \n    }\n\n    modifier requireContractOwner() {\n        require(msg.sender == contractOwner, \"Caller is not contract owner\");\n        _;\n    }\n    \n    // Check if the airline is registered\n    modifier isAirlineRegistered(address airline) {\n        require(flightSurety.isAirlineExists(airline), \"Airline does not exist\");\n        require(flightSurety.isAirlineRegistered(airline), \"Airline is not registered\");\n        _;\n    }\n    \n    // Check if airline has been queued\n    modifier isAirlineQueued(address airline) {\n        require(flightSurety.isAirlineExists(airline), \"Airline does not exist\");\n        require(flightSurety.isAirlineQueued(airline), \"Airline is not queued\");\n        _;\n    }\n    \n    // Check if an airline is funded\n    modifier isAirlineFunded(address airline) {\n        require(flightSurety.isAirlineExists(airline), \"Airline does not exist\");\n        require(flightSurety.isAirlineFunded(airline), \"Airline is not funded\");\n        _;\n    }\n\n    // Check if airline is registered / funded\n    modifier isAirlineRegisteredFunded(address airline) {\n        require(flightSurety.isAirlineExists(airline), \"Airline does not exist\");\n        require(flightSurety.isAirlineRegistered(airline) || flightSurety.isAirlineFunded(airline), \"Airline is not registered or funded\");\n        _;\n    }\n\n    // Check if the airline address has already been registered\n    modifier isNewAirline(address airline) {\n        require(flightSurety.isAirlineExists(airline) == false, \"Airline has already been registered with this address\");\n        _;\n    }\n\n    // Check if caller has already called this function\n    modifier isUniqueVote(address airline, address votingAirline) {\n        require(flightSurety.isUniqueVote(airline, votingAirline), \"Caller has already voted to registered this airline\");\n        _;\n    }\n    \n    modifier isFlightRegistered(address airline, string memory flightNumber, uint256 flightTime) {\n        bytes32 flightKey = keccak256(abi.encodePacked(airline, flightNumber, flightTime));\n        require(flights[flightKey].exists == true, \"Flight is not registered\");\n        _;\n    }\n    \n    // Check if flight has been paid\n    modifier isFlightPaid(address airline, string memory flightNumber, uint256 flightTime) {\n        bytes32 flightKey = keccak256(abi.encodePacked(airline, flightNumber, flightTime));\n        require(flights[flightKey].isPaid == false, \"Insured passengers on this late flight have been paid\");\n        _;\n    }\n    \n     // Define a modifier that checks if the paid amount is sufficient to cover the price\n     modifier paidEnough(uint amount) { \n        require(msg.value >= amount, \"Ether sent is less than the required amount\"); \n        _;\n    }\n  \n    // Check the amount sent and refunds the remaining balance\n    modifier checkValue(uint amount) {\n        _;\n        uint amountToReturn = msg.value - amount;\n        msg.sender.transfer(amountToReturn);\n    }\n    \n    // Check passenger pays at least 1 ether for insurance\n    modifier paidEnoughForInsurance() {\n        require(msg.value > 0, \"Need to send ether in order to purchase insurance\");\n        require(msg.value <= MAX_INSURANCE_PRICE, \"Maximum amount that can be paid for insurance is 1 ether\");\n        _;\n    }\n    \n    // Check if passenger exits\n    modifier isPassenger(address passenger) {\n        require(passengers[passenger].exists == true, \"Passenger does not exists\");\n        _;\n    }\n    \n    // Check if passenger is eligible to withdraw\n    modifier canPassengerWithdrawBalance(address passenger) {\n        require(passengers[passenger].withdrawBalance > 0, \"Passenger does not have balance eligible for withdrawal\");\n        _;\n    }\n    \n    constructor(address dataContract) public {\n        contractOwner = msg.sender;\n        flightSurety = IFlightSurety(dataContract);\n    }\n    \n    // *******************\n    // Airline functions\n    // *******************\n    function registerAirline(string memory name, address airline) \n        requireIsOperational\n        isNewAirline(airline)\n        isAirlineFunded(msg.sender) public {\n        \n        // Queue the airline if the airline registration limit is exceeded\n        if (flightSurety.getRegisteredAirlinesCount() >= AIRLINES_REGISTRATION_LIMIT) {\n            flightSurety.queueAirline(name, airline);\n            emit AirlineQueued(name, airline);\n        }\n        else {\n            // Register the airline\n            flightSurety.registerAirline(name, airline);\n            emit AirlineRegistered(name, airline);\n        }\n    }\n    \n    function voteAirline(address airline) \n        requireIsOperational\n        isAirlineQueued(airline) \n        isAirlineRegisteredFunded(msg.sender) \n        isUniqueVote(airline, msg.sender) public {\n     \n        flightSurety.voteAirline(airline, msg.sender);\n        emit AirlineVoted(flightSurety.getAirlineName(airline), msg.sender, airline);\n\n        // Check if airline has the required number of votes 50%+\n        if (flightSurety.getAirlineVotes(airline).length > SafeMath.div(flightSurety.getRegisteredAirlinesCount(), 2)) {\n            flightSurety.registerAirline(flightSurety.getAirlineName(airline), airline);\n            emit AirlineRegistered(flightSurety.getAirlineName(airline), airline);\n        }\n    }\n    \n    function fundAirline() \n        isAirlineRegistered(msg.sender) \n        requireIsOperational\n        paidEnough(FUNDING_REQUIRED) \n        checkValue(FUNDING_REQUIRED) external payable {\n        \n        flightSurety.fundAirline.value(msg.value)(msg.sender);\n        emit AirlineFunded(flightSurety.getAirlineName(msg.sender), msg.sender);\n    }\n    \n    // *******************\n    // Flights functions\n    // *******************\n    \n    // Only funded airlines can register flights that passengers can insure against\n    function registerFlight(string calldata flightNumber, uint256 flightTime) \n        requireIsOperational\n        isAirlineFunded(msg.sender) external {\n        \n        // Generate a unique key for storing the flight details\n        bytes32 flightKey = keccak256(abi.encodePacked(msg.sender, flightNumber, flightTime));\n        \n        // Register the flight\n        Flight storage flight = flights[flightKey];\n        flight.flightNumber = flightNumber;\n        flight.flightTime = flightTime;\n        flight.airline = msg.sender;\n        flight.statusCode = STATUS_CODE_UNKNOWN;\n        flight.exists = true;\n        flight.isPaid = false;\n        \n        emit FlightRegistered(flightNumber, flightTime, msg.sender, flightKey);\n    }\n    \n    function processFlightStatus(address airline, string memory flightNumber, uint256 flightTime, uint8 statusCode) \n        requireIsOperational\n        isAirlineFunded(airline)\n        isFlightRegistered(airline, flightNumber, flightTime) public {\n            \n        // Generate the flightKey to retrieve the flight details\n        bytes32 flightKey = keccak256(abi.encodePacked(airline, flightNumber, flightTime));\n        \n        // Set the status for the flight\n        flights[flightKey].statusCode = statusCode;\n        \n        // If flight status is STATUS_CODE_LATE_AIRLINE then refund all users that\n        // have insurance for this flight 1.5x\n        if (flights[flightKey].statusCode == STATUS_CODE_LATE_AIRLINE) {\n            creditInsurees(airline, flightNumber, flightTime);\n        }\n        \n        emit FlightStatus(flightNumber, flightTime, airline, statusCode, flightKey);\n    }\n    \n    // Generate a request for oracles to fetch flight information\n    function fetchFlightStatus(address airline, string calldata flight, uint256 timestamp) \n        requireIsOperational external {\n\n        uint8 index = getRandomIndex(msg.sender);\n\n        // Generate a unique key for storing the request\n        bytes32 key = keccak256(abi.encodePacked(index, airline, flight, timestamp));\n        oracleResponses[key] = ResponseInfo({\n                                                requester: msg.sender,\n                                                isOpen: true\n                                            });\n\n        emit OracleRequest(index, airline, flight, timestamp);\n    } \n\n    // *********************\n    // Passengers functions\n    // *********************\n    \n    function buyInsurance(string calldata name, address airline, string calldata flightNumber, uint256 flightTime) \n        requireIsOperational\n        isAirlineFunded(airline)\n        isFlightRegistered(airline, flightNumber, flightTime)\n        paidEnoughForInsurance external payable {\n        \n        // Generate the flightKey to retrieve the flight details\n        bytes32 flightKey = keccak256(abi.encodePacked(airline, flightNumber, flightTime));\n        \n        // Check if flight is not late and eligible for passengers to purchase insurance\n        require(flights[flightKey].statusCode != STATUS_CODE_LATE_AIRLINE, \"Cannot purchase insurance for a flight that is already late\");\n        \n        // Check if passenger has previously bought insurance for this flight\n        address[] storage insuredPassengers = flights[flightKey].insuredPassengers;\n        for (uint i=0; i < insuredPassengers.length; i++) {\n            if (insuredPassengers[i] == msg.sender) {\n                revert(\"Passenger has already purchased insurance for this flight\");   \n            }\n        }\n        \n        // Add passenger to insured passengers list for the flight\n        insuredPassengers.push(msg.sender);\n        \n        // Register passenger if they have not been created previously\n        if (passengers[msg.sender].exists == false) {\n            Passenger storage passenger = passengers[msg.sender];\n            passenger.name = name;\n            passenger.withdrawBalance = 0;\n            passenger.exists = true;\n        }\n        \n        // Add balance paid for the insured flight\n        passengers[msg.sender].insuredFlights[flightKey] = msg.value;\n        \n        emit PassengerPurchasedInsurance(name, flightKey, msg.sender, msg.value);\n    }\n    \n    // Credit funds to passengers that have bought insurance and airline is late\n    function creditInsurees(address airline, string memory flightNumber, uint256 flightTime) \n        requireIsOperational\n        isFlightRegistered(airline, flightNumber, flightTime)\n        isFlightPaid(airline, flightNumber, flightTime) internal {\n        \n        // Generate the flightKey to retrieve the flight details\n        bytes32 flightKey = keccak256(abi.encodePacked(airline, flightNumber, flightTime));\n        \n        // Check if flight is late\n        require(flights[flightKey].statusCode == STATUS_CODE_LATE_AIRLINE, \"Flight is not late\");\n        \n        // Credit passengers\n        address[] storage insuredPassengers = flights[flightKey].insuredPassengers;\n        for (uint i=0; i < insuredPassengers.length; i++) {\n            address passengerAddress = insuredPassengers[i];\n            uint credit = SafeMath.div(SafeMath.mul(passengers[passengerAddress].insuredFlights[flightKey], 150), 100);\n            \n            // Set balance to 0 for insured passenger\n            passengers[passengerAddress].insuredFlights[flightKey] = 0;\n            \n            // Add credit to current withdraw balance\n            passengers[passengerAddress].withdrawBalance = SafeMath.add(passengers[passengerAddress].withdrawBalance, credit);\n        }\n        \n        // Set flight paid status\n        flights[flightKey].isPaid = true;\n        \n        emit FlightCreditInsurees(flightNumber, flightTime, airline, flightKey);\n    }\n    \n    // Insuree withdraws the balance owed\n    function withdrawFunds() \n        requireIsOperational\n        isPassenger(msg.sender) \n        canPassengerWithdrawBalance(msg.sender) external {\n        \n        // Store the amount to be sent to the passenger\n        uint amountOwed = passengers[msg.sender].withdrawBalance;\n\n        // Reset passengers withdrawal balance to 0 \n        passengers[msg.sender].withdrawBalance = 0;\n\n        // Send funds to passenger\n        msg.sender.transfer(amountOwed);\n        \n        emit PassengerWithdrawBalance(passengers[msg.sender].name, msg.sender, amountOwed);\n    }\n\n// region ORACLE MANAGEMENT\n    // Incremented to add pseudo-randomness at various points\n    uint8 private nonce = 0;    \n\n    // Fee to be paid when registering oracle\n    uint256 public constant REGISTRATION_FEE = 1 ether;\n\n    // Number of oracles that must respond for valid status\n    uint256 private constant MIN_RESPONSES = 3;\n\n    struct Oracle {\n        bool isRegistered;\n        uint8[3] indexes;        \n    }\n\n    // Track all registered oracles\n    mapping(address => Oracle) private oracles;\n\n    // Model for responses from oracles\n    struct ResponseInfo {\n        address requester;                              // Account that requested status\n        bool isOpen;                                    // If open, oracle responses are accepted\n        mapping(uint8 => address[]) responses;          // Mapping key is the status code reported\n                                                        // This lets us group responses and identify\n                                                        // the response that majority of the oracles\n    }\n\n    // Track all oracle responses\n    // Key = hash(index, flight, timestamp)\n    mapping(bytes32 => ResponseInfo) private oracleResponses;\n\n    // Event fired each time an oracle submits a response\n    event FlightStatusInfo(address airline, string flight, uint256 timestamp, uint8 status);\n\n    event OracleReport(address airline, string flight, uint256 timestamp, uint8 status);\n\n    // Event fired when flight status request is submitted\n    // Oracles track this and if they have a matching index\n    // they fetch data and submit a response\n    event OracleRequest(uint8 index, address airline, string flight, uint256 timestamp);\n\n\n    // Register an oracle with the contract\n    function registerOracle() \n        requireIsOperational\n        external payable {\n            \n        // Require registration fee\n        require(msg.value >= REGISTRATION_FEE, \"Registration fee is required\");\n        uint8[3] memory indexes = generateIndexes(msg.sender);\n        oracles[msg.sender] = Oracle({ isRegistered: true, indexes: indexes });\n    }\n\n    function getMyIndexes() view external returns(uint8[3] memory) {\n        require(oracles[msg.sender].isRegistered, \"Not registered as an oracle\");\n        return oracles[msg.sender].indexes;\n    }\n\n    // Called by oracle when a response is available to an outstanding request\n    // For the response to be accepted, there must be a pending request that is open\n    // and matches one of the three Indexes randomly assigned to the oracle at the\n    // time of registration (i.e. uninvited oracles are not welcome)\n    function submitOracleResponse(uint8 index, address airline, string calldata flight, uint256 timestamp, uint8 statusCode) \n        requireIsOperational external {\n        \n        require((oracles[msg.sender].indexes[0] == index) || (oracles[msg.sender].indexes[1] == index) || (oracles[msg.sender].indexes[2] == index), \"Index does not match oracle request\");\n\n        bytes32 key = keccak256(abi.encodePacked(index, airline, flight, timestamp)); \n        require(oracleResponses[key].isOpen, \"Flight or timestamp do not match oracle request\");\n\n        oracleResponses[key].responses[statusCode].push(msg.sender);\n\n        // Information isn't considered verified until at least MIN_RESPONSES\n        // oracles respond with the *** same *** information\n        emit OracleReport(airline, flight, timestamp, statusCode);\n        if (oracleResponses[key].responses[statusCode].length >= MIN_RESPONSES) {\n            emit FlightStatusInfo(airline, flight, timestamp, statusCode);\n\n            // Handle flight status as appropriate\n            processFlightStatus(airline, flight, timestamp, statusCode);\n        }\n    }\n\n    function getFlightKey(address airline, string memory flight, uint256 timestamp) pure internal returns(bytes32) {\n        return keccak256(abi.encodePacked(airline, flight, timestamp));\n    }\n\n    // Returns array of three non-duplicating integers from 0-9\n    function generateIndexes(address account) internal returns(uint8[3] memory) {\n        uint8[3] memory indexes;\n        indexes[0] = getRandomIndex(account);\n        \n        indexes[1] = indexes[0];\n        while(indexes[1] == indexes[0]) {\n            indexes[1] = getRandomIndex(account);\n        }\n\n        indexes[2] = indexes[1];\n        while((indexes[2] == indexes[0]) || (indexes[2] == indexes[1])) {\n            indexes[2] = getRandomIndex(account);\n        }\n\n        return indexes;\n    }\n\n    // Returns array of three non-duplicating integers from 0-9\n    function getRandomIndex(address account) internal returns (uint8) {\n        uint8 maxValue = 10;\n\n        // Pseudo random number...the incrementing nonce adds variation\n        uint8 random = uint8(uint256(keccak256(abi.encodePacked(blockhash(block.number - nonce++), account))) % maxValue);\n\n        if (nonce > 250) {\n            nonce = 0;  // Can only fetch blockhashes for last 256 blocks so we adapt\n        }\n        return random;\n    }\n\n    // endregion\n}",
  "sourcePath": "/Users/antoniocunanan/Desktop/udacity/course 4/submission/udacity-flight-surety/flight-surety-contract/contracts/FlightSuretyApp.sol",
  "compiler": {
    "name": "solc",
    "version": "0.5.16+commit.9c3226ce.Emscripten.clang"
  },
  "schemaVersion": "3.4.1",
  "updatedAt": "2021-08-22T15:39:37.403Z",
  "networkType": "ethereum",
  "devdoc": {
    "methods": {}
  },
  "userdoc": {
    "methods": {}
  }
}